:020000040800F2
:10000000802100206D020008B5A70008DD17000858
:10001000B1A70008D50C000881A800080000000066
:10002000000000000000000000000000BDA7000864
:10003000D90C000800000000B9A70008C1A70008FB
:10004000870200088702000887020008870200086C
:10005000870200088702000887020008870200085C
:10006000870200088702000887020008870200084C
:10007000870200088702000887020008870200083C
:10008000870200088702000887020008870200082C
:10009000870200088702000887020008870200081C
:1000A000870200088702000887020008870200080C
:1000B00087020008870200088702000887020008FC
:1000C00087020008870200088702000887020008EC
:1000D00087020008870200088702000887020008DC
:1000E00087020008870200088702000887020008CC
:1000F00087020008870200088702000887020008BC
:1001000087020008870200088702000887020008AB
:10011000870200088702000887020008870200089B
:10012000870200088702000887020008870200088B
:10013000870200088702000887020008870200087B
:10014000870200088702000887020008870200086B
:10015000870200088702000887020008870200085B
:10016000870200088702000887020008870200084B
:1001700087020008870200088702000800000000CC
:10018000870200088702000800F002F800F05FF81C
:1001900014A696E8000CB244B344DA4501D100F04D
:1001A00056F8BAE80F000FA696E83000A5EB040554
:1001B00004EB0607AAEB0704A7F101074FEA1515A0
:1001C0004FEA3414A4F10104AC4201D300F03FF82B
:1001D00013F0010F18BFFB1A43F0010300F001F800
:1001E000DBE718475C4A01007C4A0100103A24BF53
:1001F00078C878C1FAD8520724BF30C830C144BF8C
:1002000004680C6070470000704700000023002461
:1002100000250026103A28BF78C1FBD8520728BF16
:1002200030C148BF0B607047662910F0648200201F
:1002300070471FB510F052FA00F0D4FB0400002004
:1002400000210FF0E9FCE0601FBD10B510BD00F00B
:10025000CDFC1146FFF7EDFF0EF05EFB00F0EBFC6E
:1002600003B4FFF7F2FF03BC00F02CFD0948804700
:1002700009480047FEE7FEE7FEE7FEE7FEE7FEE788
:10028000FEE7FEE7FEE7FEE704480549054A064BA0
:10029000704700006DA80008890100088001002057
:1002A00080210020801100208011002053EA020CE0
:1002B00000F069802DE9F04B4FF00006002B1FBFC6
:1002C000B3FA83F503FA05F424FA05F65E4012BF8B
:1002D0001643B2FA82F502FA05F4C5F120051EBFF5
:1002E00022FA05FC44EA0C04203556EA044C4FEA95
:1002F000144418BF641C4FF000084FF000099042EE
:1003000071EB030C39D3002919BFB1FA81F701FA57
:1003100007F6B0FA80F700FA07F6C7F120071EBF0C
:1003200020FA07FC46EA0C062037B6FBF4FCA7EBE4
:100330000507103F07F01F0BCBF120062CFA06F63D
:100340000CFA0BFB44BFB3460026202FA4BF5E4629
:100350004FF0000B5BEA060C08BF4FF0010B19EBE6
:100360000B0948EB0608ABFB027C06FB02CC0BFB3F
:1003700003CCC01B71EB0C01C1E70B4602464146A2
:100380004846BDE8F08B13B5084318BF4FF0FF3067
:100390000146AFF30080BDE81C4070470FB41CB5A8
:1003A000074B06AA7B4469460090059800F001FBC4
:1003B0000020694600F010FB1CBC5DF814FB000037
:1003C0003106000070B5044685690068C10601D594
:1003D000302600E02026C00707D070BDD4E90121F7
:1003E00030469047206A401C20626D1EF6D570BDD5
:1003F00070B5044685690078C00707D170BDD4E99F
:10040000012120209047206A401C20626D1EF6D5F5
:1004100070BD2DE9F0474FF0000A89460446C0F848
:1004200020A02046E1688847002876D0252806D0FD
:10043000D4E901219047206A401C2062F1E7E1687D
:10044000204600258847C4F81CA006460027C4F8AB
:1004500018A02A2E09D030460FF0CAFB38B304EB9F
:100460008708303EC8F8186019E059F8041B204688
:1004700004EB87029161E1688847012F064618D195
:10048000E069002820DA25F020051DE0D8F81800E2
:1004900000EB800006EB40003038C8F8180020461A
:1004A000E168884706460FF0A3FB0028EED1012F34
:1004B0000AD02E2E08D12046E16888477F1C0646C8
:1004C000022F45F02005C4DBA069002803DA404272
:1004D00045F00105A061E80701D025F01005B6B18F
:1004E000A6F14100192802D8203645F400654A4695
:1004F0003146204625604D46FFF796FE58B101284B
:1005000006D0ED1D25F0070000F1080989E704E099
:1005100005F1040985E730468AE7206ABDE8F087DF
:100520004FF0000200B5134694469646203922BF8C
:10053000A0E80C50A0E80C50B1F12001BFF4F7AFD7
:10054000090728BFA0E80C5048BF0CC05DF804EBB9
:10055000890028BF40F8042B08BF704748BF20F827
:10056000022B11F0804F18BF00F8012B7047704725
:100570007047704710B500F039FA006810BD10B52B
:10058000044600F033FA046010BD2DE9FF4F0C461D
:100590001E464FF0FF378BB0D2E90001DDF86080D6
:1005A0000A908A46C1F30A5505B93D46002108461E
:1005B0004FF00000BAF1000F00F4400005DA00EB44
:1005C00080004FF4400101EA50004FEA9059B9F120
:1005D000010F00DDB9460A9850EA4A000ED044F6F1
:1005E0001050A5F2FF3545432F14B8F1000F1ED06F
:1005F0007542291E1EDDC9F100021CE0B8F1010F91
:100600004FF0000001D0302103E0F24305E0215417
:10061000401CB042FBDB30460022002121540B99E4
:10062000C1F80880C1E900200FB0BDE8F08FBD1B04
:100630006D1CDEE74A4600DA694206A800F060FA5F
:1006400006AB93E8070003AB83E8070050460A991E
:100650000EF011FA8DE80700A0F500501F38009049
:100660000398002D0ADD42F21F014A460844002388
:1006700003A9039068460EF07BFC09E0A0F500504A
:100680004A461F38002303A9039068460EF085FCF4
:100690008DE807000004000C03D04FF0FF30410844
:1006A00000E01046B8F1000F03D00022009215467A
:1006B0001EE0751E05D400F09DF9303262556D1EA6
:1006C000F9D5B3460122084302D000227F1C04E082
:1006D0002078302801D100227F1E002A099784D07B
:1006E0001DE0112D07DA00F085F9303262556D1CDE
:1006F00050EA0102F5D1084302D00098C8B10EE0DB
:100700000021681E05E0235C625C63542254401E95
:10071000491C8142F7DBAB46A81B401E0990002014
:1007200004F80B000B98099AC0F80880C0E9002B68
:100730007AE711264FF0000857E72DE9F04F884679
:100740000446D21D22F0070191B0D1E90001CDE9A4
:100750000A010EF059FD02460B98C00F01D02D2062
:1007600007E02068810701D52B2002E0202101EA63
:10077000C000032A099001D0072A05DB0346414641
:10078000204600F07DF90BE12078800601D5E06974
:1007900000E00620B8F1650F814606D0B8F1660F7B
:1007A00018D0B8F1670F70D131E00020B9F1110F06
:1007B000009001DB112301E009F101030AAA01A95C
:1007C0000CA8FFF7E2FEDDE90C70002609F1010537
:1007D000834647E001204B4600904FF000470AAAAD
:1007E00001A90CA8FFF7D1FEDDE90DB00C995D461B
:1007F000002610B909F101000D18B9EB050003D46A
:10080000C0F1FF3609F10105A5EB09002BE0B9F1B4
:10081000010F01DA4FF001090020B9F1110F00902A
:10082000484601DD112300E003460AAA01A90CA8ED
:10083000FFF7ABFEDDE90C704D46002683462078BD
:1008400000070AD4AB4500DA5D4601A8012D04DD9E
:10085000411911F8011C302907D04F4502DA17F170
:10086000040F04DA012082460FE06D1EEEE7002F30
:1008700002DCED1B3E4403E0781CA84200DD7D1C39
:10088000B81B00F1010A4FF000472078000703D49D
:10089000AA4501DB4FF0FF3A0021B7F1004F0DF1FF
:1008A00043088DF8431024D002202B23002F01DAB7
:1008B0007F422D230A21021EA0F1010000DC5FB15E
:1008C00097FBF1FC97FBF1F201FB1C7C17460CF146
:1008D000300C08F801CDEEE7A8F101000370218883
:1008E000090501D5452100E06521A0F1010800F8C6
:1008F000011C09980FA9A1EB0807FF1D00B10120F9
:10090000411901EBEA70A1693844081A401EA06140
:100910002078C00602D42046FFF754FD099828B17C
:10092000D4E901219047206A401C20622078C0064B
:1009300022D52046FFF746FD1EE0002E04DBB3451E
:1009400002DD01A8805D00E03020D4E9012190475C
:10095000206A401C2062761CAAF101005FEA000AAE
:100960000AD100F03FF8C0680168405CD4E9012179
:100970009047206A401C2062281EA5F10105DCDC9E
:1009800007E0D4E9012118F8010B9047206A401CC8
:100990002062381EA7F10107F3DC2046FFF728FD8F
:1009A000032011B041E6000001694A1C0261087889
:1009B000704700B58FB0CDE901310021059105499F
:1009C0007944CDE9031011466846FFF722FD0FB0C8
:1009D00000BD0000E5FFFFFF0A6802F8010B0A6096
:1009E0007047000000487047300000200048704702
:1009F0001000002030B5B0F10A0271F100034FEA97
:100A0000900E4EEA817EB0EB0E0061EB91014FEA51
:100A1000101E4EEA017E10EB0E0041EB11114FEA61
:100A2000102E4EEA016E10EB0E0041EB11214FEA41
:100A3000104E4EEA014E10EB0E0041EB11414018F2
:100A400041F100014FEAD00040EA41704FEAD10184
:100A50004FEA810444EA907410EB800544EB0104F2
:100A60006D1944EB0404521BA3414FF0000348BF2F
:100A70000A3200D530BD401C41F1000130BD0000FC
:100A80002DE9F0411F46044603260168072A01F4B8
:100A9000006004DB08B116A505E016A503E008B167
:100AA00015A500E015A521F010002060A069C01E6A
:100AB000A0610FB1401EA0612046FFF783FC4FB13B
:100AC000D4E9012138469047206A401C2062C01CAE
:100AD000206206E0206AFAE7D4E9012115F8010B4B
:100AE0009047761EF8D22046FFF782FCBDE8F081E1
:100AF0004E414E006E616E00494E4600696E6600C2
:100B00002DE9F047814616468AB0354878440DC82D
:100B10008DE80D0032487844801C03AC0DC884E891
:100B20000D0041F69B300844372190FBF1F290FB19
:100B3000F1F5A5F1800501FB12041B3C02D56442CE
:100B4000012000E00020DFF898A080460027FA444A
:100B5000AAF1BE0A0EE0E0070AD03246684607EB6B
:100B6000470101230AEB81010EF017FA8DE8070017
:100B700064107F1C002CEED1194F7F44AE3F19E06A
:100B8000E80715D007EB04100DF1180A90E80E00E5
:100B90008AE80E00C068F04201D1981908903246E8
:100BA000012306A903A80EF0F8F903AB83E80700B8
:100BB0006D10641C002DE3D14FF0010332466946ED
:100BC000B8F1000F03A802D00EF0D2F901E00EF048
:100BD000E4F9C9E90001C9F808200AB0BDE8F087C6
:100BE00094FD000000487047100000207546FFF794
:100BF000F9FFAE4605006946534620F007008546DA
:100C000018B020B5FFF740FBBDE820404FF00006CC
:100C10004FF000074FF000084FF0000BAC46ACE877
:100C2000C009ACE8C009ACE8C009ACE8C00921F0D3
:100C300007018D46704710B50446AFF3008020468B
:100C4000BDE81040FFF70CBB30B44FF0013C50F84A
:100C5000042B51F8043BCCFA52F4D51A20D1FCB93C
:100C600050F8042B51F8043BCCFA52F4D51A17D1A2
:100C7000B4B950F8042B51F8043BCCFA52F4D51A0D
:100C80000ED16CB950F8042B51F8043BCCFA52F455
:100C9000D51A05D1002CDAD030BC4FF000007047D7
:100CA00029BAB1FA81F111F01801D1F12000844084
:100CB000F2D1CA40CB4012F0FF0213F0FF0330BC68
:100CC000D01A704701491820ABBEFEE7260002008B
:100CD00070470000FEE7000070470000B3F5804F4A
:100CE00003461DD1B0B553F822C00020CCF6F070F9
:100CF0000CEA000E91E83100D1F818C040EA0E006D
:100D000040EA0410C96840EA052040EA0C0040EAC5
:100D10000141BDE8B040002043F82210704700BFF9
:100D20006FF07041002043F8221070472DE9F04F1A
:100D300083B00B68024650F8230001F1240B20F029
:100D4000010042F82300D1E902C0D1E900E301909B
:100D50008869D1E9049A0290C86BD1E907760090BE
:100D60009BE83008D1F8308052F82E008021CFF671
:100D7000F0710840BCF1080F08BF43F0400301992F
:100D8000194341EA090141EA0A0139433143214348
:100D9000294341EA0B01029B41EA08011943009BE8
:100DA0001943084340EA0C01002042F82E1003B01A
:100DB000BDE8F08F70B5D1E900C3D1E902E44CEA97
:100DC000031343EA0E23D1E9045643EA0443002403
:100DD000CFF6F074896904EB05552B43FE361943B1
:100DE00041EA066100EB82020020516070BD000004
:100DF000B0B5044600F0E6F8054640F20000C2F245
:100E000000000078611C18BF044400BF00F0DAF84D
:100E1000401BA042FAD3B0BD2DE9F04F83B000F1E2
:100E2000200200F13E4741F60045009207F1FF77AE
:100E3000C4F2020508224FEAB726A84208BF0722DB
:100E400000254FF000084FF00009072E38BF4FEA89
:100E5000B72201920AE000BF09F1010908F1020876
:100E6000B9F1100F05F1040500F0A2800F6801220E
:100E700002FA09FE17EA0E0AEED0D1F804C00322E6
:100E80000CF003077E1E02FA08F4012E6FEA040B31
:100E900012D88468CE6804EA0B0406FA08F63443D4
:100EA0008460446824EA0E06CCF3001404FA09F4C2
:100EB0002643466004E000BF032F01D103271EE054
:100EC000C6688C6806EA0B0604FA08F42643022F6B
:100ED000C66014D16FF00302009E02EA590756F86B
:100EE00007C005F01C040F220B69A2402CEA020285
:100EF000A3401A43F251D1F804C00CF00307026872
:100F000007FA08F302EA0B021A431CF4403F02609E
:100F1000A2D0002243F644030292C4F202031A68EC
:100F200043F6004442F480421A601A68C4F2010495
:100F300002F480420292029A29F003024FF6084C12
:100F40002244CFF6FF7C52F80C3005F00C070F2638
:100F5000BE40B343019E06FA07F73B4342F80C300C
:100F6000A2684B6842EA0A0743F60C4CDE0258BFFF
:100F700022EA0A07A760C4F2010CDCF800209E02F6
:100F800042EA0A0758BF22EA0A07CCF800706268F2
:100F90009E0342EA0A0758BF22EA0A0767602268EE
:100FA000DB0342EA0A0758BF22EA0A07276053E731
:100FB00003B0BDE8F08F0000002A08BF090481617A
:100FC0007047000040F27C10C2F2000000687047D9
:100FD00040F2000040F27C11C2F20000C2F20001B7
:100FE00000780A68104408607047000080B543F636
:100FF0000040C4F20200016841F400710160016820
:1010000041F480610160016841F480710160032056
:1010100000F074F80F2000F005F800F027F8002029
:1010200080BD000070B540F20006C2F2000640F23A
:1010300008013278C2F200014FF47A730968B3FBF9
:10104000F2F20446B1FBF2F1084600F0B1FB0F2CBE
:101050004FF0010508D838B94FF0FF302146002283
:10106000002500F01FF87460284670BD82B0002093
:1010700043F640010190C4F202014A6842F4804202
:101080004A604A6802F480420192019A009008681E
:1010900040F080500860086800F080500090009890
:1010A00002B0704710B54EF60C5CCEF2000CDCF8C6
:1010B0000030C3F3022E8EF00704042C28BF042452
:1010C000BEF103034FF0FF3E0EFA04F438BF0023D5
:1010D000A14399400EFA03F39A43114300F00F0223
:1010E00000F160430901043A03F5644362440028B7
:1010F00048BF02F10C03197010BD00004EF60C51F0
:10110000CEF200010A684FF6FF031A4060F30A228C
:1011100042F0806040F0FD7008607047002804BF16
:10112000012070472DE9F04143F60808C4F2020897
:101130000446D8F8F8030D4600F00700814207D9AD
:1011400088F8F853D8F8F80300F00700A84277D1E0
:101150002068810717D5410705D5D8F8001041F45C
:10116000E051C8F80010010705D5D8F8001041F487
:101170006041C8F80010D8F80010A26821F0F00112
:101180001143C8F80010C00740D1D8F8F80300F0A8
:101190000700854207D288F8F853D8F8F80300F022
:1011A0000700A8424CD12068410707D5D8F80010A5
:1011B000E26821F4E0511143C8F80010000708D597
:1011C000D8F80000216920F4604040EAC100C8F866
:1011D000000000F055F8D8F8001040F6BC02C1F34A
:1011E0000311C0F60102515C40F2080220FA01F13D
:1011F00040F20400C2F200000068C2F20002116076
:10120000FFF710FF0020BDE8F08100BF6068811E7D
:10121000022907D258F8081C89015CBF0120BDE8EB
:10122000F08111E0012807D158F8081C89035CBF40
:101230000120BDE8F08107E058F8081C890703D4B5
:101240000120BDE8F08100BFD8F8001021F00301B3
:101250000843C8F80000FFF7B5FE064641F288379C
:10126000D8F80000616800F00C00B0EB810F8CD062
:10127000FFF7A8FE801BB842F2D90320BDE8F08139
:1012800010B543F60404C4F202046168C1F381019D
:1012900042F20040C0F2F400DFE801F002040A026A
:1012A00010BD00BF41F20020C0F27A0010BD00BFA7
:1012B000216801F03F02216823684902C3F38811C5
:1012C00006D4A1FB00010023FEF7F0FF07E000BFFA
:1012D00041F20020C0F27A004843B0FBF2F02168EE
:1012E0000222C1F3014102EB4101B0FBF1F010BD5C
:1012F000002804BF012070472DE9F04182B0044668
:10130000007843F60006C007C4F202060CD0B068AD
:1013100000F00C00042840F081803068800303D581
:101320006068002800F06881207880071BD5B068CD
:1013300010F00C0F09D0B06800F00C00082840F045
:1013400087807068400200F183803068800703D591
:10135000E068012840F050813068216920F0F800F1
:1013600040EAC10030602078000713D4207840079D
:101370002AD4A569002D00F03A81B06800F00C0075
:10138000082840F0A580012D40F00E81012002B018
:10139000BDE8F0816069002800F082800020C4F27E
:1013A00047200121C0F8801EFFF70CFE054600BF54
:1013B000706F8007DAD4FFF705FE401B0228F7D9CB
:1013C000032002B0BDE8F081306C5FEAC0080AD4A7
:1013D00000200190306C40F080503064306C00F0A0
:1013E00080500190019847F20007C4F20007386866
:1013F000C00547D4386840F480703860FFF7E2FDDC
:10140000054600BF3868C0053CD4FFF7DBFD401B34
:101410000228F7D9032002B0BDE8F081B06800F0DF
:101420000C00082803D1706840023FF576AF616870
:101430003068B1F5803F07D0B1F5A02F40F09A8019
:1014400040F480203060306840F4803030609AE0B2
:10145000E068002840F20000C4F247205CD001217F
:101460000160FFF7AFFD0546306880073FF574AFB8
:10147000FFF7A8FD401B0228F6D9032002B0BDE803
:10148000F08100BFA168306F012905D0052955D131
:1014900040F004003067306F40F00100306756E0E4
:1014A0000020C4F247200021C0F8801EFFF78AFD0B
:1014B000054600BF706F80077FF558AFFFF782FDCC
:1014C000401B0228F6D9032002B0BDE8F08100BF1E
:1014D0000027C4F2472700203866FFF773FD022D6E
:1014E00005460DD13068800140F18A80FFF76AFD22
:1014F000401B02284FF00300F4D902B0BDE8F08190
:101500003068800173D5FFF75DFD401B02284FF066
:101510000300F5D9F1E700BF00210160FFF752FD9C
:10152000054600BF306880077FF51DAFFFF74AFD15
:10153000401B02284FF00300F4D9DEE720F0010041
:101540003067306F002920F0040030677AD0FFF751
:1015500039FD054641F28837306F800700F18480FD
:10156000FFF730FD401BB842F6D9032002B0BDE8BA
:10157000F08100BF20F4803030603068002920F412
:10158000802030607AD0FFF71DFD0546306880036B
:101590003FF5CAAEFFF716FD401B6428F6D90320BD
:1015A00002B0BDE8F08100BF7068E16900F480021C
:1015B0008A4221D1216A00F03F028A421CD147F6BB
:1015C000C071626A0140B1EB821F15D1A16A4FF66A
:1015D000FF73C903994300F44032A1F580318A4278
:1015E0000AD1E16A00F07060B0EB016F04D1002015
:1015F00002B0BDE8F08100BF012002B0BDE8F0817B
:1016000004F11C052FCD084340EA8210D9034FF6A0
:10161000FF729143A1F5803140EA05600843706094
:1016200001203866FFF7CEFC044600BF3068800119
:10163000DDD4FFF7C7FC001B02284FF00300F5D9EB
:101640005BE700BFFFF7BEFC054641F2883700BFED
:10165000306F800708D5FFF7B5FC401BB8424FF04C
:101660000300F5D949E700BFB8F1000F3FF581AE9F
:10167000306C20F0805030647BE600BFFFF7A2FCA6
:10168000054600BF306880037FF54EAEFFF79AFC39
:10169000401B64284FF00300F4D92EE7002804BF54
:1016A0000120704770B5044690F8490015460E4673
:1016B00028B9002084F84800204600F01DF8206872
:1016C00004F10801FFF732FB2068A2683146FFF7FA
:1016D00071FBD4E90102236B2946FFF7FFFA20686A
:1016E000A16850F8212042F0010240F82120012099
:1016F00084F84900002070BD2DE9F04786B040F223
:101700007000C2F200000178002600290596CDE99C
:1017100003660296019648D10121017043F6380014
:101720000096C4F20200016840F6004441F0010155
:1017300001600068C4F2020400F00100009000980B
:1017400001AD4FF480584FF002094FF0030A0C2707
:1017500004F500602946CDF80480CDE90296CDF865
:1017600010A00597FFF758FB4FF68070CDE90109EF
:1017700004F580602946CDE9036A0597FFF74CFB25
:101780004CF23370CDE9010920462946CDE9036AC0
:101790000597FFF741FB04F540602946CDE9018933
:1017A000CDE9036A0597FFF737FB06B0BDE8F08780
:1017B000411E0020B0EB116F1CBF012070474EF29C
:1017C0001002CEF2000251604EF62351CEF200011B
:1017D000F0230B700721906011607047FEE7000056
:1017E000B0B540F2800C4FF0D8442A25C6F6004C24
:1017F0002580050AACF80050C5B2ACF80050150AB7
:10180000ACF80050D5B2ACF800502B2525800D0A5D
:10181000ACF80050CDB2101A591AACF800501D0A9D
:1018200001300131DDF810E0ACF80050DDB201FB11
:1018300000F240F27100ACF800502C25C2F200001A
:10184000258000EB4E00B0F80700110902F00F0EE2
:1018500000F0D78011F00304A1F101034AD0012C5C
:101860001A46ACF80000ACF80000ACF80000ACF888
:101870000000ACF80000ACF80000ACF80000ACF8D8
:101880000000ACF80000ACF80000ACF80000ACF8C8
:101890000000ACF80000ACF80000ACF80000ACF8B8
:1018A000000028D0022CACF80000ACF80000ACF826
:1018B0000000ACF80000ACF80000ACF80000ACF898
:1018C0000000ACF80000ACF80000ACF80000ACF888
:1018D0000000ACF80000ACF80000ACF80000ACF878
:1018E0000000ACF8000040F0D9808A1E032B05D21E
:1018F00087E000BF0A46032BC0F08380043AACF8AF
:101900000000ACF80000ACF80000ACF80000ACF847
:101910000000ACF80000ACF80000ACF80000ACF837
:101920000000ACF80000ACF80000ACF80000ACF827
:101930000000ACF80000ACF80000ACF80000ACF817
:101940000000ACF80000ACF80000ACF80000ACF807
:101950000000ACF80000ACF80000ACF80000ACF8F7
:101960000000ACF80000ACF80000ACF80000ACF8E7
:101970000000ACF80000ACF80000ACF80000ACF8D7
:101980000000ACF80000ACF80000ACF80000ACF8C7
:101990000000ACF80000ACF80000ACF80000ACF8B7
:1019A0000000ACF80000ACF80000ACF80000ACF8A7
:1019B0000000ACF80000ACF80000ACF80000ACF897
:1019C0000000ACF80000ACF80000ACF80000ACF887
:1019D0000000ACF80000ACF80000ACF80000ACF877
:1019E0000000ACF80000ACF80000ACF80000ACF867
:1019F0000000ACF80000ACF80000ACF800007FF488
:101A00007DAFBEF1000F48D0BEF1010FACF8000071
:101A100043D0BEF1020FACF800003ED0BEF1030F80
:101A2000ACF8000039D0BEF1040FACF8000034D09F
:101A3000BEF1050FACF800002FD0BEF1060FACF8D8
:101A400000002AD0BEF1070FACF8000025D0BEF18F
:101A5000080FACF8000020D0BEF1090FACF8000070
:101A60001BD0BEF10A0FACF8000016D0BEF10B0F70
:101A7000ACF8000011D0BEF10C0FACF8000008BFAC
:101A8000B0BDBEF10D0FACF8000006D0BEF10E0FD8
:101A9000ACF8000018BFACF80000B0BDCA1EACF82E
:101AA0000000ACF80000ACF80000ACF80000ACF8A6
:101AB0000000ACF80000ACF80000ACF80000ACF896
:101AC0000000ACF80000ACF80000ACF80000ACF886
:101AD0000000ACF80000ACF80000ACF80000032BEC
:101AE000BFF40CAF8DE70000B0B540F2800E4FF0B0
:101AF000D8442A25C6F6004E2580050AAEF80050C7
:101B0000C5B2AEF80050150AAEF80050D5B2AEF826
:101B100000502B2525800D0AAEF80050CDB2101ACA
:101B2000591AAEF800501D0A01300131DDF810C01D
:101B3000AEF80050DDB24843AEF800502C25030942
:101B400000F00F00258000F0D68013F00304A3F10D
:101B5000010249D0012C1146AEF800C0AEF800C019
:101B6000AEF800C0AEF800C0AEF800C0AEF800C0DD
:101B7000AEF800C0AEF800C0AEF800C0AEF800C0CD
:101B8000AEF800C0AEF800C0AEF800C0AEF800C0BD
:101B9000AEF800C0AEF800C027D0022CAEF800C0EE
:101BA000AEF800C0AEF800C0AEF800C0AEF800C09D
:101BB000AEF800C0AEF800C0AEF800C0AEF800C08D
:101BC000AEF800C0AEF800C0AEF800C0AEF800C07D
:101BD000AEF800C0AEF800C0AEF800C040F0C8805B
:101BE000991E032A04D286E01946032AC0F0838096
:101BF0000439AEF800C0AEF800C0AEF800C0AEF8D0
:101C000000C0AEF800C0AEF800C0AEF800C0AEF83C
:101C100000C0AEF800C0AEF800C0AEF800C0AEF82C
:101C200000C0AEF800C0AEF800C0AEF800C0AEF81C
:101C300000C0AEF800C0AEF800C0AEF800C0AEF80C
:101C400000C0AEF800C0AEF800C0AEF800C0AEF8FC
:101C500000C0AEF800C0AEF800C0AEF800C0AEF8EC
:101C600000C0AEF800C0AEF800C0AEF800C0AEF8DC
:101C700000C0AEF800C0AEF800C0AEF800C0AEF8CC
:101C800000C0AEF800C0AEF800C0AEF800C0AEF8BC
:101C900000C0AEF800C0AEF800C0AEF800C0AEF8AC
:101CA00000C0AEF800C0AEF800C0AEF800C0AEF89C
:101CB00000C0AEF800C0AEF800C0AEF800C0AEF88C
:101CC00000C0AEF800C0AEF800C0AEF800C0AEF87C
:101CD00000C0AEF800C0AEF800C0AEF800C0AEF86C
:101CE00000C0AEF800C0AEF800C0AEF800C0AEF85C
:101CF00000C07FF47DAFD0B30128AEF800C036D06D
:101D00000228AEF800C032D00328AEF800C02ED0B2
:101D10000428AEF800C02AD00528AEF800C026D0AE
:101D20000628AEF800C022D00728AEF800C01ED0AA
:101D30000828AEF800C01AD00928AEF800C016D0A6
:101D40000A28AEF800C012D00B28AEF800C00ED0A2
:101D50000C28AEF800C008BFB0BD0D28AEF800C01A
:101D600005D00E28AEF800C018BFAEF800C0B0BD58
:101D7000D91EAEF800C0AEF800C0AEF800C0AEF894
:101D800000C0AEF800C0AEF800C0AEF800C0AEF8BB
:101D900000C0AEF800C0AEF800C0AEF800C0AEF8AB
:101DA00000C0AEF800C0AEF800C0AEF800C0AEF89B
:101DB00000C0032ABFF41CAF9DE7000080B54FF0C0
:101DC000D84C2A23ACF8003080234FEA102EC6F6F8
:101DD0000043C0B2A3F800E01880A3F800E0188028
:101DE0002B20ACF80000080AC9B2188019801880AE
:101DF0002C201980ACF8000040F27100C2F2000003
:101E000000EB4200B0F80700188080BD10B540F22A
:101E1000800C4FF0D84E2A24C6F6004CAEF8004095
:101E2000040AACF80040C4B2ACF80040140AACF8A4
:101E30000040D4B2ACF800402B24AEF800400C0AAD
:101E4000ACF80040CCB2101A591AACF800401C0A89
:101E500001300131ACF80040DCB201FB00F2ACF81B
:101E600000402C24AEF800402AB3029840F27101E1
:101E7000C2F2000101EB4000B0F80700042A02F0B2
:101E800003010BD322F00302043AACF80000ACF8D3
:101E90000000ACF80000ACF80000F5D1002908BF44
:101EA00010BD0129ACF8000005D00229ACF80000F3
:101EB00018BFACF8000010BD10B540F2800C4FF018
:101EC000D84E2A24C6F6004CAEF80040040AACF8FE
:101ED0000040C4B2ACF80040140AACF80040D4B2E0
:101EE000ACF800402B24AEF800400C0AACF80040DF
:101EF000CCB2101A591AACF800401C0A013001315A
:101F0000ACF80040DCB201FB00F2ACF800402C243D
:101F1000AEF80040EAB10298042A02F003010BD3A4
:101F200022F00302043AACF80000ACF80000ACF870
:101F30000000ACF80000F5D1002908BF10BD012950
:101F4000ACF8000005D00229ACF8000018BFACF8CE
:101F5000000010BD2DE9F04140F22C16C2F200063F
:101F600006F10E043779757996F80880022808BFC3
:101F700006F11004B4F800E006F10A04022808BFD4
:101F800006F10C0440F2800C20884FF0D8442A2639
:101F9000C6F6004C2680160AACF80060D6B23A4469
:101FA000013AACF80060160AD2B2ACF80060ACF8A6
:101FB00000202B2222801A0AACF80020DAB2ACF8FA
:101FC0000020EA18130AD2B2ACF80030ACF80020B6
:101FD0002C225FEAC873228002D1424647E000BF4C
:101FE00011F8012B82B353B2002B734648BF03464E
:101FF000ACF800305306734648BF0346ACF80030D7
:102000009306734648BF0346ACF80030D3067346C8
:1020100048BF0346ACF800301307734648BF034679
:10202000ACF800305307734648BF0346ACF80030A5
:102030009307734648BF0346D2070246ACF8003008
:1020400008BF72460FE000BF7246ACF800E0ACF883
:1020500000E0ACF800E0ACF800E0ACF800E0ACF870
:1020600000E0ACF800E0ACF80020A8F101025FFA53
:1020700088F3012B08BFBDE8F08100BF0B78002B6F
:1020800064D05CB2002C744648BF0446ACF80040F3
:102090005C06744648BF0446ACF800409C06744693
:1020A00048BF0446ACF80040DC06744648BF04460E
:1020B000ACF800401C07744648BF0446ACF800402A
:1020C0005C07744648BF0446ACF800409C07744661
:1020D00048BF0446DB070346ACF8004008BF734620
:1020E000ACF800304B78002B44D05CB2002C744626
:1020F00048BF0446ACF800405C06744648BF04463E
:10210000ACF800409C06744648BF0446ACF800405A
:10211000DC06744648BF0446ACF800401C07744611
:1021200048BF0446ACF800405C07744648BF04460C
:10213000ACF800409C07744648BF0446DB070346E2
:10214000ACF8004008BF734623E000BF7346ACF80C
:1021500000E0ACF800E0ACF800E0ACF800E0ACF86F
:1021600000E0ACF800E0ACF800E0ACF800304B78F0
:10217000002BBAD17346ACF800E0ACF800E0ACF844
:1021800000E0ACF800E0ACF800E0ACF800E0ACF83F
:1021900000E0023AACF80030130601F102017FF4CE
:1021A0006DAFBDE8F08100002DE9F04F8FB001EB7D
:1021B000410544F63A0140F27108C0F60101C2F24D
:1021C00000080DF1600C01EB450608EB45059CE8A5
:1021D0001016002808BF05F1170637793078757892
:1021E000F1789E46737996F802B00E900491411AE8
:1021F000E81BCDE908750D90ABEB03000292CDE929
:102200000B03CAB198F80660032E019600F2BC8257
:10221000CDF80CE0DFE806F0022A162098F800005E
:102220000F46B8F80410E046012804BFA1EB0908E6
:10223000A1EB0C09022026E000200F460190614628
:102240004A4628E0B8F804000F46A0EB0908A0EBC6
:102250000C09012017E000BFB8F804000F46A0EBFE
:102260000908A0EB0C0900200DE000BF98F8000061
:102270000F46B8F80410E046012804BFA1EB090896
:10228000A1EB0C09032001F065F9DDF80CE05146E3
:10229000C24622464C464FF0D8452A2680202E8042
:1022A000A6B2C6F60040360A0680E6B206801FFADD
:1022B0008AF6360A06805FFA8AF606802B262E807A
:1022C000160A0680D6B206800E0A0680CEB20680B6
:1022D0002C262E808D1A0D9A39024FEA02280B9A6D
:1022E000AAEB040705F1010C1202BEF1010F07F180
:1022F000010A1FFA8CF705D8002600230D96CDE9B8
:102300000A360AE073464FF0010E01267F080D964B
:102310002EEA05069E460A960B9792FBF7F2089C5A
:10232000079298FBF7F2069291FBF7F205921EF0E6
:10233000FD02B2FA82F20E994FEA5217049A08BFD0
:102340001146099B08BF23460C9A08BF9346CAF35F
:102350000B124FEA0B241B020902002A0AF00F0A93
:1023600000F09681561E0C9602F003060896961E03
:1023700004960992033A039209E000BF00220D92ED
:102380000E994C4643465FEA0C4200F0F0810E91F4
:1023900001F478464FF4FC6101EA53120899D646DD
:1023A000C4F3C4253244DDF824A0A146984602EBCC
:1023B000050B00296AD0A0F800B0A0F800B0A0F882
:1023C00000B0A0F800B0A0F800B0A0F800B0A0F8ED
:1023D00000B0A0F800B0A0F800B0A0F800B0A0F8DD
:1023E00000B0A0F800B0A0F800B0A0F800B0A0F8CD
:1023F00000B0A0F800B0DDF830A0012946D0A0F868
:1024000000B0A0F800B0A0F800B0A0F800B0A0F8AC
:1024100000B0A0F800B0A0F800B0A0F800B0A0F89C
:1024200000B0A0F800B0A0F800B0A0F800B0A0F88C
:1024300000B0A0F800B0A0F800B0A0F800B0DDF83F
:1024400010A0022922D0A0F800B0A0F800B0A0F897
:1024500000B0A0F800B0A0F800B0A0F800B0A0F85C
:1024600000B0A0F800B0A0F800B0A0F800B0A0F84C
:1024700000B0A0F800B0A0F800B0A0F800B0A0F83C
:1024800000B0A0F800B0DDF80CA000BF0C99032943
:10249000C0F08680AAF1040A5FEA0A42A0F800B000
:1024A000A0F800B0A0F800B0A0F800B0A0F800B00C
:1024B000A0F800B0A0F800B0A0F800B0A0F800B0FC
:1024C000A0F800B0A0F800B0A0F800B0A0F800B0EC
:1024D000A0F800B0A0F800B0A0F800B0A0F800B0DC
:1024E000A0F800B0A0F800B0A0F800B0A0F800B0CC
:1024F000A0F800B0A0F800B0A0F800B0A0F800B0BC
:10250000A0F800B0A0F800B0A0F800B0A0F800B0AB
:10251000A0F800B0A0F800B0A0F800B0A0F800B09B
:10252000A0F800B0A0F800B0A0F800B0A0F800B08B
:10253000A0F800B0A0F800B0A0F800B0A0F800B07B
:10254000A0F800B0A0F800B0A0F800B0A0F800B06B
:10255000A0F800B0A0F800B0A0F800B0A0F800B05B
:10256000A0F800B0A0F800B0A0F800B0A0F800B04B
:10257000A0F800B0A0F800B0A0F800B0A0F800B03B
:10258000A0F800B0A0F800B0A0F800B0A0F800B02B
:10259000A0F800B0A0F800B0A0F800B07FF47AAFC7
:1025A000F246BEF1000F47D0BAF1010FA0F800B01B
:1025B00042D0BAF1020FA0F800B03DD0BAF1030F3B
:1025C000A0F800B038D0BAF1040FA0F800B033D0B2
:1025D000BAF1050FA0F800B02ED0BAF1060FA0F89E
:1025E00000B029D0BAF1070FA0F800B024D0BAF19A
:1025F000080FA0F800B01FD0BAF1090FA0F800B082
:102600001AD0BAF10A0FA0F800B015D0BAF10B0F2A
:10261000A0F800B010D0BAF10C0FA0F800B00BD0A9
:10262000BAF10D0FA0F800B006D0BAF10E0FA0F865
:1026300000B018BFA0F800B0ACF1010C0D9A0B9ED1
:102640001FFA8CF5B2FA82F2751B4FEA521218BFCC
:1026500001252A43FDB2B5FA85F508BF6F090A992D
:102660000A43012A7FF48AAE3A064C46434607D015
:10267000059A0E991144069A1344079A144482E667
:10268000059A0E99891A069A9B1A079AA41A7AE64D
:10269000BAF1000F6BD00A9A002A79D04FF4FC6887
:1026A00009E000BF059A891A069A9B1A079AA41A8C
:1026B0005FEA0C425BD001F4784208EA5316C4F397
:1026C000C42532442A44BAF1010F028034D0BAF151
:1026D000020F028030D0BAF1030F02802CD0BAF181
:1026E000040F028028D0BAF1050F028024D0BAF17D
:1026F000060F028020D0BAF1070F02801CD0BAF179
:10270000080F028018D0BAF1090F028014D0BAF174
:102710000A0F028010D0BAF10B0F02800CD0BAF170
:102720000C0F028008D0BAF10D0F028004D0BAF16C
:102730000E0F028018BF0280ACF1010C0B9D1FFA36
:102740008CF2FEB295423A46B6FA86F608BF720996
:10275000BEF1020F28BF17463A06A3D0059A1144CE
:10276000069A1344079A14445FEA0C42A3D10298D4
:1027700030B101980FB0BDE8F04F00F0EBBE00BFE4
:102780000FB0BDE8F08F00BF0F465146E24680E52E
:102790004FF4FC6E06E000BF00270D975FEA0C4780
:1027A0001746E4D001F478420EEA5316C4F3C42568
:1027B00032442A44BAF1010F028035D0BAF1020F37
:1027C000028031D0BAF1030F02802DD0BAF1040F8C
:1027D000028029D0BAF1050F028025D0BAF1060F88
:1027E000028021D0BAF1070F02801DD0BAF1080F84
:1027F000028019D0BAF1090F028015D0BAF10A0F80
:10280000028011D0BAF10B0F02800DD0BAF10C0F7B
:10281000028009D0BAF10D0F028005D0BAF10E0F77
:10282000028018BF028000BF0D9AACF1010C0B9D15
:10283000B2FA82F21FFA8CF65209AE1B18BF0126BB
:102840003243FAB2B2FA82F63A4608BF7209A3D00E
:102850003F0607D0059F3944069F3B44079F3C44F1
:102860009CE700BF059FC91B069FDB1B079FE41B5E
:1028700094E700002DE9F04F03AF9DB047F8500CEE
:10288000B86940F22C16C2F2000647F8340C96F8EC
:102890003D0047E90A3147F8780C96F84100337952
:1028A000717947F8480C08204FF0080A47F8382C8F
:1028B00047F8581C47F8541C5FFA8AF29A4215D21E
:1028C00002F1080A5FFA8AF29A420FD202F1080A6C
:1028D0005FFA8AF29A4209D20832D5B29D4250FA82
:1028E00082FAE9D3924647F8205C01E047F8202CB1
:1028F00057F8582C501CC1B20B2000EB810020F07F
:102900000700ADEB000BDD460020CBF800004BF8D4
:102910002100B06A47F8741C47F81C0CF06AD6F81E
:10292000388047F8180C306B47F87C3C47F8140C9B
:10293000706BC3F1200C47F8300C57F8500C00288E
:10294000104618BF581CC3B2072000EB830020F0CC
:102950000700ADEB0005AD46ADEB0009CD46ADEB94
:1029600000018D46B6F812E01C3645CE022B2860D9
:10297000C9F8002047F83C1C0E6047E91195C0F0EB
:10298000298157F8500C2C46002808BF8046022B9E
:10299000A3F1010047F84C8C04D10126C00740F098
:1029A000BE8017E147E9190C20F0010047F82C0C14
:1029B0004FF4803000EB084C4FF00008002647F839
:1029C0005CBC2DE0586857F81C1CD9F8042000EBBB
:1029D000010B606857F8181CBBF57F4F084457F887
:1029E000141C0A444FF47F41A8BF8B46B0F57F4FBB
:1029F000A8BF0846B2F57F4FA8BF0A46A06057F8A7
:102A00002C0CC3F808B0C9F80820023657F85CBC93
:102A100057E9119408F10808B0420CF5003C79D050
:102A200057F8245C57F83CBC042D21461ED151F8C0
:102A3000080057F81C2C5BF80830841859F8080077
:102A400057F8182CB4F57F4F024457F8140C18446B
:102A50004FF47F43A8BF1C46B2F57F4FA8BF1A466C
:102A6000B0F57F4FA8BF184621E000BF052D09D360
:102A700057F8300CB0EB2C4F02DD062DD7D001E01B
:102A8000052DD4D051F8080057F81C2C57F8184CD5
:102A9000801A59F808205BF80830121B57F8144CBC
:102AA00022EAE2721B1B20EAE07423EAE37001EBE6
:102AB00008035C6009EB08040BEB0809042D626055
:102AC000C9F804003FF47EAF052D0FD357F8301C32
:102AD0000CF58030B1EB204F04DD062D3FF472AFD2
:102AE00004E000BF052D3FF46DAF00BF586857F8F4
:102AF0001C1C6268401A57F8181CD9F80450521A66
:102B000057F8141C20EAE07B6D1A22EAE27025EAED
:102B1000E57273E757E9190C0136C0075AD057F828
:102B2000240C042822D16FF0030000EB86016058CA
:102B300057F81C2C57F83C5C104459F801206B588E
:102B400057F8181CB0F57F4F114457F8142CA046C5
:102B500013444FF47F42A8BF1046B1F57F4FA8BF82
:102B60001146B3F57F4FB8BF1A462DE0052811D3A3
:102B700057F84C0C57F8301C304400B2814205DD48
:102B800057F8240C0628CED004E000BF57F8240CD8
:102B90000528C8D06FF0030000EB8600215857F8D5
:102BA0001C2C57F83C5C891A59F8002057F8183C3F
:102BB0002858D21A57F8143CA046C31A21EAE170EB
:102BC00022EAE27123EAE37248F8260049F8261067
:102BD00045F8262057F8480C4FF0FF31404347F89E
:102BE000180C57F87C0C01FA0CFC072846D857F84B
:102BF000380C57F8742C0078032A0CEA0061CBF8E3
:102C00000410C0F0B781010657F87C0C0125AAEB2F
:102C1000000857F8380C4FF0000A00F101090220B3
:102C2000022412E019F8010B2546010621FA0AF0E8
:102C30001044E3B2013457F8746C00EA0C02E0B2BD
:102C4000B0424BF8232080F095810AEB080357F837
:102C5000202C5FFA83FA57F87C6CA2EB0A02B2458B
:102C600001FA02F2DED902EA0C014BF82010981B9F
:102C7000AC1CB2405FFA80FAD4E700BF08280FD13D
:102C800057F8741C022998BF0221481E02390329F3
:102C900000F0030C42D20123BCF1000F5ED169E1C8
:102CA0000F287BD8AAEB000857F8380C4FF0010921
:102CB0004FF0000A002501E08946981C417802780F
:102CC000090451EA02625FFA8AF122FA01F101EA8B
:102CD0000C0118BF0D4409F1010157F8746CCCB216
:102CE00003465FFA89F0B4424BF8205080F04281ED
:102CF000C24457F8205C5FFA8AF057F87C6C2D1AB2
:102D0000B04202FA05F5D7D905EA0C004BF82400C9
:102D100009F10209AAEB060AB540CEE720F0030844
:102D200057F8380C002200BF8618835C7478B1789D
:102D3000F6780BEB820504321B06240609063606DC
:102D40009045C5E90134E9602E61EDD1531C104472
:102D500047F8380CBCF1000F00F00C8157F8380C24
:102D6000BCF1010F01784FEA01614BF8231000F02C
:102D7000018157F8380C0BEB83024178BCF1020F4C
:102D80004FEA0161516000F0F58057F8380C817806
:102D900009060BEB83008160ECE000BF10280DD129
:102DA00057F8741C022998BF0221481E02390329D2
:102DB00000F0030C46D2012374E000BF172800F294
:102DC0009780AAEB000857F8380C4FF001094FF034
:102DD000000A002502E000BF8946D81C427801782D
:102DE0008478120442EA016151EA04225FFA8AF10E
:102DF00022FA01F101EA0C0118BF0D4409F10101A9
:102E000057F8746CCCB203465FFA89F0B4424BF8C1
:102E1000205080F0AF80C24457F8205C5FFA8AF0FF
:102E200057F87C6C2D1AB04202FA05F5D4D905EAA0
:102E30000C004BF8240009F10209AAEB060AB54080
:102E4000CBE700BF57F8385C20F0030800202B4682
:102E500005EB40067478994615F81030F278240492
:102E6000B17844EA036A73793579120442EA016160
:102E70001A04F37942EA0562B5790BEB80041B046E
:102E800043EA0563C4F804A057F8385C08340430FA
:102E90000EC4804506F10803DAD109F10801431C8C
:102EA00047F8381CBCF1000F64D057F8380CBCF15F
:102EB000010F417802784FEA014141EA02614BF883
:102EC000231057D057F8380CBCF1020FC178827824
:102ED0004FEA014141EA02610BEB8302516049D0A4
:102EE00057F8380C41790279090441EA026150E748
:102EF00018283FD057F87C0C1F283BD857F87C0C7B
:102F00004FF00109AAEB000857F8380C4FF0000AFF
:102F1000002501E09146181D01685FFA8AF209BA9E
:102F200021FA02F202EA0C02002918BF154409F145
:102F3000010257F8746CD4B203465FFA89F0B442C8
:102F40004BF8205016D2C24457F8205C5FFA8AF042
:102F500057F87C6C2D1AB04201FA05F5DAD905EA6A
:102F60000C004BF8240009F10209AAEB060AB5404F
:102F7000D1E700BF57F8786C002E00F08B8157F82E
:102F800048CC57F8281C57F8580CA1EB0C0189B213
:102F9000841C57F87C0C47F8301CACF1010147F851
:102FA0001C1C57F8181C02300CFB00F801F0030041
:102FB00047F8340C881EBB6947F8580CC81E47F800
:102FC000600C0020A3EB0C054B1E47F8700C5FFA59
:102FD00088F0802247F8140CD8B2C6F6004247F8B1
:102FE000380C4FF0000900204FF0000A47F8543C1D
:102FF00047F84C0C1AE000BF57F8700C4FEA400934
:1030000057F8740C0021984288BF0121032B4FF020
:10301000000388BF012357F84C0C1940013C0844B9
:103020002106654447F84C0C00F07882E1B2022991
:1030300047F8644C47F86C1C12D3DBF800305BF89F
:10304000048F032E4FEA530047F8700C47F85CBC1E
:1030500018D0052E08D0042E16D128F001010DE05D
:1030600047F85CBC12E000BF43EA080323F0010606
:1030700046EA930357F848CC43EA580149EA010964
:1030800002E000BF49EA980957F870ACA9B2080AF3
:1030900047F8200CE8B247F8240C57F81C0C29EA32
:1030A0000A0910FA85F1080A47F8280CC8B200236B
:1030B000002147F8685C47F82C0C0CE0634457F893
:1030C000140CDCB24FEA4A0A4FEA4909844201F182
:1030D000010180F0BD80BAF1FF3F4BDDB9F1FF3F48
:1030E000ECDC4FF0D8462A20308057F8300C50FAEC
:1030F00083F4250A1580E5B2158057F81C0C0444AA
:10310000250AE4B22B2015801480308057F8200C5B
:10311000108057F8240C108057F8280C108057F8AE
:103120002C0C10802C20308057F8340C57F8184C99
:1031300078B1A2F800E057F8544C012809D0A2F861
:1031400000E057F8584C02281CBFA2F800E057F8DE
:10315000604C57F8380C0328B0D300BF043C250658
:10316000A2F800E0A2F800E0A2F800E0A2F800E077
:10317000F4D1A3E74FF0D8462A20308057F8300C1E
:1031800050FA83F4250A1580E5B2158057F81C0C17
:103190000444250AE4B22B2015801480308057F8AF
:1031A000200C108057F8240C108057F8280C108041
:1031B00057F82C0C10802C20308057F8504C57F8C2
:1031C0004C0C002C0C4608BF044657F8405C57F8DE
:1031D000446CE4B257F83C0C55F8245056F824607F
:1031E00050F824404FF4FC6005F4784500EA561688
:1031F00057F8340C3544C4F3C42457F818BC05EB15
:10320000040878B1A2F8008057F854BC012809D00E
:10321000A2F8008057F858BC02281CBFA2F8008012
:1032200057F860BC57F8380C57F848CC0328FFF41F
:1032300045AF00BFABF1040B5FEA0B64A2F800805E
:10324000A2F80080A2F80080A2F80080F2D135E751
:1032500057F8786C57F8644C052E0FD057F85CBCC3
:1032600057E91B35022E3FF4C7AE012E7FF4C8AEDE
:1032700057F8700C4FEA5009C2E600BF57F8701CAF
:1032800057F85CBC480040EA510057E91B3540EA5A
:103290000109B5E657F8486C57F87C0C721E47F8E0
:1032A000142C57F8182C8021531E02F0030E951E83
:1032B000033A06FB00F8C6F6004147F8602C0022EE
:1032C0004FF0D84CD8B247F8385C47F84C2C47F848
:1032D000303C47F82C0C21E057F8342C57F8544C6C
:1032E000324457F8583C47F8342CE2B293424FF03E
:1032F000000388BF0123022A4FF0000288BF012289
:10330000013C1A40230657F84C3C57F85CBC134468
:1033100047F8544C47F84C3C00F000815BF8049FA0
:10332000B9F1000F47F85CBCD6D057F8343C9AB2DC
:10333000100A57F8142C47F81C0CD8B212FA83F272
:1033400057F8503C47F8200C100A002B5FFA82FA1D
:1033500047F8240C70D000244FF0000BB9F1FF3F68
:103360005CDC2A22ACF8002057F8282CBEF1000FB4
:1033700052FA8BF24FEA12230B80D3B20B8057F82C
:10338000143C1A444FEA1223D2B20B800A804FF049
:103390002B02ACF8002057F81C0C4FF02C020880D0
:1033A00057F8200C088057F8240C0880A1F800A0DA
:1033B000ACF8002057F8402C57F8443C57F83C5CD8
:1033C00052F8242053F8243055F824504FF4FC6070
:1033D00002F4784200EA53131A44C5F3C4231A4492
:1033E00057F8183C0ED00A8057F8303CBEF1010F58
:1033F00008D00A8057F8383CBEF1020F1CBF0A8083
:1034000057F8603C57F82C0C032807D3043B1D06E3
:103410000A800A800A800A80F8D100BFB3445FFAAC
:103420008BF25FFA88F39A42BFF456AF5FEA49091C
:1034300004F1010492D14FE757F84C2CD4B200228A
:10344000B9F1FF3F5CDC2A23ACF8003057F8283C88
:10345000BEF1000F53FA82F34FEA13260E80DEB25C
:103460000E8057F8145C2B444FEA1326DBB20E8013
:103470000B804FF02B03ACF8003057F81C0C4FF0CA
:103480002C03088057F8200C088057F8240C08807B
:10349000A1F800A0ACF8003057F8445C57F8403C65
:1034A00055F8246057F83C5C53F8243055F8245004
:1034B0004FF4FC6003F4784300EA56163344C5F336
:1034C000C42557F8186C2B440ED00B8057F8306C7D
:1034D000BEF1010F08D00B8057F8386CBEF1020F17
:1034E0001CBF0B8057F8606C57F82C0C032807D3CF
:1034F000043E35060B800B800B800B80F8D100BF9B
:1035000057F8486C5FFA88F53244D3B2AB42BFF447
:10351000E3AE5FEA490993D1DEE600BF57F8500CED
:1035200098B157F87C2C57F8400C57F8441C57F8C2
:103530003C3C50F8220051F8221053F8222040F26F
:103540002C13C2F200031C3307C3A7F10C04A546D9
:10355000BDE8F08F4FF0D84136220A8040F2710169
:103560000428C2F2000107D244F67812C0F6010224
:1035700032F8100003E000BF02208871E8208022AA
:10358000C6F600421080887940F2DF12022840F22D
:103590003F1038BF40F23F1238BF40F2DF104A8080
:1035A000888070472DE9F04F03AF91B040F22C1C9A
:1035B000C2F2000C47E90C309CF83D009CF804A0D6
:1035C0009CF805E09CF8413047F84C0C0820082591
:1035D00047F8282C5FFA85F9D14514D209F108057E
:1035E0005FFA85F9D1450ED209F108055FFA85F930
:1035F000D14508D209F108025FFA82F9D14550FAA3
:1036000082F5E7D315460EF101005FFA80F80B2032
:1036100000EB880020F0070047F8143CADEB0003F6
:103620009D4657F82C6C00200CF11202022E0CF172
:103630000A04186043F8280008BF0CF11402022E97
:1036400008BF0CF10C04CAF120004FF0FF3C1688B3
:103650002488BAF1070F0CFA00F247E9072A47E974
:103660000E3E4FD80878B8F1030F02EA006247F81F
:10367000208C5A60C0F0EC81A5EB0A02000647F8E6
:10368000242C01F1010B01254FF000080221022238
:1036900028E000BF534657F81CAC57F8382C0EEA08
:1036A0000A0042F82100ACEB0300AA1C0EFA03FE4C
:1036B0005FFA80F81BF8010B1546000620FA08F1A6
:1036C00071445FFA82FE013257F8203C01EA0A0C8D
:1036D000D1B2994257F8383C57F818AC43F82EC08D
:1036E00080F0B68157F8243C08EB030C5FFA8CF8A5
:1036F000A9EB0803D04500FA03FECBD857F81CAC61
:10370000D8E700BFBAF1080F12D1B8F1020F98BF85
:103710004FF00208A8F10100A8F10202032A00F00C
:10372000030C51D20120BCF1000F71D190E100BF18
:10373000BAF10F0F00F28A80A5EB0A004FF0000CDF
:103740004FF0010E4FF0000B47F8200C10E000BFC7
:1037500057F81C3C57F8382C0CEA030042F82500B7
:103760001A460EF1020EABEB0A0B0CFA0AFC023100
:1037700048780B78000450EA03605FFA8BF320FA74
:1037800003F303EA020318BF9C4457F8382C5FFA8E
:103790008EFA0EF10103DDB242F82AC057F818ACD8
:1037A000454580F0558157F8202C93445FFA8BF201
:1037B000A9EB020C524500FA0CFCC9D857F81C2C96
:1037C0009E460231D4E700BF57F838AC20F0030E14
:1037D000002300BFCD5CCA184FEA0568557892F8FF
:1037E0000290D2780AEB830004332D064FEA096970
:1037F00012069E45C0E90185C0F80C900261E9D12E
:1038000057F818AC581C1944BCF1000F00F0208187
:103810000A7857F8383C1206BCF1010F43F8202013
:1038200000F016814A7857F8383C120603EB800303
:10383000BCF1020F5A6000F00B818978090657F835
:10384000382C02EB8000816002E100BFBAF1100F5A
:103850000ED1B8F1020F98BF4FF00208A8F1010095
:10386000A8F10202032A00F003054FD2012086E0EE
:10387000BAF1170F47F8208C00F2A080A5EB0A08D8
:103880004FF0000C4FF0010E4FF0000B10E000BFA6
:1038900057F81C3C57F8382C0CEA030042F8250076
:1038A0001A460EF1020EABEB0A0B0CFA0AFC0331BE
:1038B0004B7808788D781B0443EA006050EA0520B5
:1038C0005FFA8BF320FA03F303EA020318BF9C4468
:1038D0000EF1010357F8202CDDB2954257F8382C31
:1038E0005FFA8EFA42F82AC057F818AC80F0B08020
:1038F000C3445FFA8BF2A9EB020C524500FA0CFCB0
:10390000C6D857F81C2C9E460331D1E720F003009F
:1039100047F8180C00200A4647F81C5C904601EB5B
:103920004002D37892F8029092F805E0557892F828
:1039300004C01B0411F810B043EA09694FEA0E43B2
:103940002D0443EA0C6CD37945EA0B6B57F8385CCD
:1039500092F806E01B0405EB800543EA0E63C5E917
:1039600003C357F8183C0430834202F10802C5E94A
:1039700001B9D3D157F81C5C08F108010130002DC2
:1039800066D04A780B78120442EA036257F8383C52
:10399000012D43F820205BD0CA788B78120442EACC
:1039A000036257F8383C022D03EB80035A604FD076
:1039B0004A790979120442EA016140E7BAF1180F25
:1039C00046D0BAF11F0F43D857F81C2CA5EB0A08B4
:1039D0004FF0000C4FF0010E4FF0000B10E000BF55
:1039E00057F81C3C57F8382C0CEA030042F8250025
:1039F0001A460EF1020EABEB0A0B0CFA0AFC04316C
:103A000008685FFA8BF300BA20FA03F3134000282A
:103A100018BF9C440EF1010357F8202CDDB29542EB
:103A200057F8382C5FFA8EFA42F82AC057F818ACCB
:103A30000ED2C3445FFA8BF2A9EB020C524500FA96
:103A40000CFCCDD857F81C2C9E460431D8E700BF9B
:103A500057F84CCC57F8148C8021C6F60041BCF1C5
:103A6000000FA8F1010047F8440C00F0958157F8C9
:103A7000340C57F8303C851C0AF1020008FB00F2B8
:103A800057F8280CA3EB0803A0EB080080B247F816
:103A9000280C08EB080047F8300C404447F8340C79
:103AA00000EB080900205FFA82FE4FF0000B0022B5
:103AB00047F83C3C47F8482C0DE000BF57F8482C2D
:103AC0004FEA420B013D2A0657F83C2C424447F886
:103AD0003C2C00F02582EAB2022A47F8405C23D34E
:103AE00057F8380CBCF1030F036850F8042F47F85F
:103AF000380C4FEA530013D0BCF1050F06D0BCF1CF
:103B0000040F0FD122F0010207E000BF134323F09E
:103B1000010545EA930343EA52024BEA020B01E036
:103B20004BEA920B47F8480C57F83C3C2BEA000B49
:103B30009AB2120A47F8182CDAB247F81C2C57F838
:103B4000442C4FF0000C12FA83F2130AD2B247F859
:103B5000203C47F8242C07E057F8148CD4445FFA33
:103B60008CF2724580F0FC80B0F1FF3F08DDBBF1C4
:103B7000FF3F1FDD40004FEA4B0BC246EEE700BFA0
:103B80004FF0000A4200B2F1FF3F2DDC8200B2F19B
:103B9000FF3F31DCC200B2F1FF3F33DC00014FEAEE
:103BA0000B1BB0F1FF3FCA44ECDD57F82C2C9ABB3D
:103BB000D4E700BF4FF0000A4FEA4B02B2F1FF3FDB
:103BC00076DC4FEA8B02B2F1FF3F75DC4FEACB02A5
:103BD000B2F1FF3F74DC4FEA0B1B0001BBF1FF3F6A
:103BE000CA44E9DD71E000BF4FEA4B0BC244104606
:103BF00057F82C2C82B9B1E757F8300C4FEA8B0BF1
:103C000004E000BF57F8340C4FEACB0B8244104657
:103C100057F82C2C002AA1D04FF0D8452A222A8010
:103C200057F8282C52FA8CF2130A0B80D3B252FAAE
:103C30008AF2013A0B80130AD2B20B800A802B223F
:103C40002A8057F8182C08FB0AF30A8057F81C2C16
:103C500013F003080A8057F8202C0A8057F8242C08
:103C60000A804FF02C022A80A3F1010210D0B8F193
:103C7000010F15460C8006D0B8F1020F0C801ABF58
:103C80000C80DD1E9D1ED2B2032A06D264E700BF5F
:103C90001D46D2B2032AFFF45FAF57F8148C00BF61
:103CA000043D2A060C800C800C800C80F8D155E76E
:103CB0004000C24408E000BF57F8303C800002E0FA
:103CC00057F8343CC0009A4493464FF0D8452A2216
:103CD0002A8057F8282C52FA8CF2130A0B80D3B2A0
:103CE00052FA8AF2013A0B80130AD2B20B800A8090
:103CF0002B222A8057F8182C08FB0AF30A8057F861
:103D00001C2CA3F101080A8057F8202C0A8057F8D0
:103D1000242C0A802C222A8013F0030210D0012ABE
:103D200045460E8005D0022A0E801ABF0E80DD1E89
:103D30009D1E5FFA88F2032AFFF40EAF06E000BF73
:103D40001D465FFA88F2032AFFF406AF57F8148C79
:103D5000043D2A060E800E800E800E80F8D1FDE60E
:103D600057F84CCC57F8405CBCF1050F0CD0BCF1B7
:103D7000020F3FF4A3AEBCF1010F7FF4A3AE57F8DE
:103D8000482C4FEA520B9DE657F8483C5A0042EA4D
:103D9000530242EA030B95E608EB080208FB0AF01F
:103DA00047F83C2C424402EB0806C0B247F8402CCE
:103DB00047F82C0C0DE000BF57F8342C013A47F8B7
:103DC000342C120657F8302C424447F8302C00F0BF
:103DD000A78057F8382C52F8049FB9F1000F47F824
:103DE000382CE9D057F8303C9AB2120A47F8182C10
:103DF000DAB247F81C2C57F8442C12FA83F2130A53
:103E000047F8203CD2B2002347F8242CB9F1FF3FF9
:103E100004DD4FEA4909C24678E000BF4FF0000ACE
:103E20004FEA4902B2F1FF3F10DC4FEA8902B2F1DA
:103E3000FF3F0DDC4FEAC902B2F1FF3F0CDC4FEA55
:103E40000919B9F1FF3FB244EADD09E0C24406E0D6
:103E500057F83C5C02E000BF57F8405CAA4491462A
:103E60004FF0D8402A22028057F8282C08FB0AFE7F
:103E700052FA83F2150A0D80D5B252FA8AF2013A4B
:103E80000D80150AD2B20D800A802B22028057F8CD
:103E9000182C1EF003080A8057F81C2CAEF1010CF8
:103EA0000A8057F8202C0A8057F8242C0A804FF0FB
:103EB0002C02028016D0B8F1010FE3460C8008D026
:103EC000B8F1020F0C801ABF0C80AEF1030BAEF1FB
:103ED000020B5FFA8CF2032A09D257F8148C57F8B8
:103EE0002C0C13E0F3465FFA8CF2032AF5D357F853
:103EF000148C57F82C0C00BFABF1040B5FEA0B627B
:103F00000C800C800C800C80F6D100BF5344DAB2D8
:103F10008242BFF451AFB9F1000F7FF477AF4BE7A6
:103F2000A7F10C04A546BDE8F08F00002DE9F04F85
:103F300095B01E9E1C46042B139098BF0424022E9D
:103F4000A4F1020098BF0226B04238BF0646A14243
:103F50004FF001001191C0F0A28140F27101119F58
:103F6000C2F200014B882744013F9F4200F2978133
:103F7000A2424FF00200C0F092818B881719013FD6
:103F80009F4200F28C81DDE91F300731119F31F82B
:103F900010000A92013AA4EB06097D1E099231F83D
:103FA000132007901FFA89F00895C4F1010AC9F19E
:103FB00001084FF0000B4FF0FF350B904FF0000C55
:103FC0000020002600270192CDE90E00CDE90C006B
:103FD00014940DE0139810F0FD0F00F0CB804FF01B
:103FE000000E1498013814900006704600F05681B7
:103FF0005FEA0C6118D04FF0010C5FEA0B6118BF4B
:10400000BCF1000F3ED140EA070109065AD0F9B2CF
:10401000B1FA81F14B09C1B2B1FA81F14FEA511EF7
:10402000F1B255FA89F278E05FFA8BF155FA84F231
:104030008A42E0DD0FFA8AF10BF1010B621EB1F149
:10404000FF3F5FFA8BF1D3B2C4BFAAEB430A144619
:104050000AEB41020FFA82FABAF1000FE4D4119A86
:104060004FF0000C521A0F92089A0A440E92E2B2D4
:10407000914228BF4FF0010C5FEA0B6118BFBCF101
:10408000000FC0D0119AE1B2521A0F92089A0AEBAF
:10409000410152FA84F20E925FFA8BF2A1EB4201D7
:1040A000BE460FB253000137BB427746D4BFAAEBDE
:1040B00042010134ABF1010B8A4640EA07010906CF
:1040C000A5D100BFF1B255FA89F28A4222DD0FFA7A
:1040D00088F10136A9F10102B1F1FF3FF1B2D3B28B
:1040E000C4BFA8EB4308914608EB41020FFA82F8DF
:1040F000B8F1000FE6D4119BCA431A440D925A1826
:104100000C925FFA89F291424FF0010E54D20027CF
:1041100057E000BF01234FF0010E002B3B4618BFB4
:1041200001238A42D8BF1F46310649D0F9B201297E
:1041300046D1BEF1000F43D05FFA89F0119AC14316
:1041400011440D9152FA89F10C9108EB4000F1B243
:10415000A0EB410003B24A0001339A42D4BFA8EB5E
:10416000410009F10109013E012780464FF0010E8F
:1041700027E000BF0A990D980C9AC91A0130013A3C
:1041800089B2019D129380B292B20B4605900692BD
:104190000095CDF840C0FDF7A7FC0998129900954D
:1041A000084481B2DDE905020B464FF0FF35FDF70B
:1041B0009BFCDDF840C012E701273106B6D100BFF5
:1041C00086461498C3B20B98984229D213980128B6
:1041D0003FF607AF09981293184481B20F980B4627
:1041E00085B20E98049582B22846079D05920095E7
:1041F000CDF840C0CDF818E0FDF75EFE0A981299A0
:104200000095401A81B2DDE904020B464FF0FF35FC
:10421000FDF752FEDDF818E0DDF840C0E1E600BF32
:10422000139801283FF6D6AE0A980697C01A85B2B1
:104230000F98079F81B20D98049182B208462946D3
:1042400012932B4605920097CDF840C0FDF734FE3F
:104250000C982B4681B20E98029182B208462946EC
:1042600003920097FDF728FE09981299059A0844D1
:1042700085B2049829462B460097FDF71DFE02984B
:10428000039A29462B464FF0FF350097FDF714FEA1
:10429000129B069FDDF840C09CE600BF002015B0D1
:1042A000BDE8F08F2DE9F04F8FB08E46DDE918178D
:1042B000032B4FF003054FF0030688BF1D4603296B
:1042C00088BF0E46012F4FF0010198BF0F46AE4543
:1042D000C0F0438140F2710CC2F2000C0A90BCF8AD
:1042E00002000EEB0504013C844200F23681B2422A
:1042F0004FF00201C0F03181BCF804009419013C78
:10430000844200F22A813146B34298BF29460239DD
:1043100089B2AEF101038F4238BF39460593531E6F
:104320004FF0FF30069305FB05F406FB06F700EBA4
:104330004603DDF86C9003FB147A731A691A03F1D3
:104340000108013101FB01F500EB48010CEB4900CC
:10435000B0F8070008FB08FB0D943C4601FB15B7BD
:104360000490AEF10200DDF828C0019000204FF06B
:1043700000090E90CDE907E2CDE90B4506E000BF4C
:104380000C9D31B20029824640F3E68030B2012113
:104390000D9BA1EB40015943B1EB4A0F7ADA0FFABA
:1043A00088F1884278DA01293C464FF0FF3307DA7A
:1043B00095E000BF0FFA88F00028274640F38F8071
:1043C0000FFA89F04000013000FB0BF0B0EB470F13
:1043D00008DD09F101090FFA89F04000013000FB06
:1043E0000B7400E03C464FEA480189B2C1F101017B
:1043F000780069438842DDDDA8F101081FFA88F0E2
:1044000003EB400101FB1544B1B28142D2D1BCF1B2
:10441000010F39D80E9D911BAEEB0500AEEB0902E2
:104420008FB2DDF8108080B292B239463B460390DD
:104430000992CDF80080FDF73FFD05993B4609EB59
:10444000010029448DB280B239462A460290CDF847
:104450000080FDF731FD0698099A304487B2039831
:1044600039463B46CDF80080FDF726FD02983946D7
:104470002A463B46CDF80080FDF71EFDDDF828C03A
:10448000DDE907E24FF0FF331CF0FD0F42D0B046EC
:1044900025E000BF50462BE0BCF1010F1CD80E9B5D
:1044A000911B059AAEEB03001A4495B289B21B9C8E
:1044B00080B22A460B4609900094FDF7A7FC0698A7
:1044C0002A46304481B209980B460094FDF79EFCC1
:1044D000DDF828C0DDE907E23C464FF0FF33013E3E
:1044E00030B20D9903EB400000FB11A027460B9C56
:1044F0000E9D4FEA4A012BB25B00013363439942A0
:10450000BFF63EAF013529B24900013101FB04007D
:104510000E9535E7911B019AAEEB090001304A4434
:1045200095B289B21FFA80F81A9F40462A460B4678
:104530000097FDF755F906982A46304481B2404667
:104540000B460097FDF74CF9DDF828C0DDE907E2DE
:104550004FF0FF33B046C2E7002108460FB0BDE878
:10456000F08F00002DE9F04F91B0DDE91B861D9F13
:10457000B8F1040F4FF0040B98BFD846042E88BF43
:10458000B346022F40F2710E98BF02270826082B6F
:1045900098BF3346C2F2000E5C1EBEF8023011FA1C
:1045A00084F59D4204D9012011B0BDE8F08F00BF11
:1045B0001A9B082B88BF1E46013EBEF8043012FA33
:1045C00086F9994504D9022011B0BDE8F08F00BFEB
:1045D000A3B20F90B0B2B8EB530F88BF4FEA5308A5
:1045E000BBEB500F88BF4FEA500B5846D84538BF39
:1045F0004046023883B29F4238BF3B460BEB020075
:10460000ABEB0302541CA8EB0302DDF87CC00132C3
:104610000A90A9EB0B0002FB02F90EF107021093BE
:1046200032F81C30099008FB08F007931E9B0C9091
:104630000BFB0BF0DDF83CC00B904FF0FF3032F875
:10464000132000EB4B0604FB04FABCF1010F00EB56
:10465000440003921FD8089010980D960844013822
:1046600082B20A98079E87B209980E9183B20846D3
:10467000394606930096FDF737FA1098069B281ADC
:10468000013080B2AAB2394600960D9EFDF72CFA91
:104690000898DDE90E1CDDE90B3E1CF0FD0F06FB62
:1046A0001E3700FB19A6A5EB0800069014D10A9B43
:1046B000109A1FFA83FC099B5018AA1A1E9D80B2FB
:1046C00092B29BB20E9161460095FDF789F806986B
:1046D000DDE90B3EDDE90E1C4144013800254FF0B9
:1046E00000080891029005E00FFA8BF100290746B7
:1046F00040F3E0800FFA8BF00121A1EB400101FBB8
:104700000EF1B1EB470F73DA21B28842109571DADE
:104710000129354605DA8FE020B200282E4640F305
:104720008B800FFA88F04000013000FB0AF0B0EBFC
:10473000460F09DD08F101080FFA88F0400001304A
:1047400000FB0A6501E000BF3546610089B2C1F196
:104750000101700001FB09F18842DDDD013CA0B2DE
:104760004FF0FF3101EB400101FB19551FFA8BF1AE
:104770008142D1D1BCF1010F35D80A99089A10981D
:10478000A1EB0B01101AA2EB08028CB2079E80B2BB
:1047900092B2214623460D900E920096FDF78CFBB7
:1047A0000699109A08EB0100114480B28AB22146A2
:1047B0002346049005920096FDF77EFB09980E9A19
:1047C000584484B20D98214623460096FDF774FBA9
:1047D0000498059A214623460096FDF76DFBDDE916
:1047E0000B3EDDF83CC01CF0FD0F41D05C4623E0E1
:1047F00038462DE0BCF1010F1DD80A990898069A99
:10480000A1EB0B01401B2A4489B2079D80B292B2F2
:104810000B460D900E920095FDF74EFB0998009502
:10482000584481B2DDE90D020B46FDF745FBDDE999
:104830000B3EDDF83CC03546ABF1010B0FFA8BF0B7
:104840004FF0FF3101EB400000FB1E702E46109D23
:104850002AB25200013279005A439142BFF644AF66
:10486000013529B24900013101FB03003CE700BFDB
:1048700008980A99A0EB0800029A0130A1EB0B01FD
:10488000424489B284B2039E92B220460B460E92F5
:104890000096FDF729F909980E9A584481B22046EE
:1048A0000B460096FDF720F9DDE90B3EDDF83CC034
:1048B0005C46C1E7002011B0BDE8F08F2DE9F04F54
:1048C0008BB0032B0546D8BF032399424FF001005C
:1048D000C0F29D818A4640F27101C2F20001914608
:1048E0004A8803EB0A08A8F10107974200F38F8179
:1048F00018B281454FF00200C0F289818A8803EB2B
:10490000090BABF10107974200F38181C3F34E001D
:1049100040F277324FF60077C4185A43C0F27F074F
:104920000DF1500E24B207EA920207319EE8405082
:10493000B2FBF4F231F81E4009950394179C4FF630
:10494000FF7531F81410BCF1010F089107F5000153
:1049500001EA02210A91A6F10101029100F2AC8064
:10496000BCF1000F08BFA9EB030B00EB0901A9EB99
:1049700000000FFA8BF2069206FA80F2059208BF49
:10498000084609B2891B0491BCF1000F08BF01253C
:10499000099E4FF0000984B2E046079522E000BF6F
:1049A00002991FFA8BF50144089E8AB280B229460B
:1049B0002B460096FDF780FA1498BAB2381A0130E7
:1049C00080B229462B460096FDF776FA099E079D90
:1049D0001FFA8BF0A0421CBF09F10109AB44A042B1
:1049E00000F0148106980FFA8BF1401A48BF40423C
:1049F0000A9A00B25043149F00F500420FFA89F35F
:104A0000AAEB1240BB420AEB124705DBB8F1000FDC
:104A10000ED0059A8A420EDD022ED9D0BAB21FFA04
:104A20008BF1089F80B20B460097FDF75DF8CDE74C
:104A3000049A8A42F0DB022E32D0012EB0D0002E32
:104A4000C6D1DDF850801FFA8BF508FA80F101918C
:104A50000139089E8AB280B229462B460096FDF79E
:104A60002BFA38B2A0EB08080198404508DC039EF9
:104A700080B21FFA88F229462B460096FDF734F8DB
:104A800008F10100BAB2089F80B229462B46009770
:104A9000FDF712FADDF85480079D099E98E700BFE4
:104AA000149A39B202FA80F0891A884290DC8AB2EC
:104AB0001FFA8BF1039FB5E7BCF1020F08BFAAEB09
:104AC000030800EB0A01AAEB00000FFA88F2069235
:104AD00006FA80F2059208BF084609B2891B0491C4
:104AE000BCF1020F08BF0125099C00271FFA80FABC
:104AF000B346079520E000BF02991FFA88F50144EC
:104B0000089C8BB281B228462A460094FDF7D4F95E
:104B1000A6EB0B00013081B2B3B228462A460094BE
:104B2000FDF7CAF9099C079D1FFA88F050451CBF84
:104B3000A8440137504569D006980FFA88F1401A09
:104B400048BF40420A9A00B2504300F5FE423BB2D1
:104B5000A9EB12405B4509EB12460BDA022CE3D0BD
:104B600081B21FFA88F0B3B2089E02460096FCF7A5
:104B7000BBFFD7E7159A022A04D1049A8A42EDDBDB
:104B800003E000BF059A8A42E8DC022C30D0012CF9
:104B9000B2D0002CC8D10BFA80F1019101391FFA73
:104BA00088F5089C8BB281B228462A460094FDF70E
:104BB00083F930B2A0EB0B0B0198584508DC039C3D
:104BC00081B21FFA8BF328462A460094FCF78CFF2B
:104BD0000BF10100B3B2089E81B228462A46009626
:104BE000FDF76AF9DDF850B0079D099C9CE700BF0E
:104BF00031B20BFA80F0A1EB0B02904294DC81B24F
:104C00001FFA88F0039E93B2AFE700BF00200BB0FD
:104C1000BDE8F08F2DE9F04F83B0032B04D20325BC
:104C2000284603B0BDE8F08F0D9CB3EB440F15D9B7
:104C30000C9F0425032FF3D36600BE42F0D25E1E04
:104C400040F27103C2F200035D8811FA86FAAA45A8
:104C50000AD90125284603B0BDE8F08F0325284670
:104C600003B0BDE8F08F00BF013F9B8812FA87F6C2
:104C70009E4205D90225284603B0BDE8F08F00BF4B
:104C800004EB020B0128A6EB040835D8CDF808B0D8
:104C9000029B0F9D013B1FFA8AFB9BB201900846C5
:104CA000894611465A460095FCF79AFD08F1010025
:104CB000B3B281B248465A460095FCF791FD04EB29
:104CC0000900013882B202981FFA88F786B20F9D58
:104CD000484631463B460095FCF782FDAAEB0400AE
:104CE00001303B460F9F80B231465A460097FCF791
:104CF00077FDDDE9010B494610F0FD0F0CD10E9F49
:104D00006018AAEB040180B28AB21FFA8BF11FFA75
:104D100088F30097FCF764FD0025284603B0BDE842
:104D2000F08F00002DE9F04F9DB01492DDE927E2ED
:104D300040F27108BEF1040F98BF4FF0040E022A32
:104D400098BF02220727072B98BF3B46C2F20008F4
:104D50000C46591EB8F8023014FA81F59D421290A3
:104D600004D901201DB0BDE8F08F00BF26980728A8
:104D700088BF0746781E149FB8F8043017FA80F7EA
:104D80009F4203D902201DB0BDE8F08F02958EB27C
:104D900085B2AE4238BF3546BEEB550F88BF4FEAED
:104DA000550EAEF10206DDE92973964238BF324650
:104DB000049208F1070232F8175032F81320CDF8A8
:104DC00044E00D925FEA0E62A0EB0E00DDF848E0D1
:104DD00007950390109400F08F81119D0498149A08
:104DE000A5EB0009E8B21C90601C0E900398491BCB
:104DF00010440F90681C0690481EC9F10108C5F1C7
:104E0000010A0C91059000204FF0FF362946002240
:104E10004FF0000B0027CDE915221A92CDF84C90E7
:104E2000CDE917221B920EE019991EF0FD0F00F03C
:104E3000CB8000260139C8B21C90002830464FF0C4
:104E4000FF3600F0598119911B99090636D00121CE
:104E5000DDF868C01B9139061CD01B99D1B1E9B2AD
:104E6000621A189254FA85F217920AEB4101FAB2CB
:104E7000A1EB42010EB253000136B342D8BFAAEBF8
:104E80004201DDF868C04FF0FF36A7F101078A46FE
:104E9000C8BF013540EA0C01090637D05FFA8CF132
:104EA000B1FA81F14B09C1B2B1FA81F14FF0FF3291
:104EB0004E095FFA8BF152FA89F255E0F9B256FACF
:104EC00085F28A42C3DD0FFA8AF101376A1EB1F119
:104ED000FF3FF9B2D3B2C4BFAAEB430A15460AEBAF
:104EE00041020FFA82FABAF1000FE7D4621A18925F
:104EF00062181792EAB291424FF0000128BF0121D7
:104F0000DDF868C01B913906A7D1C3E75FFA8BF1C2
:104F100056FA89F28A4223DD0FFA88F10BF1010B70
:104F2000A9F10102B1F1FF3F5FFA8BF1D3B2C4BF27
:104F3000A8EB4308914608EB41020FFA82F8B8F15A
:104F4000000FE3D4CA43224416920E9A01260A4463
:104F500015925FFA89F291425AD24FF0000C5EE04E
:104F6000DDF868C001230126002B634618BF01232A
:104F70008A42D8BF9C465FEA0B614FD05FFA8CF142
:104F800001294BD1002E49D05FFA89F0C143214459
:104F900016910E9908EB400051FA89F115915FFACC
:104FA0008BF1A0EB410003B24A0001339A42D4BF17
:104FB000A8EB410009F10109ABF1010B4FF0010C25
:104FC000804601262BE000BF069816991C9A0844DB
:104FD0001499159B891A119A84B21144059A89B2C1
:104FE0001A44079E92B220460B460B920096FCF79D
:104FF0007BFD0F981C990B9A084481B220460B4602
:105000000096FCF771FD1999DDF848E0109C10E757
:105010004FF0010C5FEA0B61B0D100BF06461C984F
:10502000139980B289B28142CDF868C026D2BEF110
:10503000010F5FD814991C9B119A1898C91A104433
:1050400011440C9A179B89B21A440D9C80B292B2FB
:105050000B460A900B920094FCF746FD0F981C99A2
:105060000094084481B2DDE90A020B46FCF73CFDDE
:10507000DDF848E0109C1999DCE600BFBEF1010F95
:105080003FF6D2AE14991C9B119A1898C91A169B18
:10509000114410441A448EB20D9C80B292B2314633
:1050A00033460A900B920094FCF706FF0C99159872
:1050B000179A0844114480B28AB2314633460890A8
:1050C00009920094FCF7F8FE0F981C990B9A08447B
:1050D00086B20A98314633460094FCF7EDFE0898F4
:1050E000099A314633460094FCF7E6FEDDF848E0C5
:1050F000109C99E619999DE6049F029DBEF1010F4F
:1051000034D81198149B039A1844E1191A440139B0
:1051100086B21FFA82F820460D9C8AB23146434679
:105120000094FCF7E1FCE81B013080B2AAB23146E2
:1051300043460094FCF7D8FCDDF848E0109C1EF0D4
:10514000FD0F16D11199149E039B38193144EA1BA7
:105150003344079F80B289B292B29BB20097FCF7AA
:10516000C3FC00201DB0BDE8F08F00BF1EF0FD0F96
:10517000E8D000201DB0BDE8F08F00002DE9F04F11
:1051800085B01446022A064698BF0224A0424FF07A
:10519000010074D340F27105C2F200056A88A719B4
:1051A000013F97426BD8A1424FF0020067D3AA8813
:1051B0000F19013F974262D805EB4300B0F807B0E2
:1051C000A6F1010804910139C4F1010900230196F7
:1051D000029120E0301BA1EB0A0104EB080285B22A
:1051E00097B289B228463A460B46CDF800B0FCF794
:1051F0007BFC029E3A4606EB0A0081B228460B462B
:10520000CDF800B0FCF770FC4FF0FF3010FA84F0DE
:10521000039B504532DD01330FFA89F05FFA83FAC0
:10522000611EB0F1FF3FC4BFA9EB41090C4609EB79
:105230004A000FFA80F90499019EB9F1000F039317
:10524000C8D40499A6EB0A00091B08EB0A0287B22E
:1052500095B289B238462A460B46CDF800B0FCF725
:1052600043FC02982A46204481B238460B46CDF8CA
:1052700000B0FCF739FC0499ACE700BF002005B092
:10528000BDE8F08F2DE9F04F87B0022A4FF00204FD
:1052900098BF2246022B864688BF1C4690424FF09C
:1052A00001007CD3894640F27101C2F200014B88B3
:1052B0000EEB0207013F9F4271D8A1454FF002005B
:1052C0006DD38B8809EB0407013F9F4267D8109884
:1052D000AEF1010301EB40000693A9F10103B0F820
:1052E0000700059302FB02F34FF0FF3204FB04FCBE
:1052F00002EB4402039002FB13CBDDF80CA04FF04D
:10530000000801250493CDF808C002E0210483467B
:1053100044D0A0B2A5EB40005843B0EB4B0F29DAC4
:10532000069AAEEB0800A9EB0401424486B297B29C
:1053300089B230463A460B46CDF800A07546FCF7D8
:10534000D3FB05983A46204481B230460B46CDF84F
:1053500000A0FCF7C9FB013C049BA0B24FF0FF3159
:1053600001EB4000DDF808C000FB13B0AE4601259C
:1053700001E000BF58461FFA88F2520001324FEA9E
:105380004B0102FB0CF29142C0DA08F101081FFA4E
:1053900088F14900013101FB0C00B7E7002007B09C
:1053A000BDE8F08F2DE9F04F85B0DDE90E750226DE
:1053B000022F98BF3746022D40F2710E88BF2E464D
:1053C0000425042A98BF2A46C2F2000E541EBEF8D5
:1053D000022010FA84FA924504D9012005B0BDE8F4
:1053E000F08F00BF042B88BF1D46013DBEF804208E
:1053F00011FA85F3934203D9022005B0BDE8F08F7E
:10540000A2B2ACB2B7EB520F88BF57083A18B6EB4E
:10541000540F88BF66080492AAEB0702DDF840C06B
:10542000039272184FF0FF3107FB07FB06FB06F7EC
:1054300001EB460101FB1B790EEB4C019B1BB1F804
:105440000780029291B201939BB21FFA8AF2CDF8C3
:1054500000C0FCF7C5F94FF0000A012304E000BFCB
:1054600031B20029814641DD30B2A3EB400000FBA0
:105470000BF0B0EB490F25DA04980299039AA0EBE0
:105480000A00891B524484B295B289B220462A464A
:105490000B46CDF80080FCF727FB01982A463044E4
:1054A00081B220460B46CDF80080FCF71DFB013E83
:1054B00030B24FF0FF3101EB400000FB1B900123A5
:1054C00001E000BF48460FFA8AF2520001324FEA6B
:1054D00049017A439142C3DA0AF1010A0FFA8AF1CB
:1054E0004900013101FB0700BAE700BF002005B009
:1054F000BDE8F08F2DE9F04F81B0032A0546D8BFF3
:10550000032290424FF00100C0F2858040F2710CFE
:10551000C2F2000CBCF8026057190C46791EB14269
:1055200079DC10B284424FF0020074DBBCF804E076
:105530001619711E71456EDCC2F34E0E0EEB0201A0
:105540000FFA81F940F277314FF6007A0A98514309
:10555000C0F27F0A0AEA9101B1FBF9FB0CEB4001B2
:10556000B1F807900AF500004FF6FF78CEF1000180
:10557000012B00EA0B2A27D8002B04BFA61A71467C
:1055800008190FFA86FB87B2002B08BF4FF00108FD
:1055900030B2BBEB000048BF404200B20AFB00F053
:1055A00000F50040A5EB104105EB1042B4B288B203
:1055B00092B221462346CDF80090FCF795FABC4202
:1055C0004644E5D126E000BF022B04BFAF1A714666
:1055D00048190FFA87FB86B2022B08BF4FF001086B
:1055E00038B2BBEB000048BF404200B20AFB00F0FB
:1055F00000F5FE40A4EB104104EB1040BDB289B2AF
:1056000083B228462A46CDF80090FCF76DFAB542E1
:105610004744E5D1002001B0BDE8F08F2DE9F04707
:1056200084460120D2FA50F540F27102C2F2000223
:1056300056881CFA85F4B44288BFBDE8F087D3FAD7
:1056400050F0968811FA80F3B34284BF0220BDE87F
:10565000F0871FFA80F980204FF0D84A2A26C6F634
:105660000040A7B2AAF800604FEA1C2606805FFA45
:105670008CF63F0A06800780E7B207802B271FFAC7
:1056800085F89DB2AAF800700F0AC9B207800180A0
:10569000290A0180D9B2DDF820E001802C21AAF886
:1056A000001008F1010109F101034B4302EB4E0127
:1056B000B1F807101A0903F00F0C75D012F00304AB
:1056C000A2F1010E2AD0012C7346018001800180D5
:1056D00001800180018001800180018001800180C2
:1056E0000180018001800180018018D0022C01809E
:1056F00001800180018001800180018001800180A2
:10570000018001800180018001800180018040F0E2
:105710008B80931EBEF1030F04D245E01346BEF109
:10572000030F41D3043B018001800180018001808F
:105730000180018001800180018001800180018061
:105740000180018001800180018001800180018051
:105750000180018001800180018001800180018041
:105760000180018001800180018001800180018031
:105770000180018001800180018001800180018021
:105780000180018001800180018001800180018011
:105790000180018001800180018001800180018001
:1057A000018001800180BDD1BCF1000F38D0BCF177
:1057B000010F018034D0BCF1020F018030D0BCF168
:1057C000030F01802CD0BCF1040F018028D0BCF164
:1057D000050F018024D0BCF1060F018020D0BCF160
:1057E000070F01801CD0BCF1080F018018D0BCF15C
:1057F000090F018014D0BCF10A0F018010D0BCF158
:105800000B0F01800CD0BCF10C0F018008D0BCF153
:105810000D0F018004D0BCF10E0F018018BF018074
:105820000020BDE8F08700BFD31E01800180018009
:105830000180018001800180018001800180018060
:1058400001800180018001800180BEF1030FBFF45F
:1058500069AFA9E72DE9F04F87B0109E0527022E0A
:1058600098BF0226052B40F2710E98BF3B46052AD1
:1058700088BF1746C2F2000E013FBEF8024010FA80
:1058800087F5A54204D9012007B0BDE8F08F00BF1D
:105890005C1EBEF8042011FA84F3934204D902205E
:1058A00007B0BDE8F08F00BFDDF844C0BAB2A4B2C3
:1058B000A24238BF1446B6EB540F88BF66089B1B44
:1058C0000EEB4C023144B2F80780039189B2059384
:1058D0009BB2AAB2C6F101070446CDF800C0FBF79F
:1058E0007FFF30190290DDF80890A5EB060B4FF012
:1058F000000ACDF810B023E01FFA8AF00690A9EB59
:105900000600ABEB0A019346324484B295B289B2E9
:1059100020462A460B46CDF80080FCF7E5F80598AE
:105920002A46504481B220460B46CDF80080FCF751
:10593000DBF84FF0FF30069910FA86F088422DDD33
:1059400038B20AF1010A711EB0F1FF3FC4BFA7EBE4
:1059500041070E4607EB4A0007B25A46DDF80CB085
:10596000002FC9D4049AA9EB0A00ABEB06015244FC
:1059700084B295B289B220462A460B46CDF8008003
:10598000FCF7B2F805982A46304481B220460B460F
:10599000CDF80080FCF7A8F8049AADE7002007B026
:1059A000BDE8F08FB0B540F2710CC2F2000CBCF84B
:1059B000023080214FF0D84E2A22C6F60041BCF8B2
:1059C0000440AEF8002000221D0A0A800A800D80E3
:1059D000DDB20D802B25AEF800500A800A80220A25
:1059E0000A80E2B20A802C22AEF800205A1C631C06
:1059F0000CEB40005343B0F807001A0903F00F0CFA
:105A000076D012F00304A2F1010E2BD0012C7346C4
:105A10000880088008800880088008800880088046
:105A20000880088008800880088008800880088036
:105A300019D0022C0880088008800880088008801F
:105A40000880088008800880088008800880088016
:105A50000880088040F08A80931EBEF1030F05D2B3
:105A600046E000BF1346BEF1030F41D3043B08805C
:105A700008800880088008800880088008800880E6
:105A800008800880088008800880088008800880D6
:105A900008800880088008800880088008800880C6
:105AA00008800880088008800880088008800880B6
:105AB00008800880088008800880088008800880A6
:105AC0000880088008800880088008800880088096
:105AD0000880088008800880088008800880088086
