S01F00004B56425F4C43445F31366269745F41546D6567613132382E73726563C2
S11300000C94FD210C9407220C9407220C940722D3
S11300100C9407220C9407220C9407220C940722B8
S11300200C9407220C9407220C9407220C940722A8
S11300300C9407220C9407220C9407220C94072298
S11300400C9407220C9407220C9407220C94072288
S11300500C9407220C9407220C9407220C94072278
S11300600C9407220C9407220C9407220C94072268
S11300700C9407220C9407220C9407220C94072258
S11300800C9407220C9407220C94072205A84CCD4B
S1130090B2D44EB93836A9020C50B9918688083CBE
S11300A0A6AAAA2ABE000000803F00407A10F35A94
S11300B000A0724E18090010A5D4E80000E87648A4
S11300C0170000E40B54020000CA9A3B000000E150
S11300D0F505000080969800000040420F000000E3
S11300E0A08601000000102700000000E8030000C3
S11300F000006400000000000A000000000001008D
S1130100000000002C76D888DC674F0823DFC1DFAD
S1130110AE59E1B1B796E5E3E453C63AE6519976B0
S113012096E8E6C28426EB898C9B62ED407C6FFCEA
S1130130EFBC9C9F40F2BAA56FA5F490055A2AF72C
S11301405C936B6CF9676DC11BFCE0E40D47FEF535
S113015020E6B500D0ED902E03009435770500809D
S1130160841E080000204E0A000000C80C333333FC
S1130170330F986E12831141EF8D2114893BE6559C
S113018016CFFEE6DB18D1844B381BF77C1D901D7F
S1130190A4BBE424203284725E228100C9F124ECE1
S11301A0A1E53D272A00230030003900380037003C
S11301B036003500340033003200310041746D657F
S11301C06C2053747564696F2037004B56422D318F
S11301D0366269742D4C43440A41546D656761313C
S11301E0323800C0D3C4C8CE00C7C2D3CAC800D1F5
S11301F0D2C0D0D200C2CDC8C700D1C1D0CED100A8
S1130200CDC0C7C0C400C2C8C4C5CE00C2C2C5D018
S1130210D50020C2FBE2EEE4E8EC20E220F1F2F0AB
S1130220EEEAE520E2E5F9E5F1F2E2E5EDEDEEE5F1
S113023020F7E8F1EBEE20F120E4EEE1E0E2EBE57B
S1130240EDE8E5EC20EDF3EBE5E92E200020D1FA12
S1130250E5F8FC20E5F9B820FDF2E8F520ECFFE331
S1130260EAE8F520F4F0E0EDF6F3E7F1EAE8F5204A
S1130270E1F3EBEEEA2C20E4E020E2FBEFE5E920F9
S1130280E6E520F7E0FE2E00D2E5EAF1F220F120C7
S1130290F2E5EDFCFE00CFE5F0E5EDEEF120EFEE4A
S11302A020F1EBEEE2E0EC00C1EEF0F3E7E4EEE285
S11302B020CAEEEDF1F2E0EDF2E8ED0AF2E5EB2E04
S11302C0202B37203936352D3336332D34352D3226
S11302D03900CFF0E5E4F1F2E0E2EBFFE5F22C20A7
S11302E0E3F0E0F4E8F7E5F1EAF3FE20E1E8E1EB1E
S11302F0E8EEF2E5EAF3204B564220312E302C2072
S1130300EDE0EFE8F1E0EDEDF3FE20E8F1EAEBFEDD
S1130310F7E8F2E5EBFCEDEE20E220F6E5EBEEF794
S1130320E8F1EBE5EDEDEEE920ECE0F2E5ECE0F2EE
S1130330E8EAE520EDE020FFE7FBEAE5203C433E68
S113034020E2203C4743433E00303132330010204A
S113035020214019000000000000000000000000FF
S11303600000000000000000000000000000000089
S11303700000000000000000000000000000000079
S11303800000000000000000000000000000000069
S11303900000000000000000000000000000000059
S11303A00380038003800380038003800380038031
S11303B00380038003800380038003800000000027
S11303C0038003800380038000000000000000001D
S11303D0000000000000000000001C701C701C7075
S11303E01C701C701C700000000000000000000065
S11303F000000000000000000000000000000000F9
S113040000000000000000000000000000000000E8
S113041000000000000000000000000000000000D8
S11304201C701C701C701C701C707FFC7FFC1C708A
S11304301C701C701C701C701C707FFC7FFC1C707A
S11304401C701C701C701C70000000000000000078
S11304500000000000000000000000000000038015
S113046003801FF03FF8739C739C738073807380C8
S113047073803FF01FF8039C039C039C039C739CB4
S1130480739C3FF81FF0038003800000000000000D
S11304900000000000000000000000000000000058
S11304A01F1C3F9C3BB83BB83FF01F7000E000E0CE
S11304B001C001C003800380070007000EF80FFC91
S11304C01DDC1DDC39FC38F80000000000000000D1
S11304D00000000000000000000000000000000018
S11304E00F801FC038E038E038E038E038E039C029
S11304F01F800F001F8C39DC70F870707070707082
S1130500707070F83FDC1F8C0000000000000000D9
S1130510000000000000000000000380038003804E
S1130520038003800380000000000000000000003E
S113053000000000000000000000000000000000B7
S113054000000000000000000000000000000000A7
S1130550000000000000000000000038007000E00F
S113056000E001C001C001C0038003800380038058
S1130570038003800380038003800380038003805F
S113058001C001C001C000E000E0007000380000BC
S11305900000000000000000000038001C000E00F5
S11305A00E00070007000700038003800380038018
S11305B0038003800380038003800380038003801F
S11305C00700070007000E000E001C0038000000A2
S11305D00000000000000000000000000000000017
S11305E0000000000000000038381C700EE007C056
S11305F003807FFC7FFC038007C00EE01C7038384A
S113060000000000000000000000000000000000E6
S113061000000000000000000000000000000000D6
S113062000000000000000000380038003800380BA
S113063003807FFC7FFC03800380038003800380AE
S113064000000000000000000000000000000000A6
S11306500000000000000000000000000000000096
S11306600000000000000000000000000000000086
S11306700000000000000000000000000000000076
S1130680038003800380038007000E000000000045
S11306900000000000000000000000000000000056
S11306A00000000000000000000000000000000046
S11306B000007FFC7FFC0000000000000000000040
S11306C00000000000000000000000000000000026
S11306D00000000000000000000000000000000016
S11306E00000000000000000000000000000000006
S11306F000000000000000000000000000000000F6
S113070003800380038003800000000000000000D9
S113071000000000000000000000000E000E001C9D
S1130720001C003800380070007000E000E001C0D8
S113073001C003800380070007000E000E001C00A8
S11307401C003800380070007000E000E000000079
S11307500000000000000000000000000000000095
S11307601FF03FF8701C701C701C703C707C70FC97
S113077071DC739C771C7E1C7C1C781C701C701CA8
S1130780701C701C3FF81FF0000000000000000007
S11307900000000000000000000000000000000055
S11307A0038007800F801F801F80038003800380E5
S11307B0038003800380038003800380038003801D
S11307C0038003801FF01FF0000000000000000001
S11307D00000000000000000000000000000000015
S11307E01FF03FF8701C701C701C701C701C001CE7
S11307F00038007000E001C0038007000E001C00F8
S1130800380070007FFC7FFC000000000000000046
S113081000000000000000000000000000000000D4
S11308201FF03FF8701C701C001C001C001C0018FA
S113083007F007F00018001C001C001C001C001C22
S1130840701C701C3FF81FF0000000000000000046
S11308500000000000000000000000000000000094
S1130860001C003C007C00FC01DC039C071C0E1CEB
S11308701C1C381C701C701C701C7FFC7FFC001C32
S1130880001C001C001C001C0000000000000000F4
S11308900000000000000000000000000000000054
S11308A07FFC7FFC700070007000700070007000AE
S11308B07FF07FF8001C001C001C001C001C001CA6
S11308C0701C701C3FF81FF00000000000000000C6
S11308D00000000000000000000000000000000014
S11308E01FF83FF870007000700070007000700016
S11308F07FF07FF8701C701C701C701C701C701CC6
S1130900701C701C3FF81FF0000000000000000085
S113091000000000000000000000000000000000D3
S11309207FFC7FFC701C701C701C703800380070D9
S1130930007000E000E001C001C003800380038078
S11309400380038003800380000000000000000097
S11309500000000000000000000000000000000093
S11309601FF03FF8701C701C701C701C701C701CF5
S113097030181FF01FF03018701C701C701C701C95
S1130980701C701C3FF81FF0000000000000000005
S11309900000000000000000000000000000000053
S11309A01FF03FF8701C701C701C701C701C701CB5
S11309B0701C701C3FFC1FFC001C001C001C001C55
S11309C0001C001C3FF83FF0000000000000000085
S11309D00000000000000000000000000000000013
S11309E000000000000000000000000003800380FD
S11309F003800380000000000000000000000000ED
S1130A0003800380038003800000000000000000D6
S1130A1000000000000000000000000000000000D2
S1130A2000000000000000000000000003800380BC
S1130A3003800380000000000000000000000000AC
S1130A40038003800380038007000E000000000081
S1130A500000000000000000000000000000000092
S1130A60001C0038007000E001C0038007000E0085
S1130A701C00380038001C000E000700038001C071
S1130A8000E000700038001C0000000000000000BE
S1130A900000000000000000000000000000000052
S1130AA00000000000000000000000007FFC7FFC4C
S1130AB000000000000000007FFC7FFC000000003C
S1130AC00000000000000000000000000000000022
S1130AD00000000000000000000000000000000012
S1130AE0700038001C000E000700038001C000E005
S1130AF0007000380038007000E001C00380070077
S1130B000E001C003800700000000000000000000F
S1130B1000000000000000000000000000000000D1
S1130B201FF03FF8701C701C701C701C701C003887
S1130B30007000E001C00380038003800000000017
S1130B400380038003800380000000000000000095
S1130B500000000000000000000000000000000091
S1130B601FF03FF8701C701C701C70FC71FC739CAF
S1130B70739C739C739C739C739C739C71FC70EC4E
S1130B80700070003FFC1FFC00000000000000002B
S1130B90000000000E1C20A231150000000000001F
S1130BA00000000000000000000000000000000041
S1130BB00000000000000000000000000000000031
S1130BC00000000000000000000000000000000021
S1130BD00000060018006001800600180060018013
S1130BE0060018006001800000000060018006001B
S1130BF018000000000000000000000000000001D8
S1130C008C063018C063018C063000000000000020
S1130C1000000000000000000000000000000000D0
S1130C2000000000000000000000000000000000C0
S1130C300000000018C063018C06307FF1FFC18CF6
S1130C40063018C063018C06307FF1FFC18C06307A
S1130C5018C0630000000000000000000000000055
S1130C6000000000C003003F01FE0CCC3330CC0375
S1130C70300CC01FC03F803300CC0330CCC33307DB
S1130C80F80FC00C0030000000000000000000005D
S1130C900000000000003C31F8C66619987EC0F3DD
S1130CA00018006003000C006001800CF037E1992B
S1130CB0866631F8C3C00000000000000000000098
S1130CC0000000000000000F007E030C0C3030C058
S1130CD0E701F803C00E007C63BB9C7C60E1838663
S1130CE00E1C7C3FB87C6000000000000000000087
S1130CF00000000000600180060018006001800010
S1130D0000000000000000000000000000000000DF
S1130D1000000000000000000000000000000000CF
S1130D200000000000000C006003000C0060018063
S1130D3006001800600180060018006001800600AB
S1130D40180060018003000C00180030000000004F
S1130D5000000000000001800300060018003000BD
S1130D60C003000C003000C003000C003000C003BE
S1130D70000C003000C006001800C006000000008F
S1130D80000000000000000000000000000000005F
S1130D90000038E07700F801C07FF1FFC07003E085
S1130DA01DC0E380000000000000000000000000FF
S1130DB0000000000000000000000000000000002F
S1130DC00000C003000C003000C07FF9FFE03000D9
S1130DD0C003000C00300000000000000000000010
S1130DE000000000000000000000000000000000FF
S1130DF000000000000000000000000000000000EF
S1130E0000000000000060018006001800C0060019
S1130E1000000000000000000000000000000000CE
S1130E200000000000000000000000007FF1FFC08F
S1130E3000000000000000000000000000000000AE
S1130E40000000000000000000000000000000009E
S1130E50000000000000000000000000000000008E
S1130E60000000000000000060018006001800007F
S1130E700000000000000000000000000000000C62
S1130E800030018006003000C006001800C00300D6
S1130E9018006003000C006001800C003001800623
S1130EA0000000000000000000000000000000003E
S1130EB0001FC0FF8603180C607183C61F18EC67FF
S1130EC031B8C7C31E0C703180C603180C3FE07FD5
S1130ED0000000000000000000000000000000000E
S1130EE0000003001C00F007C003000C003000C029
S1130EF003000C003000C003000C003000C01FE0F1
S1130F007F800000000000000000000000000000DE
S1130F100000001FC0FF8603180C603180C003006E
S1130F201C00E007003801C00E007003801C007F25
S1130F30F1FFC000000000000000000000000000FD
S1130F40000000001FC0FF8603180C003000C0031F
S1130F50000C0FE03F8003000C003000C603180CA7
S1130F603FE07F00000000000000000000000000DF
S1130F700000000000003001C00F007C03B01CC062
S1130F80E3070C3831C0C603180C7FF1FFC003001F
S1130F900C003000C0000000000000000000000051
S1130FA00000000000007FF1FFC60018006001800F
S1130FB006001FF07FE000C003000C003000C603F1
S1130FC0180C3FE07F00000000000000000000005B
S1130FD0000000000000001FE0FF86001800600110
S1130FE08006001FF07FE180C603180C603180C6C4
S1130FF003180C3FE07F0000000000000000000028
S113100000000000000000007FF1FFC603180C6020
S113101030018006003000C006001800C003000C38
S1131020003000C003000C000000000000000000BD
S11310300000000000000000001FC0FF8603180C21
S1131040603180C603180C3FE0FF8603180C603142
S113105080C603180C3FE07F000000000000000081
S1131060000000000000000000001FC0FF860318FD
S11310700C603180C603180C6030FFC1FF000C0007
S11310803000C003000C3FE0FF000000000000003F
S1131090000000000000000000000000000000004C
S11310A0000000001800600180060000000000003D
S11310B0000000006001800600180000000000002D
S11310C0000000000000000000000000000000001C
S11310D0000000000018006001800600000000000D
S11310E0000000000060018006001800C006000037
S11310F000000000000000000000000000000001EB
S1131100C00E007003801C00E007003801C003809B
S113111007000E001C0038007000E001C000000051
S113112000000000000000000000000000000000BB
S113113000000000000001FFC7FF000000000000E5
S1131140001FFC7FF0000000000000000000000011
S1131150000000000000000000000000000000008B
S113116001C0038007000E001C0038007000E0017D
S1131170C00E007003801C00E007003801C00000AE
S1131180000000000000000000000000000000005B
S11311901F80FF06061818606181800C0060030040
S11311A01800600180000000006001800600180043
S11311B0000000000000000000000000000000002B
S11311C0001FC0FF8603180C603187C63F19CC6628
S11311D03198C66319CC63F187460018003FF07F4D
S11311E0C00000000000000000000000000000003B
S11311F000001FC0FF8603180C603180C603180C62
S11312006031FFC7FF180C603180C603180C6031D1
S113121080C000000000000000000000000000008A
S11312200000007FC1FF8603180C603180C6061FD2
S1131230F07FC1818603180C603180C603180C7FCF
S1131240E1FF0000000000000000000000000000BA
S1131250000000001FC0FF8603180C6031800600E8
S1131260180060018006001800600180C603180C95
S11312703FE07F00000000000000000000000000CC
S113128000000000007F01FF060E1818603180C6C0
S113129003180C603180C603180C603180C6061830
S11312A0387FC1FC000000000000000000000000C6
S11312B00000000000007FF1FFC6001800600180FC
S11312C0060018007F81FE060018006001800600F9
S11312D018007FF1FFC000000000000000000000C3
S11312E0000000000000007FF1FFC600180060014C
S11312F080060018007F81FE060018006001800649
S113130000180060018000000000000000000000E0
S113131000000000000000001FC0FF8603180C60DE
S113132031800600180063F18FC603180C60318009
S1131330C603180C3FE07F0000000000000000001E
S1131340000000000000000000603180C603180C9B
S1131350603180C603180C7FF1FFC603180C60319E
S113136080C603180C603180C0000000000000003B
S1131370000000000000000000000FC03F0030002B
S1131380C003000C003000C003000C003000C00398
S1131390000C003000C00FC03F000000000000003F
S11313A0000000000000000000000001F807E00653
S11313B00018006001800600180060018006001813
S11313C0606181860618183FC07E0000000000009E
S11313D0000000000000000000000000603181C631
S11313E00E187063819C06E01F007801E007C01BA3
S11313F08067018E061C1838607180C000000000F0
S113140000000000000000000000000000600180F7
S113141006001800600180060018006001800600C4
S11314201800600180060018007FF1FFC000000072
S1131430000000000000000000000000000040095F
S11314408067039E1E7CF9BF667998C66019806622
S11314500198066019806601980660198060000092
S11314600000000000000000000000000000006018
S11314703180C603180C7031E0C7C31B8C67318EF2
S1131480C61F183C607180C603180C603180C00010
S11314900000000000000000000000000000000048
S11314A01FC0FF8603180C603180C603180C60311E
S11314B080C603180C603180C603180C3FE07F001F
S11314C00000000000000000000000000000000018
S11314D0007FC1FF8603180C603180C603180C60BE
S11314E031FF87FC1800600180060018006001804D
S11314F000000000000000000000000000000000E8
S113150000001FC0FF8603180C603180C603180C4E
S1131510603180C603180C603180C63B187C3FE004
S11315207F8007000E0000000000000000000000A3
S11315300000007FC1FF8603180C603180C60318C9
S11315400C6031FF87FC1F006E019C063818706028
S1131550E181C00000000000000000000000000065
S1131560000000001FC0FF8603180C600180060005
S113157018003FC07F8003000C003000C603180C25
S11315803FE07F00000000000000000000000000B9
S113159000000000007FF9FFE03000C003000C00F1
S11315A03000C003000C003000C003000C00300009
S11315B0C003000C00000000000000000000000058
S11315C0000000000000603180C603180C60318008
S11315D0C603180C603180C603180C603180C60342
S11315E0180C3FE07F000000000000000000000035
S11315F000000000000000603180C603180C306059
S1131600C183060C1818C063018C06300D803600A7
S1131610D801C007001C000000000000000000000A
S11316200000000000000000601980660198066058
S1131630198066019806601980663199E66FD9F3BE
S1131640E7879C0E601900200000000000000000E5
S1131650000000000000000000603180C3060C1888
S113166018C06300D8036007001C00D8036018C0CA
S11316706303060C18603180C00000000000000005
S11316800000000000000000000060198063030CEB
S11316900C18606180CC033007801E003000C0034A
S11316A0000C003000C003000C000000000000002B
S11316B000000000000000000000007FF1FFC003F4
S11316C0000C007003801C00E007003801C00E000D
S11316D0700180060018007FF1FFC00000000000C8
S11316E00000000000000000007E01F80600180061
S11316F06001800600180060018006001800600187
S11317008006001800600180060018007E01F800C1
S1131710000000000000000000000018006000C08D
S11317200300060018003000C0018006000C0030E1
S11317300060018003000C0018006000C00300007A
S11317400000000000000000000003F00FC00300D0
S11317500C003000C003000C003000C003000C007B
S11317603000C003000C003000C003000C03F00F75
S1131770C000000000000000000000002001C00FB5
S11317808077038E1C1C0000000000000000000095
S11317900000000000000000000000000000000045
S11317A00000000000000000000000000000000035
S11317B00000000000000000000000000000000025
S11317C00000000000000000000000000000000015
S11317D0001FFC7FF0000000000000000000C003B8
S11317E08007000E00180000000000000000000048
S11317F000000000000000000000000000000000E5
S113180000000000000000000000000000000000D4
S113181000000000000000000000007F01FE000C3A
S113182000307FC3FF180C603180C603180C3FF0F2
S11318307FC0000000000000000000000000000065
S1131840000000600180060018006001FF07FE1818
S11318500C603180C603180C603180C603180C7FFD
S1131860E1FF000000000000000000000000000094
S1131870000000000000000000000000007F03FEE4
S1131880181C600180060018006001800600181C06
S11318903FE07F00000000000000000000000000A6
S11318A00000000000003000C003000C00307FC3C3
S11318B0FF180C603180C603180C603180C6031811
S11318C00C3FF07FC000000000000000000000009A
S11318D00000000000000000000000000000007F85
S11318E003FE180C603180C7FF1FFC6001800600F6
S11318F0181C3FE07F000000000000000000000012
S11319000000000000000003F01FC060018006001A
S1131910FF03FC0180060018006001800600180027
S113192060018006001800000000000000000000B4
S113193000000000000000000000000000000000A3
S1131940007FC3FF180C603180C603180C6031801F
S1131950C603180C3FF07FC003000C003000C3FE28
S11319600FF0000000000000006001800600180075
S11319706001FF07FE180C603180C603180C60314B
S113198080C603180C603180C00000000000000015
S11319900000000000000000000003000C00300004
S11319A00000003C00F000C003000C003000C00345
S11319B0000C003000C00FC03F0000000000000019
S11319C0000000000000000000000000600180062C
S11319D00000000007801E00180060018006001847
S11319E00060018006001800600180060C18306059
S11319F0C181FC03E0000000000000003000C003CF
S1131A00000C003000C1C30E0C703380DC03E00F07
S1131A10003E00DC03380C7030E0C1C00000000060
S1131A20000000000000000000000000000F003C67
S1131A30003000C003000C003000C003000C003074
S1131A4000C003000C003000C00FC03F00000000C5
S1131A500000000000000000000000000000000082
S1131A6000000000000001FF87FF18C663198C66A0
S1131A703198C663198C663198C663198C6000006E
S1131A800000000000000000000000000000000052
S1131A900000000000000001FF07FE180C60318008
S1131AA0C603180C603180C603180C603180C00076
S1131AB00000000000000000000000000000000022
S1131AC00000000000000000007F03FE180C6031DD
S1131AD080C603180C603180C603180C3FE07F00F9
S1131AE000000000000000000000000000000000F2
S1131AF000000000000000000001FF07FE180C6059
S1131B003180C603180C603180C603180C7FE1FFD6
S1131B1006001800600180060018000000000000A4
S1131B2000000000000000000000007FC3FF180C4C
S1131B30603180C603180C603180C603180C3FF076
S1131B407FC003000C003000C003000C0000000044
S1131B500000000000000000000000019FC6FF1FFD
S1131B60007801C0060018006001800600180060BB
S1131B7001800000000000000000000000000000E0
S1131B80000000000000000000000000007F03FED1
S1131B90180C60018003FC07F8003000C0031C0C23
S1131BA03FE07F0000000000000000000000000093
S1131BB00000000000060018006001800600FF031A
S1131BC0FC01800600180060018006001800600116
S1131BD08007E00F8000000000000000000000000B
S1131BE00000000000000000000000000000018070
S1131BF0C603180C603180C603180C603180C6031C
S1131C00180C3FF07FC0000000000000000000003E
S1131C1000000000000000000000000000000001BF
S1131C2080C603180C3060C18306063018C06300F8
S1131C30D8036007001C0000000000000000000042
S1131C400000000000000000000000000000000090
S1131C5001806601980660198C663198C663198CF8
S1131C60663198C63FF07F8000000000000000004D
S1131C700000000000000000000000000000000060
S1131C80000180C6031C1C38E07700F801C00F80F7
S1131C9077038E1C1C603180C0000000000000002F
S1131CA00000000000000000000000000000000030
S1131CB000000180C603180C603180C603180C6054
S1131CC03180C603180C3FF07FC003000C003000C5
S1131CD0C3FE0FF000000000000000000000000040
S1131CE000000001FFC7FF001C00E007003801C02E
S1131CF00E007003801C007FF1FFC0000000000094
S1131D000000000000000000000E007803800C00BA
S1131D103000C003000C003001801C007000600023
S1131D20C003000C003000C003000E001E00380089
S1131D3000000000000000000000600180060018A0
S1131D400060018006001800600180060018006031
S1131D500180060018006001800600180060018000
S1131D600000000000000000000003800F000E00CF
S1131D701800600180060018006000C001C0070060
S1131D803001800600180060018006003803C00E90
S1131D90000000000000000000000000000000003F
S1131DA000000000000000000000000F0C7E318CD9
S1131DB0C63F18780000000000000000000000008A
S1131DC0000000000000000000000000000000000F
S1131DD01FC0FF8603180C603180C603180C6031E5
S1131DE0FFC7FF180C603180C603180C603180C037
S1131DF000000000000000000000000000000000DF
S1131E00007FE1FF8600180060018006001FF07F5C
S1131E10E180C603180C603180C603180C7FE1FF13
S1131E2000000000000000000000000000000000AE
S1131E3000007FC1FF8603180C603180C6061FF0C6
S1131E407FC1818603180C603180C603180C7FE1C2
S1131E50FF0000000000000000000000000000007F
S1131E600000007FF1FFC600180060018006001822
S1131E700060018006001800600180060018006000
S1131E8001800000000000000000000000000000CD
S1131E900000000007F03FC1830C0C603180C603D2
S1131EA0180C603180C603180C603180C603180C0E
S1131EB0FFFBFFEC01B006C01800000000000000AA
S1131EC000000000007FF1FFC600180060018006DA
S1131ED00018007F81FE06001800600180060018CB
S1131EE0007FF1FFC00000000000000000000000BF
S1131EF000000000000063198C663198C66319CC99
S1131F00E3B707F80FC07F83B71CCE63198C663123
S1131F1098C663198C6000000000000000000000F7
S1131F20000000000000001FC0FF8603180C0030F2
S1131F3000C003000C0FE03F8003000C003000C61B
S1131F4003180C3FE07F00000000000000000000C8
S1131F500000000000000000603180C603180C601F
S1131F603181C60F187C63B19CC6E31F0C7831C065
S1131F70C603180C603180C000000000000000009F
S1131F80000018C07F00F80000603180C603180C00
S1131F90603181C60F187C63B19CC6E31F0C783195
S1131FA0C0C603180C603180C000000000000000AF
S1131FB000000000000000000000603181C60E181F
S1131FC07063819C06E01F007801E007C01B8067F6
S1131FD0018E061C1838607180C0000000000000EB
S1131FE0000000000000000000000007F03FC18373
S1131FF0060C183060C183060C183060C183060CCF
S1132000183060C183060C3831C0C00000000000E5
S1132010000000000000000000000000400980678C
S1132020039E1E7CF9BF667998C660198066019884
S1132030066019806601980660198060000000003F
S1132040000000000000000000000000006031807B
S1132050C603180C603180C603180C7FF1FFC60359
S1132060180C603180C603180C603180C000000079
S113207000000000000000000000000000001FC07D
S1132080FF8603180C603180C603180C603180C6CB
S113209003180C603180C603180C3FE07F00000079
S11320A00000000000000000000000000000007FAD
S11320B0F1FFC603180C603180C603180C60318030
S11320C0C603180C603180C603180C603180C00050
S11320D000000000000000000000000000000000FC
S11320E07FC1FF8603180C603180C603180C603171
S11320F0FF87FC1800600180060018006001800062
S113210000000000000000000000000000000000CB
S1132110001FC0FF8603180C6031800600180060A1
S1132120018006001800600180C603180C3FE07FA0
S1132130000000000000000000000000000000009B
S113214000007FF9FFE03000C003000C003000C045
S113215003000C003000C003000C003000C003007A
S11321600C0000000000000000000000000000005F
S1132170000000603180C603180C603180C603186B
S11321800C6030FFC1FF000C003000C003000C3FA6
S1132190E0FF00000000000000000000000000005C
S11321A0003000C01FE0FFC63198C663198C663149
S11321B098C663198C663198C663198C663198C6C3
S11321C03FF07F803000C0000000000000000000ED
S11321D00000000000603180C3060C1818C06300C2
S11321E0D8036007001C00D8036018C06303060C02
S11321F018603180C00000000000000000000000F2
S1132200000000000000603180C603180C603180BB
S1132210C603180C603180C603180C603180C603F5
S1132220180C3FF87FE001800600180060000000F1
S113223000000000000000603180C603180C60310B
S113224080C603180C3FF07FC003000C003000C0B0
S113225003000C003000C00000000000000000007B
S1132260000000000000000063198C663198C6630A
S1132270198C663198C663198C663198C663198CBB
S1132280663198C63FF87FE00000000000000000BF
S113229000000000000000000063198C663198C63D
S11322A063198C663198C663198C663198C66319B4
S11322B08C663198C63FFC7FF000C003000C0030F0
S11322C000000000000000000000F003C003000C48
S11322D0003000C003FE0FFC3018C063018C0630D0
S11322E018C063018C063FF0FF800000000000006E
S11322F0000000000000000000000060198066017A
S1132300980660198067F19FE660D983660D983658
S113231060D983660D98367F99FC60000000000048
S113232000000000000000000000000060018006C2
S113233000180060018007FC1FF8603180C6031894
S11323400C603180C603180C7FE1FF000000000020
S1132350000000000000000000000000001FC0FF9B
S11323608603180C003000C003000C0FF03FC003BC
S1132370000C003000C603180C3FE07F0000000092
S1132380000000000000000000000000000061E107
S11323908FC6619986661998666199867E19F86672
S11323A06199866619986661998663F18780000051
S11323B00000000000000000000000000000001FFA
S11323C0F0FFC603180C603180C603180C6030FFA0
S11323D0C1FF007C03B01CC0E3070C3831C0C0004F
S11323E000000000000000000000000000000000E9
S11323F00000000000000000007F01FE000C00301F
S11324007FC3FF180C603180C603180C3FF07FC0F7
S113241000000000000000000000000000000000B8
S1132420001FC0FF0600180060008001FC0FF86068
S11324303180C603180C603180C603180C3FE07F5E
S11324400000000000000000000000000000000088
S113245000001F00FE070C183060C18306181FF02F
S11324607FE180C603180C603180C6031C183FE06E
S11324707F000000000000000000000000000000D9
S1132480000000000000000000000000FF03FE0048
S11324900C003000C1FE0FF0600180060018003F00
S11324A0E07F800000000000000000000000000049
S11324B0000000003FC0FF8003000C00307FC3FF1A
S11324C0180C603180C603180C603180C603180CE8
S11324D03FE07F000000000000000000000000005A
S11324E000000000000000000000000000007F0366
S11324F0FE180C603180C7FF1FFC600180060018C5
S11325001C3FE07F0000000000000000000000000D
S11325100000000000000000000000000000018C2A
S1132520663198C67338EDC1FE03F01FE0EDC73382
S113253098C663198C6000000000000000000000D1
S11325400000000000000000000000000000000087
S11325507F03FE1C0C003000C0FE03F8003000C0F6
S1132560031C0C3FE07F000000000000000000009E
S11325700000000000000000000000000000000057
S11325800180C603180C603180C603180C603180CA
S1132590C603181C3FF07EC00000000000000000CD
S11325A000000000000000000000006301FC03E0E4
S11325B0000180C603180C603180C603180C60311A
S11325C080C603181C3FF07EC0000000000000001D
S11325D000000000000000000000000000000000F7
S11325E0000000C1C30E0C703380DC03E00F003E1A
S11325F000DC03380C7030E0C1C0000000000000B3
S113260000000000000000000000000000000000C6
S1132610000000001FC0FF060C183060C183060CC8
S1132620183060C183060C3831C0C00000000000BF
S11326300000000000000000000000000000000096
S113264000000000010026019C0E7879F3E6FD9954
S1132650E663198066019806601980600000000036
S11326600000000000000000000000000000000066
S113267000000000000180C603180C603180C7FF11
S11326801FFC603180C603180C603180C00000005C
S11326900000000000000000000000000000000036
S11326A0000000000000007F03FE180C603180C6AB
S11326B003180C603180C603180C3FE07F00000053
S11326C00000000000000000000000000000000006
S11326D00000000000000001FFC7FF180C603180FB
S11326E0C603180C603180C603180C603180C0002A
S11326F000000000000000000000000000000000D6
S1132700000000000000000001FF07FE180C60310B
S113271080C603180C603180C603180C7FE1FF06E5
S1132720001800600180060018000000000000008E
S1132730000000000000000000007F03FE181C6081
S11327400180060018006001800600181C3FE07F2D
S11327500000000000000000000000000000000075
S11327600000000000000000000001FFE7FF80C03F
S113277003000C003000C003000C003000C0030054
S11327800C00000000000000000000000000000039
S113279000000000000000000000000180C60318D3
S11327A00C603180C603180C603180C603180C3FDE
S11327B0F07FC003000C003000C3FE0FF0000000E7
S11327C000000000000000000000C003007F83FF41
S11327D018C663198C663198C663198C663198C61D
S11327E03FF07F803000C0000000000000000000C7
S11327F0000000000000000000000000000180C68E
S1132800031C1C38E07700F801C00F8077038E1C8E
S11328101C603180C00000000000000000000000C7
S11328200000000000000000000000000000018023
S1132830C603180C603180C603180C603180C603CF
S1132840180C3FF87FE001800600180060000000CB
S11328500000000000000000000000000000000173
S113286080C603180C603180C3FF07FC003000C031
S113287003000C003000C000000000000000000055
S11328800000000000000000000000000000000044
S1132890018C663198C663198C663198C663198CAD
S11328A0663198C63FF87FE0000000000000000099
S11328B00000000000000000000000000000000014
S11328C000018C663198C663198C663198C6631909
S11328D08C663198C63FFC7FF000C003000C0030CA
S11328E000000000000000000000000000000000E4
S11328F0000003C00F000C003000FF03FE0C0C307E
S113290030C0C3030C0C3FE0FF00000000000000D7
S113291000000000000000000000000000000000B3
S11329200000000180660198066019FC67F998367A
S113293060D983660D98367F99FC60000000000022
S11329400000000000000000000000000000000083
S11329500000000000C003000C003000FF03FE0C68
S11329600C3030C0C3030C0C3FE0FF00000000003B
S11329700000000000000000000000000000000053
S11329800000000000007F03FE1C0C003000C0FFAC
S113299003FC003000C0031C0C3FE07F000000007B
S11329A00000000000000000000000000000000023
S11329B00000000000000187863F198666199866AA
S11329C0619F867E19986661998663F1878000000D
S11329D000000000000000000000000000000000F3
S11329E000000000000000007FC3FF180C6031806D
S11329F0C6030FFC1FF00EC073038C1C30E0C00034
S1132A0000000000000000000018C063018C0000FA
S1132A107FF1FFC6001800600180060018007F8166
S1132A20FE06001800600180060018007FF1FFC058
S1132A300000000000000000000000000000000092
S1132A4000000063018C063000007F03FE180C6058
S1132A503180C7FF1FFC6001800600181C3FE07F27
S1132A600000000000000000000000000000000062
S1132A70000061E18FC63318CC63F18787001C0026
S1132A8079F1E7C6D81B6067819E063818E061813A
S1132A908600000000000000000000000C1820A2C6
S1132AA024120000000000000000000000000000EC
S1132AB00000000000000000000000000000000012
S1132AC00000000000000000000000000600600696
S1132AD0006006006006006006006000000006005A
S1132AE0600600000000000000000000001981984A
S1132AF01981980900000000000000000000000097
S1132B0000000000000000000000000000000000C1
S1132B10000000001981981981987FE19819819823
S1132B201981987FE19819819819800000000000AC
S1132B3000000000000000600601F836C666660664
S1132B40603601F806C06606666636C1F80600609F
S1132B5000000000000000000000000000038C6C76
S1132B60C6D86D83B00300600600C00DC1B61B63F8
S1132B703631C0000000000000000000000000002A
S1132B800E01B03183183181B00E01E633661C604A
S1132B90C60C61C3361E6000000000000000000087
S1132BA0000600600600600600000000000000004F
S1132BB00000000000000000000000000000000011
S1132BC0000000000000C01803003006006006008A
S1132BD0600600600600600600600600300300180E
S1132BE000C0000000000000003001800C00C0069E
S1132BF000600600600600600600600600600600D3
S1132C00C00C018030000000000000000000000043
S1132C1000000000060C3181B00E0FFE0E01B03131
S1132C20860C00000000000000000000000000000E
S1132C30000000000000000000600600600607FEBF
S1132C4006006006006000000000000000000000B4
S1132C500000000000000000000000000000000070
S1132C6000000000000000000000060060060020D4
S1132C70020040000000000000000000000000000E
S1132C8000000000000007FE00000000000000003B
S1132C900000000000000000000000000000000030
S1132CA00000000000000000000000000000000020
S1132CB000000600600600000000000000000000A4
S1132CC00000000600600C00C018018030030060A2
S1132CD00600C00C018018030030060060000000EC
S1132CE000000000000000001F830C60660660E620
S1132CF01E6366666C678670660660630C1F8000E0
S1132D000000000000000000000000000600E01EBB
S1132D1003600600600600600600600600600600AE
S1132D20603FC00000000000000000000000000040
S1132D301F830C60660660600600C0180300600C08
S1132D4001803006007FE000000000000000000069
S1132D50000000001F830C60600600600600C0F8DD
S1132D6000C00600600660630C1F800000000000C5
S1132D70000000000000000000600E01E036066064
S1132D80C61863066066066067FE006006006000A1
S1132D900000000000000000000000007FE600606A
S1132DA006006006007F800C006006006006606319
S1132DB00C1F800000000000000000000000000064
S1132DC01FC3006006006006007F860C6066066014
S1132DD0660660630C1F8000000000000000000015
S1132DE0000000007FE60660600600C00C01801849
S1132DF003003006006006006006000000000000CA
S1132E0000000000000000001F830C60660660667E
S1132E100630C1F830C60660660660630C1F800089
S1132E200000000000000000000000001F830C6090
S1132E3066066066066063061FE0060060060060C2
S1132E400C3F8000000000000000000000000000B3
S1132E500000000000000600600600000000000002
S1132E6000000600600600000000000000000000F2
S1132E7000000000000000000000060060060000E2
S1132E800000000000000600600600200200400070
S1132E90000000000000000000600C01803006000B
S1132EA0C01803001800C006003001800C00600048
S1132EB0000000000000000000000000000000000E
S1132EC000000007FE0000000000007FE00000009A
S1132ED000000000000000000000000000000000EE
S1132EE06003001800C006003001800C0180300629
S1132EF000C0180300600000000000000000000093
S1132F00000000001F830C60660660600C018030C6
S1132F1006006000000006006006000000000000DB
S1132F2000000000000000001F830C60660663E6DA
S1132F306666666666666666663A6003001FE0005B
S1132F400000000000000000000000001F830C606F
S1132F5066066066066066067FE60660660660666C
S1132F600660600000000000000000000000000097
S1132F707F860C60660660660C7F860C6066066061
S1132F80660660660C7F8000000000000000000000
S1132F90000000001F830C606606600600600600E7
S1132FA060060060060660630C1F800000000000DD
S1132FB000000000000000007F860C60660660666A
S1132FC00660660660660660660660660C7F8000C2
S1132FD00000000000000000000000007FE6006028
S1132FE006006006006007F86006006006006006E0
S1132FF0007FE0000000000000000000000000006E
S11330007FE6006006006006006007F86006006066
S113301006006006006000000000000000000000E0
S1133020000000001F830C60660660060060063E18
S113303060660660660660630C1F80000000000086
S1133040000000000000000060660660660660661E
S1133050066067FE6066066066066066066060007D
S11330600000000000000000000000001F80600657
S1133070006006006006006006006006006006004E
S1133080601F80000000000000000000000000003D
S113309003F00C00C00C00C00C00C00C00C00C609D
S11330A0C60C60C3181F00000000000000000000F0
S11330B00000000060660C6186306606C078070078
S11330C07806C066063061860C606000000000006F
S11330D000000000000000006006006006006006BA
S11330E0006006006006006006006006007FE000E5
S11330F0000000000000000000000000802C06E03A
S1133100EF1EDB6CE6C46C06C06C06C06C06C06CBB
S113311006C0600000000000000000000000000085
S11331206066066066067067866C666663661E6027
S1133130E606606606606000000000000000000013
S1133140000000001F830C60660660660660660669
S113315060660660660660630C1F80000000000065
S113316000000000000000007F860C6066066066B8
S11331700660C7F860060060060060060060000094
S11331800000000000000000000000001F830C602D
S113319066066066066066066066066066066663C6
S11331A03C1F800C006000000000000000000000D4
S11331B07F860C60660660660660C7F87806C0669F
S11331C0063061860C606000000000000000000012
S11331D0000000001F830C6066006006003001F8E8
S11331E000C00600600660630C1F80000000000041
S11331F000000000000000007FE0600600600600A0
S113320060060060060060060060060060060000BC
S1133210000000000000000000000000606606607E
S1133220660660660660660660660660660660633B
S11332300C1F8000000000000000000000000000DF
S113324060660660660630C30C30C30C1981981999
S113325080F00F0060060000000000000000000085
S113326000000000C06C06C06C06C06C06C06C0692
S1133270C46CE6DB6F1EE0EC06802000000000005A
S1133280000000000000000060660630C30C1981D5
S1133290980F00600F019819830C30C60660600017
S11332A0000000000000000000000000606606301E
S11332B0C30C1981980F00F0060060060060060038
S11332C06006000000000000000000000000000094
S11332D07FE00600600600C0180300600C01803027
S11332E006006006007FE00000000000000000000F
S11332F00007C0600600600600600600600600600B
S113330006006006006006006006006007C000005A
S11333100000000000000600600300300180180077
S1133320C00C006006003003001801800C00C006C9
S11333300060000000000000003E0060060060061F
S1133340006006006006006006006006006006007B
S1133350600600603E00000000000000000600F06F
S113336019830C60600000000000000000000000F1
S11333700000000000000000000000000000000049
S11333800000000000000000000000000000000039
S11333900000000000000000000000007FE00000CA
S11333A000000000001800C006003001800000008A
S11333B00000000000000000000000000000000009
S11333C000000000000000000000000000000000F9
S11333D000003F800C0060061FE306606606606321
S11333E0061FE000000000000000000000000000D4
S11333F06006006006007F860C60660660660660F4
S1133400660660660C7F800000000000000000007B
S1133410000000000000000000001F830C60660034
S113342060060060060060630C1F8000000000005E
S113343000000000000000000060060060061FE3BA
S1133440066066066066066066066063061FE00046
S11334500000000000000000000000000000000068
S113346000001F830C6066066067FE600600600350
S1133470061FC00000000000000000000000000063
S113348003E0600600603FC060060060060060065E
S1133490006006006006000000000000000000005C
S11334A0000000000000000000001FE30660660644
S11334B06066066066066063061FE006006006003C
S11334C0C3F80000000000006006006006007F866C
S11334D00C606606606606606606606606606000EC
S11334E0000000000000000000000000060060066C
S11334F000001E0060060060060060060060060012
S1133500601F8000000000000000000000000000B8
S113351000C00C00C00003C00C00C00C00C00C00B4
S1133520C00C00C00C00C00C30C30C1980F00000AB
S11335300000000030030030030030630C3183309E
S11335403603C036033031830C30600000000000C5
S113355000000000000000001E006006006006007D
S1133560600600600600600600600600601F8000C0
S11335700000000000000000000000000000000047
S113358000007F866C666666666666666666666664
S113359066666000000000000000000000000000FB
S11335A00000000000007F860C606606606606600E
S11335B0660660660660600000000000000000000F
S11335C0000000000000000000001F830C6066067D
S11335D060660660660660630C1F800000000000E1
S11335E000000000000000000000000000007F86D2
S11335F00C60660660660660660660660C7F860080
S113360060060060060000000000000000000000EA
S113361000001FE306606606606606606606606377
S1133620061FE006006006006006000000000000BF
S113363000000000000067E6C07807006006006034
S113364006006006006000000000000000000000AA
S1133650000000000000000000003FC606600600F5
S11336606003FC0060060066063FC0000000000026
S113367000000000000000000C00C00C00C07F80AF
S1133680C00C00C00C00C00C00C00C00C007C0007F
S11336900000000000000000000000000000000026
S11336A00000606606606606606606606606606323
S11336B0061FE00000000000000000000000000001
S11336C000000000000060660660630C30C19819B9
S11336D080F00F0060060000000000000000000001
S11336E0000000000000000000006066066066063E
S11336F06666666666666666663FC0000000000031
S113370000000000000000000000000000006066EF
S11337100630C1980F00600F019830C60660600043
S11337200000000000000000000000000000000095
S11337300000606606606606606606606606606392
S1133740061FE00600600600C3F800000000000049
S11337500000000000007FE00600C0180300600CB9
S113376001803006007FE00000000000000000003F
S11337700001C0300600600600600600600C018095
S11337800C006006006006006006003001C0000006
S113379000000000000600600600600600600600ED
S11337A060060060060060060060060060060060B7
S11337B00600000000000000003800C0060060069B
S11337C00060060060030018030060060060060045
S11337D0600600C038000000000000000000000087
S11337E00000000000000000003C666666663C00C5
S11337F000000000000000000000000000000000C5
S1133800000000001F830C606606606606606606A2
S11338107FE60660660660660660600000000000E1
S113382000000000000000007FC600600600600683
S1133830007F860C60660660660660660C7F80000A
S11338400000000000000000000000007F860C6003
S1133850660660660C7F860C6066066066066066B7
S11338600C7F800000000000000000000000000049
S11338707FE60060060060060060060060060060E7
S11338800600600600600000000000000000000068
S1133890000000000FC18C30C30C30C30C30C30CCB
S11338A030C30C30C30C30C30C7FE60660660600E0
S11338B000000000000000007FE6006006006006D3
S11338C0006007F86006006006006006007FE00004
S11338D0000000000000000000000000666666664C
S11338E0666666636C1F80F01F836C666666666638
S11338F06666600000000000000000000000000098
S11339001F830C60600600600600C0F800C006005B
S1133910600660630C1F80000000000000000000CF
S11339200000000060660660660660E61E63666668
S11339306C678670660660660660600000000000C2
S1133940000030C30C1F800060660660660660E6F7
S11339501E6366666C678670660660660660600055
S113396000000000000000000000000060660C6120
S113397086306606C07807007806C0660630618621
S11339800C60600000000000000000000000000067
S11339900FE1863063063063063063063063063019
S11339A06306306606C060000000000000000000EE
S11339B000000000802C06E0EF1EDB6CE6C46C0601
S11339C0C06C06C06C06C06C06C06000000000003D
S11339D00000000000000000606606606606606685
S11339E0066067FE606606606606606606606000E4
S11339F00000000000000000000000001F830C60B5
S1133A006606606606606606606606606606606353
S1133A100C1F8000000000000000000000000000F7
S1133A207FE6066066066066066066066066066097
S1133A30660660660660600000000000000000008A
S1133A40000000007F860C60660660660660C7F8AA
S1133A5060060060060060060060000000000000D0
S1133A6000000000000000001F830C606606600672
S1133A700060060060060060060660630C1F80009C
S1133A800000000000000000000000007FE060066D
S1133A900060060060060060060060060060060024
S1133AA060060000000000000000000000000000AC
S1133AB06066066066066066066063061FE00600D0
S1133AC0600600600C3F8000000000000000000061
S1133AD0000000601F836C666666666666666666DE
S1133AE066666666666666636C1F8060000000003A
S1133AF0000000000000000060660630C30C19815D
S1133B00980F00600F019819830C30C6066060009E
S1133B100000000000000000000000006066066075
S1133B206606606606606606606606606606606332
S1133B30061FF00300300300000000000000000036
S1133B406066066066066066063061FE0060060018
S1133B506006006006006000000000000000000035
S1133B600000000066666666666666666666666689
S1133B706666666666666663661FE00000000000AF
S1133B800000000000000000666666666666666601
S1133B90666666666666666666666663661FF003E4
S1133BA0003003000000000000000000E00E006090
S1133BB006006007F860C606606606606606606612
S1133BC00C7F8000000000000000000000000000E6
S1133BD0C06C06C06C06C06FC6C66C36C36C36C3F8
S1133BE06C36C36C66FC600000000000000000003E
S1133BF0000000006006006006006007F860C6066A
S1133C0060660660660660660C7F80000000000047
S1133C1000000000000000001F830C6060060060CC
S1133C20060060FE00600600600660630C1F8000F2
S1133C30000000000000000000000000C7CCC6CC5B
S1133C406CC6CC6CC6CC6FC6CC6CC6CC6CC6CC6C0B
S1133C50C6C7C00000000000000000000000000013
S1133C601FE3066066066066063061FE01E0360604
S1133C7060C61863066060000000000000000000D9
S1133C80000000000000000000003F800C006006FF
S1133C901FE30660660660630E1F600000000000FC
S1133CA000000000000000001FC300600600300197
S1133CB0F830C60660660660660660630C1F800006
S1133CC00000000000000000000000003F06186033
S1133CD0C60C60C6187F860C606606606606606661
S1133CE00C3F800000000000000000000000000005
S1133CF00000000000003FC0060060060063FC6096
S1133D0006006006003FC000000000000000000044
S1133D10000000003F800C0060061FE30E60660692
S1133D2060660660660660630C1F80000000000089
S1133D3000000000000000000000000000001F83DD
S1133D400C6066066067FE6006006003061FC00024
S1133D50000000000000000000000000000000005F
S1133D60000066666666636C1F80F01F836C66667F
S1133D706666600000000000000000000000000013
S1133D800000000000003FC6060060060060FC0062
S1133D9060060066063FC00000000000000000004E
S1133DA00000000000000000000060660660660677
S1133DB06066066066066063061FE000000000009F
S1133DC0000000000000000030C30C1F800060668B
S1133DD0066066066066066066066063061FE000AD
S1133DE000000000000000000000000000000000CF
S1133DF0000030630C3183303603C0360330318326
S1133E000C30600000000000000000000000000012
S1133E100000000000000FE18630630630630630C6
S1133E2063063063066060000000000000000000CC
S1133E300000000000000000000040260670E79E1D
S1133E406F666660660660660660600000000000DB
S1133E500000000000000000000000000000606698
S1133E60066066066067FE6066066066066060005F
S1133E70000000000000000000000000000000003E
S1133E8000001F830C606606606606606606606359
S1133E900C1F800000000000000000000000000073
S1133EA00000000000007FE60660660660660660AB
S1133EB06606606606606000000000000000000006
S1133EC0000000000000000000007F860C60660611
S1133ED060660660660660660C7F860060060060A9
S1133EE006000000000000000000000000001F8326
S1133EF00C60660060060060060060630C1F8000B2
S1133F0000000000000000000000000000000000AD
S1133F1000007FE0600600600600600600600600A6
S1133F206006000000000000000000000000000027
S1133F3000000000000060660660660660660660B9
S1133F4066066063061FE00600600600C3F8000012
S1133F50000000000000000600601F836C666666B7
S1133F6066666666666666636C1F806006000000AF
S1133F700000000000000000000000000000606677
S1133F800630C1980F00600F019830C606606000CB
S1133F90000000000000000000000000000000001D
S1133FA0000060660660660660660660660660631A
S1133FB0061FF003003003000000000000000000B2
S1133FC00000000000006066066066063061FE00C6
S1133FD060060060060060000000000000000000B1
S1133FE00000000000000000000066666666666669
S1133FF06666666666666663661FE000000000002B
S113400000000000000000000000000000006666E0
S1134010666666666666666666666663661FF0035F
S11340200030030000000000000000000000000059
S113403000007007003003F830C3063063063063B5
S11340400C3F8000000000000000000000000000A1
S11340500000000000006066066067C6666636639E
S113406066366366667C60000000000000000000A5
S1134070000000000000000000006006006007F07F
S113408061860C60C60C60C6187F0000000000004A
S113409000000000000000000000000000001F837A
S11340A00C6060060060FE00600660630C1F800008
S11340B000000000000000000000000000000000FC
S11340C00000C7CCC6CC6CC6CC6FC6CC6CC6CC6C5E
S11340D0C6C7C0000000000000000000000000008F
S11340E00000000000003FE6066066066063FE0311
S11340F060660C61863060000000000000001981D9
S1134100981980007FE6006006006006006007F8EA
S11341106006006006006006007FE000000000000A
S113412000000000000000001981981980001F831E
S11341300C6066066067FE6006006003061FC00030
S113414000000000000000000000000061C63663AB
S1134150663661C60070073E7BE6B06F0670670680
S1134160306300000000000000000D2630043E25EE
S1134170F807C03E03F01F81FC0FE0FF0FF87FC774
S1134180FE3FF3EF9F7DF3FF9FF8FFC7FC3FE1FF86
S11341908FFE7FF3EFDF3FF9FFC7FE1FF0FF83FCC5
S11341A00FE07F01F807C03E01F00F807C007C0720
S11341B0C03E01E00E00700307987C83C43E01E01A
S11341C01F01F00F80F807C07C03E01F00FC03E030
S11341D01F807E01F007C43E30F983EE1F787FC153
S11341E0FF0FFC3FE0DF867E13F00FC001F807C02D
S11341F03E00F003801CF067C31E08F843C01F0094
S11342007C03E00F807C01F00F807C07E03E03E03C
S11342103F01F01F00F84F86F837C3FC3FC1FE1F73
S1134220E1FE0FB0FD0FF07F87FCFFFFFFFFFF01F2
S1134230FC0FE07F83FE1FF0FFC7FE3EF9F7CF9F20
S11342407CFFE3FF1FF87FC3FE3FF3FF9FFDFBFFEF
S11342509FF8FFC7FC3FC1FE0FE07E03F01F00F88C
S113426007C03FFFFFFFFFFC3C3C3CDCDCDCFFFF06
S113427000FF5F00FFFF4F004FFF4FFF00FF4F00A5
S113428000FF4F004FFF00DF4F00DFFFFF4F000034
S11342904FFFFF00EF00DFEFFFEF0000EFFFEF0045
S11342A0FFEFCF00FFD7004FD700FFFFFFBEBEBE1A
S11342B0FFBE3CB4780000FF0000B400BEBEFF6E39
S11342C06EC8F8E8009A9A0000FFFF00A0A0FFB4AF
S11342D0FFA064A0FFFFFFD2D2D2FFBE3CD2A00059
S11342E000FF0000D200BEBEFF7878DCF5F500BE0A
S11342F0BE0000FFFF00BEBEFFB4FFBE64BEC8C860
S1134300C8808080606060404040C8C8C8686868F1
S1134310F85000B050009C00007C0000F0000090B9
S1134320000000D00000880000680000480000D0B1
S1134330000070000050FF0050A0000090000070CA
S11343400028FF002890E8C80078700080500060C2
S11343503000E8B80088580000C8D00080880060A9
S11343606800404800C8D0006870E800E8900090F9
S1134370700070500050D800D8780078FFFFFF809C
S11343808080606060404040C8C8C8686868FF00BA
S113439000A800009C00007C0000F00000900000D9
S11343A000FF0000880000680000480000D0000002
S11343B070000000FF0000B00000900000700000DA
S11343C0F8000098FFFF0078700080500060300013
S11343D0E8B80088580000FFFF008088006068008B
S11343E0404800C8D0006870FF00FF900090700043
S11343F070500050E200E278007811241FBECFEF25
S1134400D0E1DEBFCDBF0E9402370C9434760C9409
S113441000004F925F926F927F928F929F92AF9221
S1134420BF92CF92DF92EF92FF920F931F93CF939D
S1134430DF93CDB7DEB7CC5BD3400FB6F894DEBFC5
S11344400FBECDBF20E040E060E080E00E94E43E8B
S113445021E04FEF6FEF8FEF0E94E43E22E040E057
S113446060E08FEF0E94E43E23E040E06FEF80E0E5
S11344700E94E43E24E04FEF60E080E00E94E43ECE
S113448025E040E06FEF8FEF0E94E43E26E04FEF1F
S11344906FEF80E00E94E43E27E04FEF60E08FEF93
S11344A00E94E43E80E00E94193F2FEF33ED80E349
S11344B0215030408040E1F700C000008AE691E4DA
S11344C00E94EA5C84E00E94E75C81E00E945E5DF9
S11344D080E00E946A5D81E00E94615D82E00E944A
S11344E06D5D80E00E945B5D80E00E94675D1F92CD
S11344F01F9286E08F9394E0B92EBF921F921F9271
S11345008F9324E0822E35E0A32E4EE1C42E58E78B
S1134510E52EF12C00EF10E02AE030E047E750E010
S113452061E080E00E94D46CC12C60EAE62E00EACF
S113453020E04CEF6CEF80E00E94115D72E0C72E2A
S1134540E0E5EE2E00E520E540E560E580E50E942B
S1134550115DF4EBCF2ED12CACE6EA2EF12C05E95B
S113456010E021E049E453E066E080E00E945B68EB
S11345709FEF23ED30E3915020403040E1F700C03D
S113458000001F921F921F92BF921F921F921F92B0
S1134590BEE1CB2E18E7E12EF12C00EF10E02AE06B
S11345A030E047E750E06CE080E00E94D46C8CE09F
S11345B00E94A46CC12CE12C04EE24EE40E06FEFC9
S11345C08FEF0E94115D02E0C02E8CE3E82E0CE315
S11345D02CE34CE36CE38CE30E94115D94EBC92E55
S11345E0D12C2CE6E22EF12C05E910E021E049E47F
S11345F053E066E080E00E945B688FEF94E32CE078
S1134600815090402040E1F700C00000C12CE12C13
S113461000E024EE40E060E08FEF0E94115D32E0A4
S1134620C32E4CE3E42E0CE32CE34CE36CE38CE369
S11346300E94115D1F921F921F92BF921F921F92A0
S11346401F925EE1C52E68E7E62EF12C00EF10E024
S11346502AE030E047E750E069E080E00E94D46C53
S113466074EBC72ED12CECE6EE2EF12C05E910E00C
S113467021E049E453E066E080E00E945B683FEF9C
S113468082E597E0315080409040E1F700C000009F
S1134690C12CF0EAEF2E00EA20E04CEF6CEF80E052
S11346A00E94115DA2E0CA2EB0E5EB2E00E520E5E4
S11346B040E560E580E50E94115D1F921F921F9204
S11346C0BF921F921F921F921EE1C12E08E7E02E97
S11346D0F12C00EF10E02AE030E047E750E061E021
S11346E080E00E94D46C84EBC82ED12C9CE6E92E89
S11346F0F12C05E910E021E049E453E066E080E0B4
S11347000E945B6884E99BE00E94EA5C80E00E946E
S11347105B5D81E00E946D5D81E00E94675D80E0E9
S11347200E945E5DCC24C394E12C00E020E040E0D4
S113473060E080E00E94115DC12C21EEE22E01EECA
S113474020E040E066E98BEE0E94115D30EEC32E5E
S1134750DD24D3944AEAE42EF12C01E010E021E0B8
S113476042ED52E061E081E00E945B688CE99AE2EC
S11347700E94EA5C56EDC52EDD24D3946DE1E62E4D
S1134780FF24F39405E010E021E048EA52E062E0FF
S113479081E00E945B6824E535E885E491E02150DE
S11347A0304080409040D9F700C000C0000060E075
S11347B080E00E94833F2FEF35EA8EE021503040A5
S11347C08040E1F700C0000022E040E060E081E0CA
S11347D00E942A3F9FEF27E93AE39150204030405E
S11347E0E1F700C0000021E040E061E081E00E94C8
S11347F02A3F8FEF97E92AE3815090402040E1F768
S113480000C0000022E040E061E081E00E942A3F15
S11348103FEF87E99AE3315080409040E1F700C0D0
S1134820000023E040E061E081E00E942A3F2FEF96
S113483037E98AE3215030408040E1F700C00000AE
S113484021E040E067E081E00E942A3F9FEF27E9F2
S11348503AE3915020403040E1F700C0000022E0EC
S113486040E067E081E00E942A3F8FEF97E92AE366
S1134870815090402040E1F700C0000023E040E078
S113488067E081E00E942A3F3FEF87E99AE33150D5
S113489080409040E1F700C0000021E040E068E083
S11348A081E00E942A3F2FEF37E98AE3215030400C
S11348B08040E1F700C0000022E040E068E081E0D1
S11348C00E942A3F9FEF27E93AE39150204030406D
S11348D0E1F700C0000023E040E068E081E00E94CE
S11348E02A3F8FEF97E92AE3815090402040E1F777
S11348F000C0000021E040E069E081E00E942A3F1E
S11349003FEF87E99AE3315080409040E1F700C0DF
S1134910000022E040E069E081E00E942A3F2FEF9E
S113492037E98AE3215030408040E1F700C00000BD
S113493023E040E069E081E00E942A3F9FEF27E9FD
S11349403AE3915020403040E1F700C0000080E09D
S11349500E94193F04E020E331E04FEE50E06FE0A5
S113496070E08FEE90E00E94B9402FE930E04EED08
S113497051E06FE970E081E090E00E94B9400FB629
S1134980F894DEBF0FBECDBF79E0E72EF12C04E032
S113499021EA30E0A7016DE970E0C7010E94B94047
S11349A09AE0E90EF11C2FEDE21621E0F20679F708
S11349B003E1E02EF12C04E0970141EF50E0B70150
S11349C08DEE90E00E94B9403AE0E30EF11C85E3DD
S11349D0E81681E0F80679F70E94E73AB5E4CB2EB1
S11349E0B3EFDB2EBFE7EB2EBFE3FB2E1AED812ED8
S11349F018E7912E11EAA12E1CE3B12E01E010E07C
S1134A0023C0B80180E090E00E94033827ED33EA28
S1134A1040E95FE30E94CA3823EC35EF48E450E4F0
S1134A200E94CA3820E030E044E353E40E946F3728
S1134A306B017C010E942D394B015C01C701B60159
S1134A400E946C376B017C0120E030E04EEB52E4B5
S1134A50C501B4010E94CA3820E030E04FE153E4BC
S1134A600E9408370E94D73742E0C8010E94EB3AFF
S1134A7020E030E04EEB52E4C701B6010E94CA3890
S1134A8020E030E04FE153E40E9408370E94D7371A
S1134A9043E0C8010E94EB3A0F5F1F4F0E3D91E0C7
S1134AA0190709F0AECF0E94E93A2FEF37EA81E601
S1134AB0215030408040E1F700C0000080E00E94B7
S1134AC0193F04E020E331E04FEE50E06FE070E086
S1134AD08FEE90E00E94B9402FE930E04EED51E0B6
S1134AE06FE970E081E090E00E94B940A9E0EA2E0D
S1134AF0F12C04E021EA30E0A7016DE970E0C70180
S1134B000E94B9409AE0E90EF11C2FEDE21621E073
S1134B10F20679F7F3E1EF2EF12C04E0970141EF6F
S1134B2050E0B7018DEE90E00E94B9403AE0E30E08
S1134B30F11C85E3E81681E0F80679F70E94E73A6C
S1134B40AA24A394B12CEE24E394F12CEAE58E2E4E
S1134B50912C55C040E0C6010E94EB3A5601B701C2
S1134B6080E090E00E94033823E333E343E35FE310
S1134B700E94CA3823EC35EF48E450E40E94CA3856
S1134B8020E030E044E353E40E946F370E942D3963
S1134B902B013C0197013695279536952795ABE770
S1134BA0B4E10E94A87396958795B401681B790BAC
S1134BB080E090E00E940338A30192010E94CA3869
S1134BC020E030E04FE153E40E9408370E94D737D9
S1134BD02B013C0143E0C5010E94EB3AE1E0F0E027
S1134BE0EC0FFD1FE00FF11F518240829FEFE91A85
S1134BF0F90A22E0E2162CE1F20609F44BC0650141
S1134C009FEFC91AD90A2FEDC21621E0D206F1F09E
S1134C1030EEE31631E0F30690F18FEEC816D104BE
S1134C2001F18501000F111FE1E0F0E0EC0FFD1F21
S1134C30E00FF11F608171816F39710509F08ACF2E
S1134C4044E0C6010E94EB3A560189CF20EEE216F9
S1134C5021E0F206C8F000E010E0CC24C394D12C8B
S1134C60E1CFC352DE4F68817981CD5DD1400CED37
S1134C7011E044E0C6010E94EB3A560170CF850171
S1134C805601000F111F6BCFAA24A394B12C00E08E
S1134C9010E065CF0E94E93A3FEF87EA91E6315090
S1134CA080409040E1F700C000008AE691E40E9451
S1134CB0EA5C81E00E946D5D80E00E945B5D80E0C3
S1134CC00E94675D80E00E945E5DC12CEE24EA9440
S1134CD00FEF20E04FEF6FEF80E00E94115DCC24D6
S1134CE0C394E12C00E02FEF4FEF60E080E00E94DE
S1134CF0115D22E040E061E081E00E942A3FA12CA6
S1134D00EE24E3940FE010E020EE31E040E050E0C8
S1134D1060E070E081E00E94483FAA24A39420EE62
S1134D2031E041E351E060E070E081E00E94483FFF
S1134D3002E020E040E550E060EA70E080EF90E0BF
S1134D400E94DC5121E040E550E060EA70E080EF31
S1134D5090E00E94DC5122E040E550E060EA70E01F
S1134D6080EF90E00E94DC5123E040E550E060EAEF
S1134D7070E080EF90E00E94DC5106E010E020E05B
S1134D8044E650E06FE970E08FEE90E00E94454900
S1134D9021E044E650E06FE970E08FEE90E00E947D
S1134DA0454922E044E650E06FE970E08FEE90E080
S1134DB00E94454923E044E650E06FE970E08FEE3D
S1134DC090E00E944549E4E6CE2ED12CF2EBEF2E82
S1134DD0F12C0EEB10E021E049E453E062E081E0C5
S1134DE00E945B68AEE0EA2EF12CB70180E090E00F
S1134DF00E9403382DEC3CEC4CEC5FE30E94CA3873
S1134E0020E030E040E751E40E9407370E94D737A2
S1134E1005E021E331E0AB01B70180E090E00E94BE
S1134E20B94025E0E20EF11C35E3E31631E0F30668
S1134E30E1F671E3E72EFF24F394B70180E090E0FC
S1134E400E9403382DEC3CEC4CEC5FE30E94CA3822
S1134E5020E030E040E751E40E9407370E94D73752
S1134E6005E02FE030E0AB01B7018FED91E00E9447
S1134E70B94085E0E81AF1089AE0E916F104E9F688
S1134E8061E3E62EFF24F394B70180E090E00E94F2
S1134E9003382DEC3CEC4CEC5FE30E94CA389B01D8
S1134EA0AC0160E070E084EF93E40E9407370E9455
S1134EB0D73703E02FE030E0AB01B70180E090E0AA
S1134EC00E94B94025E0E21AF1083AE0E316F10441
S1134ED0D9F65EE0E52EF12CB70180E090E00E9467
S1134EE003382DEC3CEC4CEC5FE30E94CA389B0188
S1134EF0AC0160E070E08BEF93E40E9407370E94FE
S1134F00D73703E020E331E0AB01B7018FED91E047
S1134F100E94B94085E0E80EF11C95E3E91691E0A2
S1134F20F906D1F62FEF3FE483EC21503040804066
S1134F30E1F700C0000022E040E064E081E00E946C
S1134F402A3FA12CCC24C3949AE0E92E0FE010E070
S1134F5020EE31E040E050E060E070E081E00E944B
S1134F60483FAA24A39420EE31E041E351E060E0FD
S1134F7070E081E00E94483F04E020E040E550E01A
S1134F8060EA70E080EF90E00E94DC5121E040E5AF
S1134F9050E060EA70E080EF90E00E94DC5122E093
S1134FA040E550E060EA70E080EF90E00E94DC5160
S1134FB023E040E550E060EA70E080EF90E00E947A
S1134FC0DC51EE24E39405E010E020E044E650E0F8
S1134FD06FE970E08FEE90E00E94454921E044E6DD
S1134FE050E06FE970E08FEE90E00E94454922E0C6
S1134FF044E650E06FE970E08FEE90E00E9445498E
S113500023E044E650E06FE970E08FEE90E00E9408
S1135010454924E6C22ED12C32EBE32EF12C0EEBC3
S113502010E021E049E453E061E081E00E945B6824
S11350304EE0E42EF12CB70180E090E00E940338AA
S11350402DEC3CEC4CEC5FE30E94CA3820E030E0ED
S113505040E751E40E9407370E94D73705E021E377
S113506031E0AB01B70180E090E00E94B94095E0E7
S1135070E90EF11C25E3E21621E0F206E1F681E3F4
S1135080E82EFF24F394B70180E090E00E940338F7
S11350902DEC3CEC4CEC5FE30E94CA3820E030E09D
S11350A040E751E40E9407370E94D73705E02FE01C
S11350B030E0AB01B7018FED91E00E94B94035E0DB
S11350C0E31AF1088AE0E816F104E9F601E3E02EB8
S11350D0FF24F394B70180E090E00E9403382DECA4
S11350E03CEC4CEC5FE30E94CA389B01AC0160E0ED
S11350F070E084EF93E40E9407370E94D73703E0FF
S11351002FE030E0AB01B70180E090E00E94B940AD
S113511095E0E91AF1082AE0E216F104D9F61EE056
S1135120E12EF12CB70180E090E00E9403382DECD1
S11351303CEC4CEC5FE30E94CA389B01AC0160E09C
S113514070E08BEF93E40E9407370E94D73703E0A7
S113515020E331E0AB01B7018FED91E00E94B9404B
S113516035E0E30EF11C85E3E81681E0F806D1F69C
S11351709FEF2FE433EC915020403040E1F700C022
S1135180000021E041E067E081E00E942A3FE12C39
S1135190F12C05E020E431E0A70160E070E080E05C
S11351A090E00E94B9408FE0E80EF11C9FEEE916F2
S11351B091E0F90671F7B6E3EB2EFF24F39405E0D2
S11351C0970140EE51E060E070E080E090E00E94E2
S11351D0B9402AE0E21AF10836EFE3163FEFF3068E
S11351E071F7A0EEEA2EFF24F39406E020E030E00D
S11351F0A70160E471E080EE91E00E94B9408FE085
S1135200E81AF10891F706E0970140E050E060E405
S113521071E080EE91E00E94B9409AE0E90EF11C41
S11352202AE4E21621E0F20671F73FEF8BE792E9F8
S1135230315080409040E1F700C0000020E041E0A0
S113524069E081E00E942A3FF0EEEF2EFF24F39400
S113525005E020E030E0A70160E471E080EE91E039
S11352600E94B9402FE0E21AF10891F7C12CD12C29
S113527005E0960140E050E060E471E080EE91E0EA
S11352800E94B9403AE0C30ED11C8AE4C81681E0FA
S1135290D80671F706E020E431E0A70160E070E091
S11352A080E090E00E94B9409FE0E90EF11C2FEEEF
S11352B0E21621E0F20671F7E6E3EE2EFF24F39402
S11352C006E0970140EE51E060E070E080E090E09D
S11352D00E94B9403AE0E31AF10886EFE8168FEF2E
S11352E0F80671F79FEF2BE732E9915020403040E8
S11352F0E1F700C0000022E042E069E081E00E94A2
S11353002A3F05E020EA30E040E951E060EA70E03D
S113531080E590E00E94B940E12CF12C70E4672E06
S11353207724739443018E189F08570180EFA80EC9
S1135330B11C05E0940140EF50E060EA70E0C50163
S11353400E94B94080EF90E06C01CE18DF08940110
S113535040EF50E060EA70E0C6010E94B940970156
S113536040EF50E060EA70E0C5010E94B940970147
S113537040EF50E060EA70E0C6010E94B94098E056
S1135380E90EF11C20EAE216F10461F6E12CF12C9D
S113539060E4662E772473945301AE18BF08470166
S11353A030E5830E911C06E0970140E951E060E08E
S11353B070E0C4010E94B94080E991E06C01CE180C
S11353C0DF0820E431E0A601B7010E94B94095014D
S11353D040E550E060E471E0C6010E94B94020E07D
S11353E030E0A401B50180E590E00E94B94088E076
S11353F0E80EF11C98E4E91691E0F90669F62FEF3E
S11354003FE483EC215030408040E1F700C00000CD
S113541023E040E060E081E00E942A3F02E020E5D2
S113542030E048E750E068E270E084E190E00E94F8
S1135430F04996E0A92E22E0C22E35E0E32EF12CAD
S113544000E510E028E730E048E250E064EB70E06B
S113545081E00E941A4A28E730E048E250E064E51F
S113546071E080E00E941A4A22E042E350E060EFDB
S113547070E080E590E00E94B24A46E0C42E52E01B
S1135480E52E05E010E022E330E040EF50E060EF6D
S113549070E081E00E94A44B22E330E040EF50E052
S11354A060E971E080E00E94A44B9FEF27EA31E6B7
S11354B0915020403040E1F700C0000023E040E07C
S11354C060E081E00E942A3F04E110E020E530E042
S11354D048E750E068E270E084E190E00E94DA4D31
S11354E066E0862E72E0A72EE5E0CE2ED12CF4E104
S11354F0EF2EF12C00E510E028E730E048E250E020
S113550064EB70E081E00E94E64E28E730E048E278
S113551050E064E571E080E00E94E64E02E020E0A5
S11355204CE350E060EF70E080E590E00E94DC51D5
S1135530A6E0AA2EB2E0CB2EE12C05E02CE330E06D
S113554040EF50E060EF70E081E00E94E6522CE30F
S113555030E040EF50E060E971E080E00E94E65204
S11355608FEF97EA21E6815090402040E1F700C098
S1135570000023E040E060E081E00E942A3F02E076
S113558028E230E04CE350E060E570E080E590E034
S11355900E94435515E0E12EF12C08E210E02CE3C3
S11355A030E040E550E060EF70E081E00E9470562A
S11355B02CE330E040E550E060E971E080E00E94D7
S11355C070568CE1E82EF12C20E530E048E750E0FD
S11355D068EC70E084E190E00E94CC5896E0692E7B
S11355E06F9222E0822E35E0A32EB12C4CE1C42E22
S11355F0D12C58E2E52EF12C00E510E028E730E04C
S113560048EC50E064EB70E081E00E94175A6F921E
S113561028E730E048EC50E064E571E080E00E9467
S1135620175A3FEF87EA91E6315080409040E1F706
S113563000C0000080E00E94193F8EE493E00E94C5
S1135640EA5C81E00E945E5D81E00E945B5D81E036
S11356500E946D5D80E00E94675D80E00E946A5D4B
S113566081E00E94615D1F921F926F9263E0B62EEB
S1135670BF921F921F9272E0972E9F92E3E08E2EAC
S1135680F3E2CF2EA6E4EA2EF12C06E410E028E0A3
S113569030E04FE750E061E080E00E94D46C1F925C
S11356A01F926F92BF921F921F929F9228E030E048
S11356B04DEC50E061E080E00E94D46C1F921F9298
S11356C06F92BF921F921F929F9228E030E04BE1AD
S11356D051E061E080E00E94D46C88E00E94A46CF8
S11356E0B6E4CB2ED12C14E3E12EF12C0FE710E01D
S11356F021E04AEB51E066E080E00E945B680DEC3B
S113570010E021E048EB51E066E080E00E945B6835
S11357100BE111E021E046EB51E066E080E00E94FD
S11357205B681F921F926F92BF921F921F929F926B
S113573003E2C02E86E4E82EF12C06E410E026E510
S113574030E04FE750E062E080E00E94D46C1F92AA
S11357501F926F92BF921F921F929F9226E530E094
S11357604DEC50E063E080E00E94D46C0FB6F894F6
S1135770DEBF0FBECDBF1F921F926F92BF921F92CA
S11357801F929F9226E530E04BE151E064E080E017
S11357900E94D46C89E00E94A46C96E4C92ED12C9A
S11357A022E8E22EF12C0FE710E021E044EB51E077
S11357B066E080E00E945B688AE00E94A46C0DECC5
S11357C010E021E042EB51E066E080E00E945B687B
S11357D08BE00E94A46C0BE111E021E040EB51E06E
S11357E066E080E00E945B681F921F926F92BF92F6
S11357F01F921F929F9233E2C32E46E4E42EF12CB3
S113580006E410E024EA30E04FE750E065E080E091
S11358100E94D46C1F921F926F92BF921F921F928C
S11358209F9224EA30E04DEC50E066E080E00E9474
S1135830D46C1F921F926F92BF921F921F929F92DD
S113584024EA30E04BE151E067E080E00E94D46C50
S11358508CE00E94A46C56E4C52ED12C60EDE62E9B
S1135860F12C0FE710E021E04EEA51E066E080E021
S11358700E945B688DE00E94A46C0DEC10E021E0B6
S11358804CEA51E066E080E00E945B688EE00E9492
S1135890A46C0BE111E021E04AEA51E066E080E00B
S11358A00E945B681F921F926F92BF921F921F9279
S11358B09F9273E2C72EE6E4EE2EF12C06E410E08C
S11358C022EF30E04FE750E061E080E00E94D46CCA
S11358D00FB6F894DEBF0FBECDBF1F921F926F921A
S11358E0BF921F921F929F9222EF30E04DEC50E046
S11358F061E080E00E94D46C1F921F926F92BF926D
S11359001F921F929F9222EF30E04BE151E061E041
S113591080E00E94D46C88E00E94A46CF6E4CF2E50
S1135920D12CAEE1EA2EFF24F3940FE710E021E03E
S113593048EA51E066E080E00E945B680DEC10E00C
S113594021E046EA51E066E080E00E945B680BE1FA
S113595011E021E044EA51E066E080E00E945B68E7
S11359609FEF29E638E1915020403040E1F700C034
S113597000001F921F921F92BF921F921F921F92AC
S1135980B3E2CB2E16E4E12EF12C06E410E028E07D
S113599030E04FE750E068E080E00E94D46C8FEF85
S11359A095EA2EE0815090402040E1F700C00000CD
S11359B01F921F921F92BF921F921F921F9228E064
S11359C030E04FE750E069E080E00E94D46C3FEFA4
S11359D082E597E0315080409040E1F700C000003C
S11359E01F921F921F92BF921F921F921F9228E034
S11359F030E04FE750E061E080E00E94D46C2FEF8C
S1135A0039E688E1215030408040E1F700C00000D1
S1135A100FB6F894DEBF0FBECDBF1F921F921F9228
S1135A20BF921F921F921F9228E030E04DEC50E08D
S1135A3068E080E00E94D46C3FEF85EA9EE031503C
S1135A4080409040E1F700C000001F921F921F9217
S1135A50BF921F921F921F9228E030E04DEC50E05D
S1135A6069E080E00E94D46C2FEF32E587E021509A
S1135A7030408040E1F700C000001F921F921F9247
S1135A80BF921F921F921F9228E030E04DEC50E02D
S1135A9061E080E00E94D46C9FEF29E638E19150E8
S1135AA020403040E1F700C000001F921F921F9277
S1135AB0BF921F921F921F9228E030E04BE151E009
S1135AC068E080E00E94D46C8FEF95EA2EE081506C
S1135AD090402040E1F700C000001F921F921F92E7
S1135AE0BF921F921F921F9228E030E04BE151E0D9
S1135AF069E080E00E94D46C3FEF82E597E031508A
S1135B0080409040E1F700C000000FB6F894DEBF7B
S1135B100FBECDBF1F921F921F92BF921F921F9262
S1135B201F9228E030E04BE151E061E080E00E9408
S1135B30D46C3FEF89E698E1315080409040E1F722
S1135B4000C000001F921F921F92BF921F921F92CB
S1135B501F9226E530E04FE750E068E080E00E94C5
S1135B60D46C2FEF35EA8EE0215030408040E1F7CD
S1135B7000C000001F921F921F92BF921F921F929B
S1135B801F9226E530E04FE750E06BE080E00E9492
S1135B90D46C9FEF22E537E0915020403040E1F78C
S1135BA000C000001F921F921F92BF921F921F926B
S1135BB01F9226E530E04FE750E062E080E00E946B
S1135BC0D46C8FEF99E628E1815090402040E1F7B2
S1135BD000C000001F921F921F92BF921F921F923B
S1135BE01F9226E530E04DEC50E068E080E00E9432
S1135BF0D46C3FEF85EA9EE0315080409040E1F75D
S1135C0000C000000FB6F894DEBF0FBECDBF1F92D8
S1135C101F921F92BF921F921F921F9226E530E09F
S1135C204DEC50E069E080E00E94D46C3FEF82E5E7
S1135C3097E0315080409040E1F700C000001F928F
S1135C401F921F92BF921F921F921F9226E530E06F
S1135C504DEC50E063E080E00E94D46C2FEF39E615
S1135C6088E1215030408040E1F700C000001F92DD
S1135C701F921F92BF921F921F921F9226E530E03F
S1135C804BE151E068E080E00E94D46C9FEF25EA8C
S1135C903EE0915020403040E1F700C000001F92E8
S1135CA01F921F92BF921F921F921F9226E530E00F
S1135CB04BE151E069E080E00E94D46C8FEF92E503
S1135CC027E0815090402040E1F700C000001F927F
S1135CD01F921F92BF921F921F921F9226E530E0DF
