S01F00004B56425F4C43445F31366269745F41546D6567613132382E73726563C2
S11300000C94FE210C941D220C941D220C941D2290
S11300100C941D220C941D220C941D220C941D2260
S11300200C941D220C941D220C941D220C941D2250
S11300300C941D220C941D220C941D220C941D2240
S11300400C941D220C941D220C941D220C941D2230
S11300500C941D220C941D220C941D220C941D2220
S11300600C941D220C941D220C941D220C941D2210
S11300700C941D220C941D220C941D220C941D2200
S11300800C941D220C941D220C941D2205A84CCD09
S1130090B2D44EB93836A9020C50B9918688083CBE
S11300A0A6AAAA2ABE000000803F00407A10F35A94
S11300B000A0724E18090010A5D4E80000E87648A4
S11300C0170000E40B54020000CA9A3B000000E150
S11300D0F505000080969800000040420F000000E3
S11300E0A08601000000102700000000E8030000C3
S11300F000006400000000000A000000000001008D
S1130100000000002C76D888DC674F0823DFC1DFAD
S1130110AE59E1B1B796E5E3E453C63AE6519976B0
S113012096E8E6C28426EB898C9B62ED407C6FFCEA
S1130130EFBC9C9F40F2BAA56FA5F490055A2AF72C
S11301405C936B6CF9676DC11BFCE0E40D47FEF535
S113015020E6B500D0ED902E03009435770500809D
S1130160841E080000204E0A000000C80C333333FC
S1130170330F986E12831141EF8D2114893BE6559C
S113018016CFFEE6DB18D1844B381BF77C1D901D7F
S1130190A4BBE424203284725E228100C9F124ECE1
S11301A0A1E53D2710202021401900000000000097
S11301B0000000000000000000000000000000003B
S11301C0000000000000000000000000000000002B
S11301D0000000000000000000000000000000001B
S11301E0000000000000000000000000000000000B
S11301F0000000000000038003800380038003806C
S113020003800380038003800380038003800380D2
S1130210038000000000038003800380038000004B
S113022000000000000000000000000000000000CA
S11302301C701C701C701C701C701C700000000072
S113024000000000000000000000000000000000AA
S1130250000000000000000000000000000000009A
S1130260000000000000000000000000000000008A
S11302700000000000001C701C701C701C701C70BE
S11302807FFC7FFC1C701C701C701C701C701C702C
S11302907FFC7FFC1C701C701C701C701C700000A8
S11302A0000000000000000000000000000000004A
S11302B000000000038003801FF03FF8739C739CD0
S11302C073807380738073803FF01FF8039C039CDA
S11302D0039C039C739C739C3FF81FF00380038072
S11302E0000000000000000000000000000000000A
S11302F00000000000001F1C3F9C3BB83BB83FF0CF
S11303001F7000E000E001C001C00380038007000B
S113031007000EF80FFC1DDC1DDC39FC38F800006A
S113032000000000000000000000000000000000C9
S11303300000000000000F801FC038E038E038E003
S113034038E038E039C01F800F001F8C39DC70F8AA
S1130350707070707070707070F83FDC1F8C0000EB
S11303600000000000000000000000000000000089
S11303700380038003800380038003800000000067
S11303800000000000000000000000000000000069
S11303900000000000000000000000000000000059
S11303A00000000000000000000000000000000049
S11303B00038007000E000E001C001C001C003800B
S11303C00380038003800380038003800380038011
S11303D003800380038001C001C001C000E000E08D
S11303E00070003800000000000000000000000061
S11303F038001C000E000E000700070007000380F1
S113040003800380038003800380038003800380D0
S11304100380038003800700070007000E000E001E
S11304201C00380000000000000000000000000074
S11304300000000000000000000000000000383848
S11304401C700EE007C003807FFC7FFC038007C0A4
S11304500EE01C70383800000000000000000000AE
S11304600000000000000000000000000000000088
S113047000000000000000000000000000000380F5
S113048003800380038003807FFC7FFC0380038060
S113049003800380038000000000000000000000CF
S11304A00000000000000000000000000000000048
S11304B00000000000000000000000000000000038
S11304C00000000000000000000000000000000028
S11304D00000000000000380038003800380070005
S11304E00E000000000000000000000000000000FA
S11304F000000000000000000000000000000000F8
S113050000000000000000007FFC7FFC00000000F1
S113051000000000000000000000000000000000D7
S113052000000000000000000000000000000000C7
S113053000000000000000000000000000000000B7
S113054000000000000000000000000000000000A7
S1130550000000000000038003800380038000008B
S11305600000000000000000000000000000000087
S1130570000E000E001C001C0038003800700070D3
S113058000E000E001C001C0038003800700070011
S11305900E000E001C001C003800380070007000B3
S11305A0E000E00000000000000000000000000087
S11305B00000000000001FF03FF8701C701C701C4D
S11305C0703C707C70FC71DC739C771C7E1C7C1C02
S11305D0781C701C701C701C701C3FF81FF000000D
S11305E00000000000000000000000000000000007
S11305F0000000000000038007800F801F801F8020
S113060003800380038003800380038003800380CE
S1130610038003800380038003801FF01FF0000029
S113062000000000000000000000000000000000C6
S11306300000000000001FF03FF8701C701C701CCC
S1130640701C701C001C0038007000E001C00380A6
S113065007000E001C00380070007FFC7FFC0000C7
S11306600000000000000000000000000000000086
S11306700000000000001FF03FF8701C701C001CFC
S1130680001C001C001807F007F00018001C001CD8
S1130690001C001C001C701C701C3FF81FF00000A4
S11306A00000000000000000000000000000000046
S11306B0000000000000001C003C007C00FC01DC89
S11306C0039C071C0E1C1C1C381C701C701C701C0A
S11306D07FFC7FFC001C001C001C001C001C000094
S11306E00000000000000000000000000000000006
S11306F00000000000007FFC7FFC700070007000B0
S11307007000700070007FF07FF8001C001C001C5B
S1130710001C001C001C701C701C3FF81FF0000023
S113072000000000000000000000000000000000C5
S11307300000000000001FF83FF870007000700017
S11307407000700070007FF07FF8701C701C701CCB
S1130750701C701C701C701C701C3FF81FF0000093
S11307600000000000000000000000000000000085
S11307700000000000007FFC7FFC701C701C701CDB
S1130780703800380070007000E000E001C001C063
S113079003800380038003800380038003800000C0
S11307A00000000000000000000000000000000045
S11307B00000000000001FF03FF8701C701C701C4B
S11307C0701C701C701C30181FF01FF03018701C47
S11307D0701C701C701C701C701C3FF81FF0000013
S11307E00000000000000000000000000000000005
S11307F00000000000001FF03FF8701C701C701C0B
S1130800701C701C701C701C701C3FFC1FFC001CB6
S1130810001C001C001C001C001C3FF83FF00000E2
S113082000000000000000000000000000000000C4
S113083000000000000000000000000000000000B4
S11308400000038003800380038000000000000098
S11308500000000000000380038003800380000088
S11308600000000000000000000000000000000084
S11308700000000000000000000000000000000074
S11308800000038003800380038000000000000058
S11308900000000000000380038003800380070041
S11308A00E00000000000000000000000000000036
S11308B0000000000000001C0038007000E001C0CF
S11308C0038007000E001C00380038001C000E00D6
S11308D00700038001C000E000700038001C000025
S11308E00000000000000000000000000000000004
S11308F000000000000000000000000000000000F4
S113090000007FFC7FFC00000000000000007FFC72
S11309107FFC000000000000000000000000000058
S113092000000000000000000000000000000000C3
S1130930000000000000700038001C000E000700DA
S1130940038001C000E0007000380038007000E04F
S113095001C0038007000E001C0038007000000076
S11309600000000000000000000000000000000083
S11309700000000000001FF03FF8701C701C701C89
S1130980701C701C0038007000E001C003800380FC
S113099003800000000003800380038003800000C4
S11309A00000000000000000000000000000000043
S11309B00000000000001FF03FF8701C701C701C49
S11309C070FC71FC739C739C739C739C739C739CF0
S11309D0739C71FC70EC700070003FFC1FFC000005
S11309E0000000000000000000000E1C20A23115D1
S11309F000000000000000000000000000000000F3
S1130A0000000000000000000000000000000000E2
S1130A1000000000000000000000000000000000D2
S1130A2000000000000000000600180060018006BD
S1130A3000180060018006001800600180000000BA
S1130A4000600180060018000000000000000000A3
S1130A500000000000018C063018C063018C0630D1
S1130A600000000000000000000000000000000082
S1130A700000000000000000000000000000000072
S1130A800000000000000000000018C063018C0694
S1130A90307FF1FFC18C063018C063018C06307FB3
S1130AA0F1FFC18C063018C0630000000000000094
S1130AB000000000000000000000C003003F01FE31
S1130AC00CCC3330CC03300CC01FC03F803300CC7F
S1130AD00330CCC33307F80FC00C00300000000013
S1130AE00000000000000000000000003C31F8C6D7
S1130AF06619987EC0F30018006003000C006001C2
S1130B00800CF037E199866631F8C3C0000000001C
S1130B10000000000000000000000000000F007E44
S1130B20030C0C3030C0E701F803C00E007C63BB3B
S1130B309C7C60E183860E1C7C3FB87C60000000D6
S1130B4000000000000000000000006001800600BA
S1130B501800600180000000000000000000000098
S1130B600000000000000000000000000000000081
S1130B700000000000000000000000000C00600302
S1130B80000C006001800600180060018006001857
S1130B90006001800600180060018003000C00184A
S1130BA0003000000000000000000000018003008D
S1130BB0060018003000C003000C003000C0030021
S1130BC00C003000C003000C003000C00600180008
S1130BD0C00600000000000000000000000000004B
S1130BE0000000000000000038E07700F801C07F3A
S1130BF0F1FFC07003E01DC0E380000000000000AE
S1130C0000000000000000000000000000000000E0
S1130C100000000000000000C003000C003000C011
S1130C207FF9FFE03000C003000C0030000000003A
S1130C3000000000000000000000000000000000B0
S1130C4000000000000000000000000000000000A0
S1130C5000000000000000000000000060018006A9
S1130C60001800C0060000000000000000000000A2
S1130C700000000000000000000000000000000070
S1130C8000007FF1FFC00000000000000000000031
S1130C900000000000000000000000000000000050
S1130CA00000000000000000000000000000000040
S1130CB000000000000000000000000000006001CF
S1130CC08006001800000000000000000000000082
S1130CD000000000000C0030018006003000C00657
S1130CE0001800C0030018006003000C00600180BD
S1130CF00C0030018006000000000000000000002D
S1130D00000000000000001FC0FF8603180C607183
S1130D1083C61F18EC6731B8C7C31E0C703180C678
S1130D2003180C3FE07F00000000000000000000FA
S1130D30000000000000000003001C00F007C003D6
S1130D40000C003000C003000C003000C003000C95
S1130D50003000C01FE07F800000000000000000A1
S1130D600000000000000000001FC0FF8603180CF4
S1130D70603180C003001C00E007003801C00E0091
S1130D807003801C007FF1FFC00000000000000021
S1130D90000000000000000000001FC0FF860318D0
S1130DA00C003000C003000C0FE03F8003000C0077
S1130DB03000C603180C3FE07F0000000000000074
S1130DC00000000000000000000000003001C00F1F
S1130DD0007C03B01CC0E3070C3831C0C603180CF8
S1130DE07FF1FFC003000C003000C00000000000D1
S1130DF00000000000000000000000007FF1FFC6BA
S1130E0000180060018006001FF07FE000C00300AE
S1130E100C003000C603180C3FE07F000000000007
S1130E20000000000000000000000000001FE0FFC0
S1130E308600180060018006001FF07FE180C60371
S1130E40180C603180C603180C3FE07F00000000DE
S1130E5000000000000000000000000000007FF11E
S1130E60FFC603180C6030018006003000C0060085
S1130E701800C003000C003000C003000C00000088
S1130E800000000000000000000000000000001F3F
S1130E90C0FF8603180C603180C603180C3FE0FFC6
S1130EA08603180C603180C603180C3FE07F0000F5
S1130EB0000000000000000000000000000000002E
S1130EC01FC0FF8603180C603180C603180C603005
S1130ED0FFC1FF000C003000C003000C3FE0FF0026
S1130EE000000000000000000000000000000000FE
S1130EF000000000000000000000180060018006EF
S1130F0000000000000000000000600180060018DE
S1130F1000000000000000000000000000000000CD
S1130F2000000000000000000000001800600180C4
S1130F3006000000000000000000006001800600C0
S1130F401800C006000000000000000000000000BF
S1130F50000000000001C00E007003801C00E007C8
S1130F60003801C0038007000E001C003800700028
S1130F70E001C000000000000000000000000000CC
S1130F8000000000000000000000000001FFC7FF97
S1130F90000000000000001FFC7FF00000000000C3
S1130FA0000000000000000000000000000000003D
S1130FB000000000000001C0038007000E001C00B8
S1130FC038007000E001C00E007003801C00E007D0
S1130FD0003801C000000000000000000000000014
S1130FE00000000000001F80FF06061818606181E1
S1130FF0800C0060030018006001800000000060A5
S1131000018006001800000000000000000000003D
S1131010000000000000001FC0FF8603180C6031B0
S113102087C63F19CC663198C66319CC63F18746ED
S11310300018003FF07FC000000000000000000026
S113104000000000000000001FC0FF8603180C60B1
S11310503180C603180C6031FFC7FF180C60318063
S1131060C603180C603180C00000000000000000BE
S11310700000000000000000007FC1FF8603180C80
S1131080603180C6061FF07FC1818603180C603171
S113109080C603180C7FE1FF000000000000000080
S11310A0000000000000000000001FC0FF860318BD
S11310B00C60318006001800600180060018006092
S11310C00180C603180C3FE07F0000000000000010
S11310D000000000000000000000007F01FF060E79
S11310E01818603180C603180C603180C603180CD0
S11310F0603180C60618387FC1FC00000000000083
S11311000000000000000000000000007FF1FFC6A6
S1131110001800600180060018007F81FE06001898
S113112000600180060018007FF1FFC0000000008D
S1131130000000000000000000000000007FF1FF3C
S1131140C6001800600180060018007F81FE0600BA
S11311501800600180060018006001800000000093
S113116000000000000000000000000000001FC09C
S1131170FF8603180C6031800600180063F18FC6E7
S113118003180C603180C603180C3FE07F00000098
S113119000000000000000000000000000000060EB
S11311A03180C603180C603180C603180C7FF1FF30
S11311B0C603180C603180C603180C603180C0006F
S11311C0000000000000000000000000000000001B
S11311D00FC03F003000C003000C003000C003000B
S11311E00C003000C003000C003000C00FC03F00F2
S11311F000000000000000000000000000000000EB
S11312000001F807E00600180060018006001800DD
S1131210600180060018606181860618183FC07E50
S113122000000000000000000000000000000000BA
S11312300000603181C60E187063819C06E01F00B7
S11312407801E007C01B8067018E061C18386071A6
S113125080C000000000000000000000000000004A
S1131260000000600180060018006001800600187C
S11312700060018006001800600180060018007FED
S1131280F1FFC000000000000000000000000000AA
S11312900000000040098067039E1E7CF9BF667948
S11312A098C66019806601980660198066019806E0
S11312B060198060000000000000000000000000D1
S11312C00000000000603180C603180C7031E0C7D4
S11312D0C31B8C67318EC61F183C607180C603180F
S11312E00C603180C000000000000000000000001D
S11312F00000000000001FC0FF8603180C6031804E
S1131300C603180C603180C603180C603180C60314
S1131310180C3FE07F000000000000000000000007
S1131320000000000000007FC1FF8603180C60313C
S113133080C603180C6031FF87FC1800600180062A
S113134000180060018000000000000000000000A0
S113135000000000000000001FC0FF8603180C609E
S11313603180C603180C603180C603180C603180CC
S1131370C63B187C3FE07F8007000E0000000000A1
S11313800000000000000000007FC1FF8603180C6D
S1131390603180C603180C6031FF87FC1F006E01AA
S11313A09C0638187060E181C00000000000000055
S11313B0000000000000000000001FC0FF860318AA
S11313C00C600180060018003FC07F8003000C0001
S11313D03000C603180C3FE07F000000000000004E
S11313E000000000000000000000007FF9FFE03072
S11313F000C003000C003000C003000C003000C02B
S113140003000C003000C003000C000000000000CA
S1131410000000000000000000000000603180C6F1
S113142003180C603180C603180C603180C60318A1
S11314300C603180C603180C3FE07F000000000000
S11314400000000000000000000000000060318087
S1131450C603180C3060C183060C1818C063018CD5
S113146006300D803600D801C007001C00000000C3
S113147000000000000000000000000000006019EF
S11314808066019806601980660198066019806676
S11314903199E66FD9F3E7879C0E601900200000AC
S11314A000000000000000000000000000000060D8
S11314B03180C3060C1818C06300D8036007001CF1
S11314C000D8036018C06303060C18603180C000A4
S11314D00000000000000000000000000000000008
S11314E060198063030C0C18606180CC03300780A2
S11314F01E003000C003000C003000C003000C00CC
S113150000000000000000000000000000000000D7
S1131510007FF1FFC003000C007003801C00E00793
S1131520003801C00E00700180060018007FF1FF32
S1131530C000000000000000000000000000007E69
S113154001F80600180060018006001800600180A0
S11315500600180060018006001800600180060083
S113156018007E01F80000000000000000000000E8
S11315700018006000C00300060018003000C0011D
S11315808006000C00300060018003000C0018008D
S11315906000C00300000000000000000000000024
S11315A003F00FC003000C003000C003000C003037
S11315B000C003000C003000C003000C003000C069
S11315C003000C03F00FC000000000000000000046
S11315D000002001C00F8077038E1C1C0000000057
S11315E000000000000000000000000000000000F7
S11315F000000000000000000000000000000000E7
S113160000000000000000000000000000000000D6
S113161000000000000000000000000000000000C6
S1131620000000000000001FFC7FF000000000002C
S113163000000000C0038007000E00180000000036
S11316400000000000000000000000000000000096
S11316500000000000000000000000000000000086
S11316600000000000000000000000000000000076
S1131670007F01FE000C00307FC3FF180C60318036
S1131680C603180C3FF07FC00000000000000000FB
S11316900000000000000000006001800600180047
S11316A06001FF07FE180C603180C603180C60311E
S11316B080C603180C7FE1FF00000000000000005A
S11316C00000000000000000000000000000000016
S11316D00000007F03FE181C6001800600180060F3
S11316E001800600181C3FE07F000000000000009D
S11316F00000000000000000000000003000C003F3
S1131700000C00307FC3FF180C603180C603180C36
S1131710603180C603180C3FF07FC0000000000059
S113172000000000000000000000000000000000B5
S113173000000000007F03FE180C603180C7FF1F0B
S1131740FC6001800600181C3FE07F0000000000E0
S11317500000000000000000000000000003F01F73
S1131760C06001800600FF03FC01800600180060D1
S113177001800600180060018006001800000000C7
S11317800000000000000000000000000000000055
S1131790000000000000007FC3FF180C603180C609
S11317A003180C603180C603180C3FF07FC003009F
S11317B00C003000C3FE0FF00000000000000060C9
S11317C00180060018006001FF07FE180C603180DC
S11317D0C603180C603180C603180C603180C00049
S11317E000000000000000000000000000000000F5
S11317F003000C0030000000003C00F000C00300B7
S11318000C003000C003000C003000C00FC03F00CB
S113181000000000000000000000000000000000C4
S11318200000600180060000000007801E00180010
S11318306001800600180060018006001800600145
S113184080060C183060C181FC03E0000000000039
S113185000003000C003000C003000C1C30E0C7047
S11318603380DC03E00F003E00DC03380C7030E012
S1131870C1C00000000000000000000000000000E3
S11318800000000F003C003000C003000C003000DA
S1131890C003000C003000C003000C003000C00F77
S11318A0C03F000000000000000000000000000035
S11318B000000000000000000000000001FF87FF9E
S11318C018C663198C663198C663198C663198C63C
S11318D063198C600000000000000000000000009C
S11318E00000000000000000000000000001FF07ED
S11318F0FE180C603180C603180C603180C60318D2
S11319000C603180C00000000000000000000000F6
S11319100000000000000000000000000000007F44
S113192003FE180C603180C603180C603180C603B6
S1131930180C3FE07F0000000000000000000000E1
S11319400000000000000000000000000000000192
S1131950FF07FE180C603180C603180C603180C686
S113196003180C7FE1FF06001800600180060018D0
S11319700000000000000000000000000000000063
S1131980007FC3FF180C603180C603180C603180DF
S1131990C603180C3FF07FC003000C003000C003E6
S11319A0000C000000000000000000000000000027
S11319B000019FC6FF1F007801C0060018006001E7
S11319C08006001800600180000000000000000094
S11319D00000000000000000000000000000000003
S11319E00000007F03FE180C60018003FC07F80070
S11319F03000C0031C0C3FE07F000000000000002A
S1131A000000000000000000000000060018006054
S1131A1001800600FF03FC018006001800600180BD
S1131A200600180060018007E00F8000000000003D
S1131A3000000000000000000000000000000000A2
S1131A40000000000180C603180C603180C6031832
S1131A500C603180C603180C3FF07FC0000000000A
S1131A600000000000000000000000000000000072
S1131A7000000000000180C603180C3060C183061A
S1131A80063018C06300D8036007001C0000000083
S1131A900000000000000000000000000000000042
S1131AA000000000000001806601980660198C6641
S1131AB03198C663198C663198C63FF07F80000068
S1131AC00000000000000000000000000000000012
S1131AD0000000000000000180C6031C1C38E077F1
S1131AE000F801C00F8077038E1C1C603180C00099
S1131AF000000000000000000000000000000000E2
S1131B0000000000000000000180C603180C6031D2
S1131B1080C603180C603180C603180C3FF07FC0E8
S1131B2003000C003000C3FE0FF0000000000000B2
S1131B3000000000000000000001FFC7FF001C00BF
S1131B40E007003801C00E007003801C007FF1FF25
S1131B50C000000000000000000000000000000EB3
S1131B60007803800C003000C003000C00300180BA
S1131B701C0070006000C003000C003000C00300B3
S1131B800E001E00380000000000000000000000ED
S1131B9060018006001800600180060018006001E2
S1131BA080060018006001800600180060018006AD
S1131BB00018006001800000000000000000000028
S1131BC003800F000E0018006001800600180060FA
S1131BD000C001C0070030018006001800600180C9
S1131BE006003803C00E00000000000000000000E2
S1131BF000000000000000000000000000000000E1
S1131C00000F0C7E318CC63F1878000000000000E5
S1131C1000000000000000000000000000000000C0
S1131C200000000000001FC0FF8603180C60318014
S1131C30C603180C6031FFC7FF180C603180C6035F
S1131C40180C603180C0000000000000000000009B
S1131C50000000000000007FE1FF86001800600122
S1131C608006001FF07FE180C603180C603180C637
S1131C7003180C7FE1FF00000000000000000000DA
S1131C8000000000000000007FC1FF8603180C6004
S1131C903180C6061FF07FC1818603180C60318035
S1131CA0C603180C7FE1FF000000000000000000E4
S1131CB00000000000000000007FF1FFC6001800D3
S1131CC060018006001800600180060018006001B1
S1131CD08006001800600180000000000000000081
S1131CE00000000000000000000007F03FC1830C6A
S1131CF00C603180C603180C603180C603180C6078
S1131D003180C603180CFFFBFFEC01B006C01800BD
S1131D1000000000000000000000007FF1FFC6008A
S1131D201800600180060018007F81FE060018007C
S1131D30600180060018007FF1FFC0000000000071
S1131D4000000000000000000000000063198C6621
S1131D503198C66319CCE3B707F80FC07F83B71C6B
S1131D60CE63198C663198C663198C60000000003C
S1131D70000000000000000000000000001FC0FF81
S1131D808603180C003000C003000C0FE03F8003F2
S1131D90000C003000C603180C3FE07F0000000078
S1131DA0000000000000000000000000000060319E
S1131DB080C603180C603181C60F187C63B19CC6C1
S1131DC0E31F0C7831C0C603180C603180C00000DA
S1131DD0000000000000000018C07F00F800006050
S1131DE03180C603180C603181C60F187C63B19C26
S1131DF0C6E31F0C7831C0C603180C603180C000E4
S1131E0000000000000000000000000000000000CE
S1131E10603181C60E187063819C06E01F00780152
S1131E20E007C01B8067018E061C1838607180C0F3
S1131E30000000000000000000000000000000009E
S1131E400007F03FC183060C183060C183060C18EC
S1131E503060C183060C183060C183060C3831C071
S1131E60C0000000000000000000000000000000AE
S1131E70000040098067039E1E7CF9BF667998C6FE
S1131E8060198066019806601980660198066019D9
S1131E90806000000000000000000000000000005E
S1131EA0000000603180C603180C603180C603183E
S1131EB00C7FF1FFC603180C603180C603180C6058
S1131EC03180C0000000000000000000000000009D
S1131ED0000000001FC0FF8603180C603180C60399
S1131EE0180C603180C603180C603180C603180CCE
S1131EF03FE07F0000000000000000000000000040
S1131F0000000000007FF1FFC603180C603180C69A
S1131F1003180C603180C603180C603180C60318A6
S1131F200C603180C00000000000000000000000D0
S1131F300000000000007FC1FF8603180C603180A0
S1131F40C603180C6031FF87FC180060018006008E
S1131F501800600180000000000000000000000084
S1131F60000000000000001FC0FF8603180C603151
S1131F70800600180060018006001800600180C619
S1131F8003180C3FE07F0000000000000000000088
S1131F9000000000000000007FF9FFE03000C003F3
S1131FA0000C003000C003000C003000C003000C23
S1131FB0003000C003000C0000000000000000001E
S1131FC0000000000000000000603180C603180C0F
S1131FD0603180C603180C6030FFC1FF000C003074
S1131FE000C003000C3FE0FF000000000000000000
S1131FF0000000000000003000C01FE0FFC6319860
S1132000C663198C663198C663198C663198C663A9
S1132010198C663198C63FF07F803000C000000004
S11320200000000000000000000000603180C306D2
S11320300C1818C06300D8036007001C00D80360A4
S113204018C06303060C18603180C0000000000053
S1132050000000000000000000000000603180C6A5
S113206003180C603180C603180C603180C6031855
S11320700C603180C603180C3FF87FE00180060035
S113208018006000000000000000000000603180C3
S1132090C603180C603180C603180C3FF07FC003E0
S11320A0000C003000C003000C003000C000000031
S11320B000000000000000000000000000006319A0
S11320C08C663198C663198C663198C663198C6620
S11320D03198C663198C663198C63FF87FE00000DA
S11320E00000000000000000000000000000006389
S11320F0198C663198C663198C663198C663198C3D
S1132100663198C663198C663198C63FFC7FF0002F
S1132110C003000C003000000000000000000000BC
S1132120F003C003000C003000C003FE0FFC3018A5
S1132130C063018C063018C063018C063FF0FF8039
S1132140000000000000000000000000000000008B
S1132150006019806601980660198067F19FE66047
S1132160D983660D983660D983660D98367F99FCBD
S113217060000000000000000000000000000000FB
S113218000006001800600180060018007FC1FF851
S1132190603180C603180C603180C603180C7FE1DF
S11321A0FF0000000000000000000000000000002C
S11321B00000001FC0FF8603180C003000C003009D
S11321C00C0FF03FC003000C003000C603180C3F96
S11321D0E07F00000000000000000000000000009C
S11321E00000000061E18FC66199866619986661F6
S11321F099867E19F866619986661998666199864A
S113220063F187800000000000000000000000006F
S113221000000000001FF0FFC603180C603180C6E8
S113222003180C6030FFC1FF007C03B01CC0E3073F
S11322300C3831C0C00000000000000000000000A5
S11322400000000000000000000000000000007F0B
S113225001FE000C00307FC3FF180C603180C60300
S1132260180C3FF07FC000000000000000000000D8
S1132270000000000000001FC0FF060018006000FE
S11322808001FC0FF8603180C603180C603180C6F1
S113229003180C3FE07F0000000000000000000075
S11322A000000000000000001F00FE070C18306052
S11322B0C18306181FF07FE180C603180C603180CB
S11322C0C6031C183FE07F0000000000000000006F
S11322D000000000000000000000000000000000FA
S11322E00000FF03FE000C003000C1FE0FF060018F
S11322F080060018003FE07F80000000000000001E
S1132300000000000000000000003FC0FF80030048
S11323100C00307FC3FF180C603180C603180C60BA
S11323203180C603180C3FE07F000000000000006D
S11323300000000000000000000000000000000099
S1132340000000007F03FE180C603180C7FF1FFCF3
S11323506001800600181C3FE07F000000000000C0
S11323600000000000000000000000000000000069
S113237000000000018C663198C67338EDC1FE037D
S1132380F01FE0EDC73398C663198C6000000000AD
S11323900000000000000000000000000000000039
S11323A00000000000007F03FE1C0C003000C0FE93
S11323B003F8003000C0031C0C3FE07F0000000065
S11323C00000000000000000000000000000000009
S11323D00000000000000180C603180C603180C6B4
S11323E003180C603180C603181C3FF07EC0000047
S11323F000000000000000000000000000000000D9
S1132400006301FC03E0000180C603180C60318006
S1132410C603180C603180C603181C3FF07EC00050
S113242000000000000000000000000000000000A8
S1132430000000000000000000C1C30E0C703380D7
S1132440DC03E00F003E00DC03380C7030E0C1C058
S11324500000000000000000000000000000000078
S1132460000000000000000000001FC0FF060C1860
S11324703060C183060C183060C183060C3831C04B
S1132480C000000000000000000000000000000088
S113249000000000000000000000010026019C0E66
S11324A07879F3E6FD99E663198066019806601968
S11324B08060000000000000000000000000000038
S11324C000000000000000000000000180C60318A6
S11324D00C603180C7FF1FFC603180C603180C609C
S11324E03180C00000000000000000000000000077
S11324F0000000000000000000000000007F03FE58
S1132500180C603180C603180C603180C603180CA7
S11325103FE07F0000000000000000000000000019
S11325200000000000000000000000000001FFC7E0
S1132530FF180C603180C603180C603180C6031884
S11325400C603180C00000000000000000000000AA
S1132550000000000000000000000000000001FF77
S113256007FE180C603180C603180C603180C60366
S1132570180C7FE1FF0600180060018006001800B7
S11325800000000000000000000000000000000047
S11325907F03FE181C60018006001800600180069D
S11325A000181C3FE07F0000000000000000000055
S11325B00000000000000000000000000000000017
S11325C001FFE7FF80C003000C003000C003000CD3
S11325D0003000C003000C000000000000000000F8
S11325E000000000000000000000000000000000E7
S11325F0000180C603180C603180C603180C6031DA
S113260080C603180C3FF07FC003000C003000C3E9
S1132610FE0FF000000000000000000000000000B9
S1132620C003007F83FF18C663198C663198C663A4
S1132630198C663198C63FF07F803000C0000000DE
S11326400000000000000000000000000000000086
S11326500000000180C6031C1C38E07700F801C0AC
S11326600F8077038E1C1C603180C00000000000C6
S11326700000000000000000000000000000000056
S1132680000000000180C603180C603180C60318E6
S11326900C603180C603180C3FF87FE0018006000F
S11326A018006000000000000000000000000000AE
S11326B000000000000180C603180C603180C3FFD5
S11326C007FC003000C003000C003000C000000014
S11326D000000000000000000000000000000000F6
S11326E0000000000000018C663198C663198C66F6
S11326F03198C663198C663198C63FF87FE00000B4
S113270000000000000000000000000000000000C5
S113271000000000000000018C663198C663198C2B
S1132720663198C663198C663198C63FFC7FF00009
S1132730C003000C00300000000000000000000096
S1132740000000000000000003C00F000C00300077
S1132750FF03FE0C0C3030C0C3030C0C3FE0FF0041
S11327600000000000000000000000000000000065
S1132770000000000000000000018066019806606F
S113278019FC67F9983660D983660D98367F99FCF1
S113279060000000000000000000000000000000D5
S11327A00000000000000000000000C003000C0056
S11327B03000FF03FE0C0C3030C0C3030C0C3FE0B0
S11327C0FF00000000000000000000000000000006
S11327D00000000000000000000000007F03FE1C59
S11327E00C003000C0FF03FC003000C0031C0C3F91
S11327F0E07F000000000000000000000000000076
S11328000000000000000000000000000187863F77
S1132810198666199866619F867E199866619986FD
S113282063F1878000000000000000000000000049
S113283000000000000000000000000000007FC352
S1132840FF180C603180C6030FFC1FF00EC0730329
S11328508C1C30E0C00000000000000000000018E4
S1132860C063018C00007FF1FFC600180060018086
S1132870060018007F81FE06001800600180060033
S113288018007FF1FFC000000000000000000000FD
S113289000000000000000000063018C063000000E
S11328A07F03FE180C603180C7FF1FFC60018006A7
S11328B000181C3FE07F0000000000000000000042
S11328C0000000000000000061E18FC63318CC63F3
S11328D0F18787001C0079F1E7C6D81B6067819EE9
S11328E0063818E061818600000000000000000046
S11328F000000C1820A224120000000000000000B8
S113290000000000000000000000000000000000C3
S113291000000000000000000000000000000000B3
S11329200000060060060060060060060060060005
S113293060000000060060060000000000000000C7
S11329400000001981981981980900000000000016
S11329500000000000000000000000000000000073
S113296000000000000000000000198198198198FF
S11329707FE1981981981981987FE19819819819B4
S1132980800000000000000000000000006006015C
S1132990F836C6666606603601F806C066066666E0
S11329A036C1F806006000000000000000000000CE
S11329B0000000038C6CC6D86D83B0030060060071
S11329C0C00DC1B61B633631C0000000000000001A
S11329D00000000000000E01B03183183181B00EF8
S11329E001E633661C60C60C61C3361E600000003D
S11329F00000000000000006006006006006000001
S1132A0000000000000000000000000000000000C2
S1132A10000000000000000000000000C0180300D7
S1132A203006006006006006006006006006006074
S1132A3006003003001800C0000000000000003051
S1132A4001800C00C00600600600600600600600FD
S1132A50600600600600C00C018030000000000029
S1132A6000000000000000000000060C3181B00EE0
S1132A700FFE0E01B031860C0000000000000000C3
S1132A8000000000000000000000000000000060E2
S1132A900600600607FE06006006006000000000F5
S1132AA00000000000000000000000000000000022
S1132AB00000000000000000000000000000000012
S1132AC00600600600200200400000000000000034
S1132AD000000000000000000000000007FE0000ED
S1132AE000000000000000000000000000000000E2
S1132AF000000000000000000000000000000000D2
S1132B000000000000000000060060060000000055
S1132B100000000000000000000600600C00C01867
S1132B200180300300600600C00C018018030030EF
S1132B3006006000000000000000000000001F8389
S1132B400C60660660E61E6366666C6786706606E1
S1132B5060630C1F80000000000000000000000003
S1132B6000000600E01E0360060060060060060028
S1132B70600600600600603FC00000000000000026
S1132B800000000000001F830C6066066060060001
S1132B90C0180300600C01803006007FE0000000D4
S1132BA0000000000000000000001F830C606006AD
S1132BB000600600C0F800C00600600660630C1FD9
S1132BC08000000000000000000000000000006021
S1132BD00E01E0360660C61863066066066067FE8E
S1132BE0006006006000000000000000000000001B
S1132BF000007FE6006006006006007F800C006035
S1132C000600600660630C1F8000000000000000E6
S1132C100000000000001FC3006006006006007F83
S1132C20860C60660660660660630C1F8000000008
S1132C30000000000000000000007FE6066060065F
S1132C4000C00C0180180300300600600600600616
S1132C5000000000000000000000000000001F83CE
S1132C600C60660660660630C1F830C6066066060B
S1132C7060630C1F800000000000000000000000E2
S1132C8000001F830C6066066066066063061FE032
S1132C900600600600600C3F800000000000000099
S1132CA000000000000000000000000006006006B4
S1132CB000000000000000000600600600000000A4
S1132CC00000000000000000000000000000000000
S1132CD00600600600000000000000000600600618
S1132CE0002002004000000000000000000000601E
S1132CF00C0180300600C01803001800C006003024
S1132D0001800C00600000000000000000000000D2
S1132D1000000000000000000007FE0000000000AA
S1132D20007FE00000000000000000000000000040
S1132D300000000000006003001800C0060030011D
S1132D40800C0180300600C0180300600000000001
S1132D50000000000000000000001F830C606606F5
S1132D6060600C0180300600600000000600600610
S1132D7000000000000000000000000000001F83AD
S1132D800C60660663E66666666666666666663A4E
S1132D906003001FE00000000000000000000000CD
S1132DA000001F830C6066066066066066067FE6A8
S1132DB006606606606606606000000000000000B1
S1132DC00000000000007F860C60660660660C7FD1
S1132DD0860C60660660660660660C7F80000000F4
S1132DE0000000000000000000001F830C60660665
S1132DF060060060060060060060060660630C1F43
S1132E0080000000000000000000000000007F8639
S1132E100C606606606606606606606606606606A6
S1132E2060660C7F800000000000000000000000CD
S1132E3000007FE6006006006006006007F8600698
S1132E40006006006006007FE00000000000000053
S1132E500000000000007FE60060060060060060DD
S1132E6007F86006006006006006006000000000CD
S1132E70000000000000000000001F830C606606D4
S1132E8060060060063E60660660660660630C1FAE
S1132E9080000000000000000000000000006066E8
S1132EA0066066066066066067FE60660660660623
S1132EB06066066060000000000000000000000082
S1132EC000001F80600600600600600600600600C7
S1132ED0600600600600601F800000000000000023
S1132EE000000000000003F00C00C00C00C00C0047
S1132EF0C00C00C00C60C60C60C3181F00000000AA
S1132F000000000000000000000060660C618630D4
S1132F106606C07807007806C066063061860C60D5
S1132F2060000000000000000000000000006006D7
S1132F30006006006006006006006006006006008F
S1132F406006007FE00000000000000000000000B8
S1132F500000802C06E0EF1EDB6CE6C46C06C06C3F
S1132F6006C06C06C06C06C06000000000000000D3
S1132F700000000000006066066066067067866CEC
S1132F80666663661E60E6066066066060000000B2
S1132F90000000000000000000001F830C606606B3
S1132FA060660660660660660660660660630C1FFF
S1132FB080000000000000000000000000007F8688
S1132FC00C60660660660660C7F86006006006006E
S1132FD06006006000000000000000000000000027
S1132FE000001F830C606606606606606606606605
S1132FF00660660666633C1F800C006000000000EB
S11330000000000000007F860C60660660660660B3
S1133010C7F87806C066063061860C606000000060
S1133020000000000000000000001F830C60660028
S11330306006003001F800C00600600660630C1FE3
S113304080000000000000000000000000007FE09D
S1133050600600600600600600600600600600600E
S113306006006006000000000000000000000000F0
S11330700000606606606606606606606606606656
S11330800660660660630C1F8000000000000000FC
S113309000000000000060660660660630C30C3065
S11330A0C30C1981981980F00F006006000000001D
S11330B000000000000000000000C06C06C06C06A8
S11330C0C06C06C06C06C46CE6DB6F1EE0EC0680C8
S11330D02000000000000000000000000000606606
S11330E00630C30C1981980F00600F019819830CE6
S11330F030C6066060000000000000000000000010
S1133100000060660630C30C1981980F00F00600B9
S11331106006006006006006000000000000000079
S11331200000000000007FE00600600600C01803F5
S113313000600C01803006006006007FE0000000A3
S11331400000000000000007C06006006006006088
S11331500600600600600600600600600600600667
S1133160006007C0000000000000000006006003CB
S1133170003001801800C00C006006003003001805
S113318001800C00C0060060000000000000003E4A
S1133190006006006006006006006006006006002D
S11331A0600600600600600600603E00000000004B
S11331B00000000600F019830C60600000000000AD
S11331C000000000000000000000000000000000FB
S11331D000000000000000000000000000000000EB
S11331E000000000000000000000000000000000DB
S11331F000007FE0000000000000001800C006008E
S11332003001800000000000000000000000000009
S113321000000000000000000000000000000000AA
S113322000000000000000003F800C0060061FE367
S1133230066066066063061FE000000000000000F0
S11332400000000000006006006006007F860C603D
S1133250660660660660660660660C7F8000000095
S1133260000000000000000000000000000000005A
S11332701F830C60660060060060060060630C1F1C
S1133280800000000000000000000000000000605A
S1133290060060061FE30660660660660660660652
S11332A06063061FE0000000000000000000000052
S11332B000000000000000001F830C6066066067C9
S11332C0FE6006006003061FC0000000000000004E
S11332D000000000000003E0600600603FC06006DC
S11332E00060060060060060060060060000000042
S11332F000000000000000000000000000000000CA
S11333001FE3066066066066066066066063061F65
S1133310E00600600600C3F800000000000060063C
S1133320006006007F860C606606606606606606BE
S113333060660660600000000000000000000000FD
S113334000000600600600001E0060060060060023
S1133350600600600600601F80000000000000009E
S113336000000000000000C00C00C00003C00C00FE
S1133370C00C00C00C00C00C00C00C00C00C30C35A
S11333800C1980F00000000000003003003003003E
S113339030630C3183303603C036033031830C3054
S11333A060000000000000000000000000001E009B
S11333B060060060060060060060060060060060AB
S11333C00600601F800000000000000000000000F4
S11333D000000000000000007F866C66666666667A
S11333E06666666666666666600000000000000049
S11333F00000000000000000000000007F860C6058
S11334006606606606606606606606606000000028
S113341000000000000000000000000000000000A8
S11334201F830C60660660660660660660630C1F98
S11334308000000000000000000000000000000008
S1133440000000007F860C60660660660660660603
S113345060660C7F860060060060060000000000C5
S113346000000000000000001FE3066066066066BE
S1133470066066066063061FE006006006006006DC
S113348000000000000000000000000067E6C078B3
S1133490070060060060060060060060000000008F
S11334A00000000000000000000000000000000018
S11334B03FC6066006006003FC0060060066063F27
S11334C0C0000000000000000000000000000C002C
S11334D0C00C00C07F80C00C00C00C00C00C00C039
S11334E00C00C007C0000000000000000000000045
S11334F0000000000000000060660660660660666A
S1133500066066066063061FE0000000000000001D
S1133510000000000000000000000000606606607B
S1133520630C30C1981980F00F00600600000000A1
S11335300000000000000000000000000000000087
S11335406066066066066666666666666666663F0A
S1133550C0000000000000000000000000000000A7
S11335600000000060660630C1980F00600F0198EB
S113357030C606606000000000000000000000008B
S113358000000000000000006066066066066066D9
S1133590066066066063061FE00600600600C3F866
S11335A00000000000000000000000007FE00600B2
S11335B0C0180300600C01803006007FE0000000AA
S11335C00000000000000001C0300600600600603A
S11335D00600600C01800C006006006006006006B6
S11335E0003001C00000000000000006006006007A
S11335F06006006006006006006006006006006069
S113360006006006006006000000000000000038AC
S113361000C0060060060060060060030018030096
S1133620600600600600600600C03800000000006C
S11336300000000000000000000000000000003C4A
S1133640666666663C0000000000000000000000A2
S1133650000000000000000000001F830C606606EC
S11336606066066066067FE606606606606606605B
S113367060000000000000000000000000007FC6A1
S1133680006006006006007F860C606606606606C1
S113369060660C7F80000000000000000000000055
S11336A000007F860C60660660660C7F860C606690
S11336B00660660660660C7F800000000000000063
S11336C00000000000007FE6006006006006006065
S11336D0060060060060060060060060000000004E
S11336E0000000000000000000000FC18C30C30C7B
S11336F030C30C30C30C30C30C30C30C30C30C7F4C
S1133700E6066066060000000000000000007FE698
S1133710006006006006006007F8600600600600AE
S11337206006007FE00000000000000000000000D0
S1133730000066666666666666636C1F80F01F83BB
S11337406C666666666666666000000000000000DF
S11337500000000000001F830C606006006006008B
S1133760C0F800C00600600660630C1F8000000003
S113377000000000000000000000606606606606AD
S113378060E61E6366666C67867066066066066041
S1133790600000000000000030C30C1F8000606661
S11337A00660660660E61E6366666C67867066067B
S11337B06066066060000000000000000000000079
S11337C0000060660C6186306606C07807007806E3
S11337D0C066063061860C606000000000000000D6
S11337E00000000000000FE18630630630630630FD
S11337F06306306306306306306606C0600000006E
S113380000000000000000000000802C06E0EF1E15
S1133810DB6CE6C46C06C06C06C06C06C06C06C0EB
S1133820600000000000000000000000000060666E
S1133830066066066066066067FE60660660660689
S113384060660660600000000000000000000000E8
S113385000001F830C60660660660660660660668C
S11338600660660660630C1F800000000000000014
S11338700000000000007FE60660660660660660E1
S113388066066066066066066066066060000000A4
S1133890000000000000000000007F860C60660647
S11338A060660660C7F86006006006006006006097
S11338B000000000000000000000000000001F8362
S11338C00C6066066006006006006006006006067E
S11338D060630C1F80000000000000000000000076
S11338E000007FE0600600600600600600600600DD
S11338F06006006006006006000000000000000092
S113390000000000000060660660660660660660EF
S113391063061FE00600600600600C3F80000000A4
S1133920000000000000000000601F836C666666F3
S113393066666666666666666666666666636C1F67
S113394080600000000000000000000000006066CD
S11339500630C30C1981980F00600F019819830C6D
S113396030C6066060000000000000000000000097
S1133970000060660660660660660660660660664D
S1133980066066066063061FF00300300300000053
S1133990000000000000606606606606606606308F
S11339A061FE006006006006006006006000000022
S11339B0000000000000000000006666666666669F
S11339C06666666666666666666666666663661FDD
S11339D0E000000000000000000000000000666637
S11339E06666666666666666666666666666666673
S11339F06663661FF003003003000000000000004F
S1133A000000E00E006006006007F860C60660660D
S1133A100660660660660C7F8000000000000000FF
S1133A20000000000000C06C06C06C06C06FC6C673
S1133A306C36C36C36C36C36C36C66FC6000000025
S1133A4000000000000000000000600600600600A6
S1133A506007F860C60660660660660660660C7FEE
S1133A6080000000000000000000000000001F8330
S1133A700C6060060060060060FE006006006006E0
S1133A8060630C1F800000000000000000000000C4
S1133A900000C7CCC6CC6CC6CC6CC6CC6FC6CC6C94
S1133AA0C6CC6CC6CC6CC6C7C000000000000000C9
S1133AB00000000000001FE3066066066066063032
S1133AC061FE01E0360660C618630660600000000F
S1133AD000000000000000000000000000000000E2
S1133AE03F800C0060061FE30660660660630E1FDD
S1133AF060000000000000000000000000001FC380
S1133B00006006003001F830C6066066066066068E
S1133B1060630C1F80000000000000000000000033
S1133B2000003F061860C60C60C6187F860C6066ED
S1133B300660660660660C3F80000000000000001E
S1133B400000000000000000000000003FC006006C
S1133B5060060063FC6006006006003FC0000000D1
S1133B60000000000000000000003F800C00600620
S1133B701FE30E60660660660660660660630C1FDF
S1133B8080000000000000000000000000000000B1
S1133B90000000001F830C6066066067FE6006007C
S1133BA06003061FC00000000000000000000000C9
S1133BB0000000000000000066666666636C1F80FB
S1133BC0F01F836C666666666000000000000000FB
S1133BD00000000000000000000000003FC60600D6
S1133BE060060060FC0060060066063FC00000003E
S1133BF000000000000000000000000000000000C1
S1133C006066066066066066066066066063061F98
S1133C10E00000000000000000000000000030C3CD
S1133C200C1F8000606606606606606606606606B5
S1133C306063061FE00000000000000000000000B8
S1133C40000000000000000030630C3183303603B4
S1133C50C036033031830C306000000000000000E7
S1133C600000000000000000000000000FE18630AA
S1133C70630630630630630630630660600000004C
S1133C800000000000000000000000000000000030
S1133C9040260670E79E6F6666606606606606608C
S1133CA060000000000000000000000000000000B0
S1133CB0000000006066066066066067FE606606D7
S1133CC06066066060000000000000000000000064
S1133CD000000000000000001F830C6066066066A0
S1133CE00660660660630C1F800000000000000090
S1133CF00000000000000000000000007FE60660F5
S1133D00660660660660660660660660600000001F
S1133D10000000000000000000000000000000009F
S1133D207F860C60660660660660660660660C7FC9
S1133D30860060060060060000000000000000002D
S1133D40000000001F830C6066006006006006002F
S1133D5060630C1F800000000000000000000000F1
S1133D6000000000000000007FE060060060060024
S1133D70600600600600600600000000000000000D
S1133D800000000000000000000000006066066003
S1133D9066066066066066066063061FE0060060ED
S1133DA00600C3F8000000000000000000060060E8
S1133DB01F836C66666666666666666666636C1F07
S1133DC08060060000000000000000000000000009
S1133DD00000000060660630C1980F00600F019873
S1133DE030C6066060000000000000000000000013
S1133DF00000000000000000606606606606606661
S1133E00066066066063061FF003003003000000CE
S1133E100000000000000000000000006066066072
S1133E2066063061FE006006006006006000000067
S1133E30000000000000000000000000000000007E
S1133E406666666666666666666666666663661F58
S1133E50E00000000000000000000000000000007E
S1133E600000000066666666666666666666666686
S1133E706663661FF00300300300000000000000CA
S1133E8000000000000000007007003003F830C399
S1133E900630630630630C3F800000000000000021
S1133EA000000000000000000000000060660660E2
S1133EB067C66666366366366366667C60000000C5
S1133EC000000000000000000000000000000000EE
S1133ED06006006007F061860C60C60C60C6187F3F
S1133EE000000000000000000000000000000000CE
S1133EF0000000001F830C6060060060FE00600686
S1133F0060630C1F8000000000000000000000003F
S1133F100000000000000000C7CCC6CC6CC6CC6F0B
S1133F20C6CC6CC6CC6CC6C7C00000000000000044
S1133F300000000000000000000000003FE60660F2
S1133F4066066063FE0360660C61863060000000F4
S1133F50000000001981981980007FE600600600C7
S1133F606006006007F86006006006006006007FD7
S1133F70E0000000000000000000000000001981C3
S1133F80981980001F830C6066066067FE60060057
S1133F906003061FC00000000000000000000000D5
S1133FA0000061C63663663661C60070073E7BE674
S1133FB0B06F067067063063000000000000000068
S1133FC00D2630043E25F807C03E03F01F81FC0F88
S1133FD0E0FF0FF87FC7FE3FF3EF9F7DF3FF9FF8ED
S1133FE0FFC7FC3FE1FF8FFE7FF3EFDF3FF9FFC721
S1133FF0FE1FF0FF83FC0FE07F01F807C03E01F0D5
S11340000F807C007C07C03E01E00E00700307981F
S11340107C83C43E01E01F01F00F80F807C07C03DD
S1134020E01F00FC03E01F807E01F007C43E30F96E
S113403083EE1F787FC1FF0FFC3FE0DF867E13F025
S11340400FC001F807C03E00F003801CF067C31ED8
S113405008F843C01F007C03E00F807C01F00F8050
S11340607C07E03E03E03F01F01F00F84F86F8377D
S1134070C3FC3FC1FE1FE1FE0FB0FD0FF07F87FCC4
S1134080FFFFFFFFFF01FC0FE07F83FE1FF0FFC770
S1134090FE3EF9F7CF9F7CFFE3FF1FF87FC3FE3F8F
S11340A0F3FF9FFDFBFF9FF8FFC7FC3FC1FE0FE03E
S11340B07E03F01F00F807C03FFFFFFFFFFC3C3CFE
S11340C03CDCDCDCFFFF00FF5F00FFFF4F004FFF25
S11340D04FFF00FF4F0000FF4F004FFF00DF4F0076
S11340E0DFFFFF4F00004FFFFF00EF00DFEFFFEFA8
S11340F00000EFFFEF00FFEFCF00FFD7004FD70026
S1134100FFFFFFBEBEBEFFBE3CB4780000FF000050
S1134110B400BEBEFF6E6EC8F8E8009A9A0000FFB5
S1134120FF00A0A0FFB4FFA064A0FFFFFFD2D2D283
S1134130FFBE3CD2A00000FF0000D200BEBEFF784C
S113414078DCF5F500BEBE0000FFFF00BEBEFFB484
S1134150FFBE64BEC8C8C8808080606060404040C4
S1134160C8C8C8686868F85000B050009C00007C5B
S11341700000F0000090000000D0000088000068FB
S11341800000480000D0000070000050FF0050A064
S11341900000900000700028FF002890E8C8007814
S11341A07000805000603000E8B80088580000C8F3
S11341B0D000808800606800404800C8D000687063
S11341C0E800E8900090700070500050D800D87853
S11341D00078FFFFFF808080606060404040C8C876
S11341E0C8686868FF0000A800009C00007C00000C
S11341F0F0000090000000FF00008800006800004C
S1134200480000D0000070000000FF0000B0000073
S1134210900000700000F8000098FFFF0078700024
S1134220805000603000E8B80088580000FFFF00AC
S1134230808800606800404800C8D0006870FF00B3
S1134240FF900090700070500050E200E278007817
S11342502A002300300039003800370036003500CA
S1134260340033003200310041746D656C205374A6
S11342707564696F20372E30004B56422D313662FB
S113428069742D4C43440A41546D65676131323879
S113429000C0D3C4C8CE00C7C2D3CAC800D1D2C0DC
S11342A0D0D200C2CDC8C700D1C1D0CED100CDC0BC
S11342B0C7C0C400C2C8C4C5CE00C2C2C5D0D500E0
S11342C020C2FBE2EEE4E8EC20E220F1F2F0EEEAB8
S11342D0E520E2E5F9E5F1F2E2E5EDEDEEE520F7C2
S11342E0E8F1EBEE20F120E4EEE1E0E2EBE5EDE8CD
S11342F0E5EC20EDF3EBE5E92E200020D1FAE5F81A
S1134300FC20E5F9B820FDF2E8F520ECFFE3EAE84B
S1134310F520F4F0E0EDF6F3E7F1EAE8F520E1F357
S1134320EBEEEA2C20E4E020E2FBEFE5E920E6E511
S113433020F7E0FE2E00D2E5EAF1F220F120F2E5CA
S1134340EDFCFE00CFE5F0E5EDEEF120EFEE20F11F
S1134350EBEEE2E0EC00C1EEF0F3E7E4EEE220CABB
S1134360EEEDF1F2E0EDF2E8ED0AF2E5EB2E202BB2
S113437037203936352D3336332D34352D32390047
S1134380CFF0E5E4F1F2E0E2EBFFE5F22C20E3F01C
S1134390E0F4E8F7E5F1EAF3FE20E1E8E1EBE8EE2A
S11343A0F2E5EAF3204B564220312E302C20EDE08A
S11343B0EFE8F1E0EDEDF3FE20E8F1EAEBFEF7E8DB
S11343C0F2E5EBFCEDEE20E220F6E5EBEEF7E8F1AA
S11343D0EBE5EDEDEEE920ECE0F2E5ECE0F2E8EA05
S11343E0E520EDE020FFE7FBEAE5203C433E20E248
S11343F0203C4743433E00303132330011241FBE7A
S1134400CFEFD0E1DEBFCDBF11E0A0E0B1E0E0E04E
S1134410FDEE00E00BBF02C007900D92A430B1077F
S1134420D9F721E0A4E0B1E001C01D92A539B2079B
S1134430E1F70E940B710C947E760C94000080933B
S11344400D01979896E395BB9698969A8130D1F191
S113445098F18230D9F08330B1F4979A88E285BB21
S11344609698969A80910D018230C8F08FED91E074
S113447090930A01809309018FE391E090930C01DA
S113448080930B01089582E080930D01979A8BE24B
S113449085BB9698969A80910D01823038F78FE308
S11344A091E090930A01809309018FED91E090933C
S11344B00C0180930B010895979A8AE085BB969826
S11344C0969AD0CF979A89E085BB9698969ACACF48
S11344D01F93CF93DF93182FE7E0F1E0108211824E
S11344E086838FEF84BB8ABB85BB8BBB8E9A8C9AE9
S11344F0E4E6F0E08081816080838F9A8D9A8081E8
S113450082608083959AC5E6D0E088818D7F888318
S113451094988881816088838FE39CE90197F1F7FF
S113452000C0000088818E7F88839FEF20E782E0AF
S1134530915020408040E1F700C0000088818160F4
S113454088839FEF2BED85E0915020408040E1F778
S113455000C0000081E1D9D09FEF2BED85E09150A0
S113456020408040E1F700C0000080EDCED087E01D
S1134570D1D082E4C6D088E1C4D081EDC6D080E039
S1134580C9D087E0BED080E1BCD082EDBED081E04E
S1134590C1D082E0B6D080ECB8D080E1BBD08BE350
S11345A0B0D080E0AED082E0ACD081E1AAD085EC7E
S11345B0ACD080E0AFD088ECA8D080E0ABD082E370
S11345C0A0D086E39ED086E09CD086E09AD080E09E
S11345D098D087E396D085E794D087E792D084E596
S11345E090D08CE08ED080E08CD0812F28DF8AE3BD
S11345F08CD085E58FD089E288D09FEF2BED85E0C4
S1134600915020408040E1F700C0000080E0C2D417
S11346109FEF22E587E0915020408040E1F700C001
S11346200000888182608883949ADF91CF911F91E2
S113463008959498979823E325BB9698969A979A09
S113464095BB9698969A85BB9698969A75BB9698BC
S1134650969A65BB9698969A55BB9698969A45BB3A
S11346609698969A949A08959498979827E325BBD8
S11346709698969A979A95BB9698969A85BB96988B
S1134680969A949A08959498E5E6F0E080818D7F57
S1134690808388E23AD02FEF89EF90E02150804068
S11346A09040E1F700C0000080E12BD02FEF8BEDAC
S11346B095E0215080409040E1F700C00000949ABA
S11346C00895949881E121D02FEF8BED95E021504E
S11346D080409040E1F700C0000089E212D02FEF43
S11346E089EF90E0215080409040E1F700C0000045
S11346F08CE207D0E5E6F0E0808182608083949AC2
S1134700089585BB9698969A0895979885BB969830
S1134710969A0895979A85BB9698969A089597982D
S11347202AE225BB9698969A979A95BB9698969A5C
S113473085BB9698969A95BB9698969A85BB9698BB
S1134740969A97988BE285BB9698969A979A75BB9A
S11347509698969A65BB9698969A75BB9698969AEB
S113476065BB9698969A97988CE285BB9698969A8C
S1134770979A50E0FA01EE0FFF1FE15FFE4F808130
S11347808BBB440F551FFA01E95FFE4F878185BB40
S11347909698969A08950F931F939798EAE2E5BB2B
S11347A09698969A979A95BB9698969A85BB96985A
S11347B0969A55BB9698969A45BB9698969A9798CA
S11347C09BE295BB9698969A979A75BB9698969AFB
S11347D065BB9698969A35BB9698969A25BB9698FB
S11347E0969A97989CE295BB9698969A979A10E019
S11347F0F801EE0FFF1FE15FFE4F90819BBB000F9E
S1134800111FF801E95FFE4F978195BB481B2F5F8D
S11348103F4F261B370B429F200D11249698969AE2
S11348202150E1F71F910F910895EF920F939798FC
S1134830EAE2E5BB9698969A979A95BB9698969ACB
S113484085BB9698969A55BB9698969A45BB96982A
S1134850969A97989BE295BB9698969A979A75BB69
S11348609698969A65BB9698969A35BB9698969A1A
S113487025BB9698969A97989CE295BB9698969A9B
S1134880979A0BBBE5BA481B2F5F3F4F261B370B8C
S1134890429F200D11249698969A2150E1F70F918A
S11348A0EF9008950F931F93D90197982AE225BB9F
S11348B09698969A979A95BB9698969A85BB969849
S11348C0969A55BB9698969A45BB9698969A9798B9
S11348D02BE225BB9698969A979A75BB9698969ACA
S11348E065BB9698969AB5BB9698969AA5BB9698EA
S11348F0969A97982CE225BB9698969A979A10E0E8
S1134900F801EE0FFF1FE15FFE4F20812BBB000F6C
S1134910111FF801E95FFE4F278125BB4F5F5F4FF1
S11349209A01281B390B1196A61BB70B0E94F27330
S11349308B019C0144E036952795179507954A9578
S1134940D1F76F700115110541F19698969A9698D2
S1134950969A9698969A9698969A9698969A9698DB
S1134960969A9698969A9698969A9698969A9698CB
S1134970969A9698969A9698969A9698969A9698BB
S1134980969A9698969A9698969A01501109E9F6ED
S1134990662329F09698969A61506111FBCF1F9176
S11349A00F910895EF920F931F93D90197982AE2DC
S11349B025BB9698969A979A95BB9698969A85BB96
S11349C09698969A55BB9698969A45BB9698969AB9
S11349D097982BE225BB9698969A979A75BB9698CA
S11349E0969A65BB9698969AB5BB9698969AA5BBE7
S11349F09698969A97982CE225BB9698969A979AA9
S1134A000BBBE5BA4F5F5F4F9A01281B390B119618
S1134A10A61BB70B0E94F2738B019C0184E03695B0
S1134A202795179507958A95D1F76F70011511058C
S1134A3041F19698969A9698969A9698969A9698F8
S1134A40969A9698969A9698969A9698969A9698EA
S1134A50969A9698969A9698969A9698969A9698DA
S1134A60969A9698969A9698969A9698969A9698CA
S1134A70969A01501109E9F6662329F09698969AB8
S1134A8061506111FBCF1F910F91EF9008952F9208
S1134A903F924F925F926F927F928F929F92AF92CA
S1134AA0BF92CF92DF92EF92FF920F931F93CF9317
S1134AB0DF93CDB7DEB762970FB6F894DEBF0FBEB3
S1134AC0CDBF49832A83D701882309F4B6C1862F31
S1134AD090E09C01220F331F820F931F880F991FB0
S1134AE0FC01E254FF4B6491687FFC01E154FF4BED
S1134AF054915C7FFC01E054FF4B3491387FFC01FE
S1134B00EF53FF4B4491487FFC01EE53FF4B24913C
S1134B102C7FFC01ED53FF4BE491E87F862F90E05E
S1134B209F838E83642F70E07D836C83861B970B39
S1134B309695982F8827979587959A8B898B852F9B
S1134B4090E099878887422E512C84199509AC01ED
S1134B505695542F4427579547955E874D87632F65
S1134B6070E07B876A872E2E312CCB018219930942
S1134B709C013695322F222737952795388B2F871E
S1134B8039813323F1F040910D014B83413009F415
S1134B908BC108F4A1C1423009F493C1433009F038
S1134BA078C1E0900B01F0900C0147018A189B0832
S1134BB0EA1AFB0A80E043DC56016701D80184014C
S1134BC001C01B8235015FEF651A750A6A1A7B0AF8
S1134BD076016FEFE61AF60AE01AF10A97988AE26C
S1134BE085BB9698969A979A15BB9698969A05BB04
S1134BF09698969AD5BA9698969AC5BA9698969A89
S1134C0097988BE285BB9698969A979AB5BB969897
S1134C10969AA5BB9698969AB5BA9698969AA5BA76
S1134C209698969A97988CE285BB9698969A979AB6
S1134C307A81723008F4D3C0262D21702C87430169
S1134C409694879489899A89B4010E94BD735B0103
S1134C508D859E85B4010E94BD737E876D878F8587
S1134C609889B4010E94BD733A81DD24D394323013
S1134C7009F4CEC04E815F815695542F4427579531
S1134C804795288539853695322F222737952795DC
S1134C90EA85FB85F695FE2FEE27F795E79500E06C
S1134CA0D701B295A295AF70AB27BF70AB271E2D6D
S1134CB01F70CC24C3945C841B01CA0188279C7791
S1134CC0880F892F881F990B7901EE2460E7F6225B
S1134CD09F2D9595959595959595892B8BBBCF0192
S1134CE088279C77F92EF594F594C90188279E703E
S1134CF09595879595958795959587959595879598
S1134D008F2985BB109719F1CD019698969A96989C
S1134D10969A9698969A9698969A9698969A969817
S1134D20969A9698969A9698969A9698969A969807
S1134D30969A9698969A9698969A9698969A9698F7
S1134D40969A9698969A9698969A0197F1F61123C0
S1134D5029F0812F9698969A8150E1F771E0671AAD
S1134D607108DD2019F068147904A1F1002349F1D8
S1134D704A0D5B1D8D859E85280F391FE20DF31D9D
S1134D8001E06114710409F098CF7981711167C051
S1134D9062960FB6F894DEBF0FBECDBFDF91CF9100
S1134DA01F910F91FF90EF90DF90CF90BF90AF9045
S1134DB09F908F907F906F905F904F903F902F9037
S1134DC008954A195B096D857E85261B370BE21908
S1134DD0F309D7CF0C255110C9CFD12CD2CF898953
S1134DE09A89B3010E94BD735B018D859E85B301D1
S1134DF00E94BD737E876D878F859889B3010E9459
S1134E00BD738A81811185C01C86D12C812C912C83
S1134E104C815D815695542F4427579547959201AF
S1134E203695322F222737952795F101F695FE2FD7
S1134E30EE27F795E79501E033CF862F90E0FC014C
S1134E40EE0FFF1FE80FF91FEE0FFF1FE95FFE4F84
S1134E506789508D318D428D238DE48D5FCE8B819A
S1134E6062960FB6F894DEBF0FBECDBFDF91CF912F
S1134E701F910F91FF90EF90DF90CF90BF90AF9074
S1134E809F908F907F906F905F904F903F902F9066
S1134E90D6CA9C2D8D2D6501A92EB82E902F812F59
S1134EA08D01A92FB82F8ECE809107018130E1F0BA
S1134EB045013D0183E0C3DA56016401D801830151
S1134EC081CEE0900B01F0900C0147018A189B08F9
S1134ED0EA1AFB0A81E06FCE80910701813071F0FC
S1134EE045013D0182E0E7CF80900B0190900C01D9
S1134EF034016A187B088A1A9B0ADCCF80900B0164
S1134F0090900C0134016A187B088A1A9B0A82E08B
S1134F10D2CF812C912CD12C1C86ACCE30E0F9015F
S1134F20EE0FFF1FE15FFE4F887F962F92959695B7
S1134F309770892B8083220F331FF901E95FFE4F9D
S1134F406C71660F660F660F469546954695642B01
S1134F5067830895CF92DF92EF920F93D12CF601DD
S1134F60EE0FFF1FEC0DFD1DEE0FFF1FE95FFE4F5F
S1134F70887F878B6C7F608F487F418F287F228F4B
S1134F800C7F038F8E2D887F848F0F91EF90DF909D
S1134F90CF9008950F939498E7E0F1E02481358150
S1134FA042815381082F60E070E080E090E07ADC79
S1134FB0949A0F910895AF92BF92CF92DF92EF929D
S1134FC0FF920F931F939498E7E0F1E0A480B580DB
S1134FD0C280D380E12CF12C00E010E058DD949ADB
S1134FE01F910F91FF90EF90DF90CF90BF90AF9003
S1134FF00895AF92BF92CF92DF92EF92FF920F93F8
S11350001F939E2DAC2DBA2D2115310511F0215081
S113501031090115110511F0015011096901C60E7C
S1135020D71EE0910901F0910A01EC15FD0550F03D
S11350305801A40EB51EE0910B01F0910C01EA1584
S1135040FB0548F41F910F91FF90EF90DF90CF90F4
S1135050BF90AF90089594987A018B012B2F4A2F1B
S1135060692F15DD949AEECF9F92AF92BF92CF92A3
S1135070DF92EF92FF920F931F93CF93DF93182F3A
S1135080962EE0900901F0900A018FEFE81AF80AD1
S1135090C0900B01D0900C019FEFC91AD90A8091DE
S11350A00D0140E050E0823008F469C0B70180E0AF
S11350B090E0BFDA80910801811151C080910D0107
S11350C0C0E0D0E08230D0F1092D960141E050E0FB
S11350D060E070E0111118C0CE0101970E94A13266
S11350E0CE01C2DA8FE99FE00197F1F700C000001A
S11350F02196EC16FD06A8F1092D960141E050E039
S113510060E070E0112341F35701AC1ABD0AC501F8
S11351100E94A132C501A8DAE5CFBE0180E090E08B
S11351200E94A132CE01A0DA8FE99FE00197F1F746
S113513000C000002196CC16DD0698F0092D21E070
S113514030E0A701112349F35601AC1ABD0AB50199
S113515080E090E00E94A132C50186DAE5CF81307B
S113516099F080E090E0DF91CF911F910F91FF9033
S1135170EF90DF90CF90BF90AF909F9075CAB6012B
S113518080E090E056DA96CF80910D01811127C01E
S1135190C0E0D0E013C0BE016150710980E090E02E
S11351A00E94A132CE0160DA8FE99FE00197F1F706
S11351B000C000002196CC16DD0698F2092D21E0EE
S11351C030E0A701112339F35601AC1ABD0AB50129
S11351D080E090E00E94A132C50146DAE5CF81303B
S11351E009F44FC0823039F1833009F0BACFC0E0FE
S11351F0D0E010C0CE010E94A132CE0135DA8FE991
S11352009FE00197F1F700C000002196EC16FD061F
S113521008F4A7CF092D960141E050E060E070E06A
S1135220112341F35701AC1ABD0AC5010E94A132F2
S1135230C5011ADAE4CF5701C0E0D0E014C0CE01B2
S113524001970E94A132C5010FDA8FE99FE001970F
S1135250F1F700C00000219691E0A91AB108EC16FC
S1135260FD0608F47ECF092D960141E050E060E090
S113527070E0112321F3C5010E94A132CE01F4D9BB
S1135280E4CF5601C0E0D0E017C0BE0161507109FF
S113529080E090E00E94A132C501E6D98FE99FE049
S11352A00197F1F700C00000219691E0A91AB10816
S11352B0CC16DD0608F455CF092D21E030E0A70116
S11352C0112319F3B50180E090E00E94A132CE01D0
S11352D0CBD9E4CF2F923F924F925F926F927F92FD
S11352E08F929F92AF92BF92CF92DF92EF92FF92F2
S11352F00F931F93CF93DF9300D000D0CDB7DEB7C9
S1135300A0910901B0910A014D018A179B0708F485
S11353104C01BA83A9834A175B0710F45A83498363
S1135320E0910B01F0910C01CF016E177F0708F497
S1135330CB012E173F0708F4F90129803A80821423
S1135340930408F0D2C0281839083C822B82EE243A
S1135350E394F12C8E179F0708F0C0C0BF01681BAF
S1135360790BCC24C394D12C10E09801220F331F65
S1135370215F3E4FD901AC90000F111F095F1E4FF2
S1135380D8011796BC9094982B803C80232809F070
S113539059C009811A810815190528F4382D292DB9
S11353A0480139832A83E817F90708F42AC1979832
S11353B02AE225BB9698969A979A95BA9698969AC1
S11353C085BA9698969A1A8115BB9698969A2981C9
S11353D025BB9698969A97982BE225BB9698969A11
S11353E0979A95BB9698969A85BB9698969AF5BB8C
S11353F09698969AE5BB9698969A97988CE285BB70
S11354009698969A979AABBAB5BA9698969A615026
S11354107109D8F7949A0F900F900F900F90DF9125
S1135420CF911F910F91FF90EF90DF90CF90BF909D
S1135430AF909F908F907F906F905F904F903F9030
S11354402F9008956115710509F05AC049815A8158
S11354504815590528F4382D292D4A0139832A8302
S1135460E817F90708F4D3C097982AE225BB969861
S1135470969A979A95BA9698969A85BA9698969A7D
S11354805A8155BB9698969AA981A5BB9698969AE7
S113549097982BE225BB9698969A979A95BB9698DF
S11354A0969A85BB9698969AF5BB9698969AE5BB7C
S11354B09698969A97988CE285BB9698969A979A1E
S11354C0ABBAB5BA9698969A0B811C810150110912
S11354D01C830B830F3F1F4FA9F79CCFBC016E1B8E
S11354E07F0BCC24CA94DC2C3FCF940149815A8190
S11354F0241B350B3C832B83EE24EA94FE2C2ACF09
S1135500A4019C018B819C816817790709F485C0EB
S1135510AB81BC81A617B70708F0D2C0DB01B695F2
S1135520A795B195A195B1097C2C88248A94820E03
S1135530C9018A01912C312C0F2EFAE26F2EF02D25
S11355400F2EFBE25F2EF02D0F2EFCE24F2EF02DDE
S113555031101CC02E173F07C9F091105CCF99245D
S113556093942E173F0709F0912C2C0D3D1D2B8091
S11355703C80A20DB31DB7FDA0C04E0D5F1DA61B40
S1135580B70B33243394870C332021F3979865BAEF
S11355909698969A979A15BB9698969A05BB96985C
S11355A0969A15BB9698969A05BB9698969A97984C
S11355B055BA9698969A979A821793070CF064C0F6
S11355C095BB9698969A85BB9698969A89010150B0
S11355D0110915BB9698969A85BA9698969A9798B3
S11355E045BA9698969A979A1901281A390AC101C8
S11355F0ABBAB5BA9698969A0197E1F7C9018A01B0
S1135600ACCF382F292FCF01E32FF22FD0CE382F54
S1135610292FCF01E32FF22F27CF6AE29BE28CE2FE
S113562004C04E0D5F1D2C0D3D1D979865BB9698CB
S1135630969A979A55BB9698969A45BB9698969A39
S113564055BB9698969A45BB9698969A979895BB0B
S11356509698969A979A35BB9698969A25BB96985B
S1135660969A35BB9698969A25BB9698969A97984B
S113567085BB9698969A979AABBAB5BA9698969A25
S1135680E217F30771F6C6CE89010F5F1F4F15BBF2
S11356909698969A12E0180D15BB9698969A95BB13
S11356A09698969A85BB9698969A979845BA96989E
S11356B0969A979A821B930B9BCF312C870C64CFBD
S11356C0EB81FC81F695E795F195E195F1097E2C46
S11356D088248A94840E2901CA01912C10E0AAE23C
S11356E06A2EBBE23B2E0CE2202E11111FC0098151
S11356F01A8104171507D1F091108DCE9924939433
S113570009811A814017510709F0912C4E0D5F1D34
S1135710E60FF71FF7FD6EC02C0D3D1DAB81BC815C
S1135720EA1BFB0B11E0870C112309F3979865BA68
S11357309698969A979A8417950794F595BB969898
S1135740969A85BB9698969A8A010150110915BBC1
S11357509698969A85BA9698969A979835BA9698FE
S1135760969A979A55BA9698969A45BA9698969A0A
S113577055BA9698969A45BA9698969A979825BA4D
S11357809698969A979ADA01A81BB90BCD01ABBAF1
S1135790B5BA9698969A0197E1F72901CA01ACCF58
S11357A08A010F5F1F4F15BB9698969A12E0180D49
S11357B015BB9698969A95BB9698969A85BB96989B
S11357C0969A979835BA9698969A979A55BA9698BB
S11357D0969A45BA9698969A55BA9698969A45BACC
S11357E09698969A979825BA9698969A979A841B1B
S11357F0950BCDCF10E0870C97CF2F923F924F920D
S11358005F926F927F928F929F92AF92BF92CF924C
S1135810DF92EF92FF920F931F93CF93DF9300D009
S113582000D0CDB7DEB7E0910901F0910A01FA8307
S1135830E9835F018E179F0708F45C0189819A81CF
S11358404817590710F45A834983E0910B01F091EA
S11358500C01AF016E177F0708F4AB01FC83EB83E7
S11358602E173F0710F43C832B83E981FA81AE168F
S1135870BF0608F0EBC0DF01AA19BB09EE24E394CC
S1135880F12C8B819C814817590708F0D6C09C01E4
S1135890241B350BCC24C394D12C10E0C801880FF1
S11358A0991F815F9E4FFC018080000F111F095FCB
S11358B01E4FF80197809498109709F069C00981E8
S11358C01A810A151B0528F49A2D8B2D58019983EA
S11358D08A838B819C818417950708F446C1979825
S11358E08AE285BB9698969A979AB5BA9698969AAC
S11358F0A5BA9698969A89819A81019695BB9698AD
S1135900969A99819F5F95BB9698969A97988BE201
S113591085BB9698969A979A55BB9698969A45BB46
S11359209698969A8B819C81019695BB9698969AA7
S1135930EB81EF5FE5BB9698969A97988CE285BBCE
S11359409698969A979A8BBA95BA9698969A9698A4
S1135950969A9698969A9698969A21503109A8F70D
S1135960949A0F900F900F900F90DF91CF911F9109
S11359700F91FF90EF90DF90CF90BF90AF909F90EA
S11359808F907F906F905F904F903F902F900895ED
S11359902115310509F063C0E981FA81EA15FB0597
S11359A028F49A2D8B2D5F0199838A830B811C81A6
S11359B00417150708F4E0C097988AE285BB969807
S11359C0969A979AB5BA9698969AA5BA9698969AE8
S11359D089819A81019695BB9698969A99819F5F41
S11359E095BB9698969A97988BE285BB9698969ACB
S11359F0979A55BB9698969A45BB9698969A8B819A
S1135A009C81019695BB9698969AEB81EF5FE5BBD6
S1135A109698969A97988CE285BB9698969A979AB8
S1135A208BBA95BA9698969A9698969A9698969AC4
S1135A309698969A1197B0F793CF9A01EB81FC81CF
S1135A402E1B3F0BCC24CA94DC2C27CFD5012981F3
S1135A503A81A21BB30BEE24EA94FE2C12CFB501BB
S1135A602A173B0709F48EC0A217B30708F0F7C042
S1135A70F901F695E795882799278E1B9F0B9A8342
S1135A8089835C2C66246394640ECA01712C10E033
S1135A90EAE24E2EFBE23F2E0CE2202E111123C02F
S1135AA0EB81FC814E175F07F1F071105ACF772418
S1135AB07394EB81FC814E175F0709F0712C4C0D38
S1135AC05D1D09811A810A0F1B1F1A83098317FDA3
S1135AD0C3C06E0D7F1D021B130B1A83098311E0D3
S1135AE0650C1123E9F2979845BA9698969A979A75
S1135AF0B5BA9698969AA5BA9698969A85010F5F24
S1135B001F4F15BB9698969AA394A5BA9698969A01
S1135B10979835BA9698969A979A841795070CF0A1
S1135B207FC095BB9698969A85BB9698969A55BBD6
S1135B309698969A45BB9698969A979825BA969869
S1135B40969A979A8A01081B190BC8018BBA95BAC1
S1135B509698969A9698969A9698969A9698969AC9
S1135B600197B1F7CA015B01A0CF942F852F4B8118
S1135B705C819B838C83B3CE942F852FA8019B8358
S1135B808C831ACF1E2D91E09A0DEC2D81E0840FA9
S1135B90FAE2BBE2ACE204C06E0D7F1D4C0D5D1D4C
S1135BA09798F5BB9698969A979A75BB9698969AF5
S1135BB065BB9698969A9B012F5F3F4F35BB96988D
S1135BC0969A95BB9698969A9798B5BB9698969AF6
S1135BD0979A55BB9698969A45BB9698969A9A0129
S1135BE02F5F3F4F35BB9698969A85BB9698969AA9
S1135BF09798A5BB9698969A979A8BBA95BA9698C1
S1135C00969A9698969A9698969A9698969A910FA6
S1135C108E0F2B813C812417350709F0BDCFA0CE10
S1135C208A010F5F1F4F15BB9698969A65BA96988E
S1135C30969A8C010F5F1F4F15BB9698969A11E0A8
S1135C40180F15BB9698969A979825BA9698969A8F
S1135C50979A841B950B7ACF10E0650C42CFFD0117
S1135C60F695E795F195E195F1095E2C6624639428
S1135C706A0C5A01CB01712C10E00AE2402E0BE2AF
S1135C80302E0CE2202E11111DC009811A81061735
S1135C901707C1F0711065CE7724739409811A81B6
S1135CA06017710709F0712C6E0D7F1DE20FF31F51
S1135CB0F7FD7CC04C0D5D1DEA1BFB0B11E0650C70
S1135CC0112319F3979845BA9698969A979A861736
S1135CD09707DCF595BB9698969A85BB9698969A05
